{
  "contractName": "Boomflow",
  "abi": [
    {
      "constant": false,
      "inputs": [
        {
          "internalType": "address",
          "name": "account",
          "type": "address"
        }
      ],
      "name": "addWhitelisted",
      "outputs": [],
      "payable": false,
      "stateMutability": "nonpayable",
      "type": "function"
    },
    {
      "constant": true,
      "inputs": [
        {
          "internalType": "bytes32",
          "name": "",
          "type": "bytes32"
        }
      ],
      "name": "filled",
      "outputs": [
        {
          "internalType": "uint256",
          "name": "",
          "type": "uint256"
        }
      ],
      "payable": false,
      "stateMutability": "view",
      "type": "function"
    },
    {
      "constant": false,
      "inputs": [
        {
          "internalType": "address",
          "name": "account",
          "type": "address"
        }
      ],
      "name": "removeWhitelisted",
      "outputs": [],
      "payable": false,
      "stateMutability": "nonpayable",
      "type": "function"
    },
    {
      "constant": true,
      "inputs": [
        {
          "internalType": "bytes32",
          "name": "",
          "type": "bytes32"
        }
      ],
      "name": "cancelled",
      "outputs": [
        {
          "internalType": "bool",
          "name": "",
          "type": "bool"
        }
      ],
      "payable": false,
      "stateMutability": "view",
      "type": "function"
    },
    {
      "constant": true,
      "inputs": [
        {
          "internalType": "address",
          "name": "account",
          "type": "address"
        }
      ],
      "name": "isWhitelisted",
      "outputs": [
        {
          "internalType": "bool",
          "name": "",
          "type": "bool"
        }
      ],
      "payable": false,
      "stateMutability": "view",
      "type": "function"
    },
    {
      "constant": false,
      "inputs": [],
      "name": "renounceWhitelistAdmin",
      "outputs": [],
      "payable": false,
      "stateMutability": "nonpayable",
      "type": "function"
    },
    {
      "constant": true,
      "inputs": [],
      "name": "paused",
      "outputs": [
        {
          "internalType": "bool",
          "name": "",
          "type": "bool"
        }
      ],
      "payable": false,
      "stateMutability": "view",
      "type": "function"
    },
    {
      "constant": true,
      "inputs": [
        {
          "internalType": "bytes32",
          "name": "",
          "type": "bytes32"
        }
      ],
      "name": "_hashCheck",
      "outputs": [
        {
          "internalType": "bool",
          "name": "",
          "type": "bool"
        }
      ],
      "payable": false,
      "stateMutability": "view",
      "type": "function"
    },
    {
      "constant": false,
      "inputs": [
        {
          "internalType": "address",
          "name": "account",
          "type": "address"
        }
      ],
      "name": "addWhitelistAdmin",
      "outputs": [],
      "payable": false,
      "stateMutability": "nonpayable",
      "type": "function"
    },
    {
      "constant": true,
      "inputs": [
        {
          "internalType": "bytes32",
          "name": "hash",
          "type": "bytes32"
        },
        {
          "internalType": "address",
          "name": "signerAddress",
          "type": "address"
        },
        {
          "internalType": "bytes",
          "name": "signature",
          "type": "bytes"
        }
      ],
      "name": "isValidSignature",
      "outputs": [
        {
          "internalType": "bool",
          "name": "isValid",
          "type": "bool"
        }
      ],
      "payable": false,
      "stateMutability": "pure",
      "type": "function"
    },
    {
      "constant": true,
      "inputs": [
        {
          "internalType": "bytes32",
          "name": "",
          "type": "bytes32"
        }
      ],
      "name": "max",
      "outputs": [
        {
          "internalType": "uint256",
          "name": "",
          "type": "uint256"
        }
      ],
      "payable": false,
      "stateMutability": "view",
      "type": "function"
    },
    {
      "constant": true,
      "inputs": [
        {
          "internalType": "address",
          "name": "account",
          "type": "address"
        }
      ],
      "name": "isWhitelistAdmin",
      "outputs": [
        {
          "internalType": "bool",
          "name": "",
          "type": "bool"
        }
      ],
      "payable": false,
      "stateMutability": "view",
      "type": "function"
    },
    {
      "constant": true,
      "inputs": [
        {
          "components": [
            {
              "components": [
                {
                  "internalType": "address",
                  "name": "userAddress",
                  "type": "address"
                },
                {
                  "internalType": "uint256",
                  "name": "amount",
                  "type": "uint256"
                },
                {
                  "internalType": "uint256",
                  "name": "price",
                  "type": "uint256"
                },
                {
                  "internalType": "uint256",
                  "name": "orderType",
                  "type": "uint256"
                },
                {
                  "internalType": "bool",
                  "name": "side",
                  "type": "bool"
                },
                {
                  "internalType": "uint256",
                  "name": "salt",
                  "type": "uint256"
                },
                {
                  "internalType": "address",
                  "name": "baseAssetAddress",
                  "type": "address"
                },
                {
                  "internalType": "address",
                  "name": "quoteAssetAddress",
                  "type": "address"
                },
                {
                  "internalType": "address",
                  "name": "feeAddress",
                  "type": "address"
                },
                {
                  "internalType": "uint256",
                  "name": "makerFeePercentage",
                  "type": "uint256"
                },
                {
                  "internalType": "uint256",
                  "name": "takerFeePercentage",
                  "type": "uint256"
                }
              ],
              "internalType": "struct LibOrder.Order",
              "name": "order",
              "type": "tuple"
            },
            {
              "internalType": "uint256",
              "name": "nonce",
              "type": "uint256"
            }
          ],
          "internalType": "struct LibRequest.CancelRequest",
          "name": "request",
          "type": "tuple"
        }
      ],
      "name": "getRequestHash",
      "outputs": [
        {
          "internalType": "bytes32",
          "name": "requestHash",
          "type": "bytes32"
        }
      ],
      "payable": false,
      "stateMutability": "view",
      "type": "function"
    },
    {
      "constant": false,
      "inputs": [],
      "name": "renounceWhitelisted",
      "outputs": [],
      "payable": false,
      "stateMutability": "nonpayable",
      "type": "function"
    },
    {
      "constant": true,
      "inputs": [],
      "name": "EIP712_DOMAIN_HASH",
      "outputs": [
        {
          "internalType": "bytes32",
          "name": "",
          "type": "bytes32"
        }
      ],
      "payable": false,
      "stateMutability": "view",
      "type": "function"
    },
    {
      "inputs": [],
      "payable": false,
      "stateMutability": "nonpayable",
      "type": "constructor"
    },
    {
      "anonymous": false,
      "inputs": [
        {
          "indexed": true,
          "internalType": "address",
          "name": "userAddress",
          "type": "address"
        },
        {
          "indexed": false,
          "internalType": "uint256",
          "name": "amount",
          "type": "uint256"
        },
        {
          "indexed": false,
          "internalType": "uint256",
          "name": "price",
          "type": "uint256"
        },
        {
          "indexed": false,
          "internalType": "enum LibOrder.OrderType",
          "name": "orderType",
          "type": "uint8"
        },
        {
          "indexed": false,
          "internalType": "bool",
          "name": "side",
          "type": "bool"
        },
        {
          "indexed": false,
          "internalType": "address",
          "name": "baseAssetAddress",
          "type": "address"
        },
        {
          "indexed": false,
          "internalType": "address",
          "name": "quoteAssetAddress",
          "type": "address"
        },
        {
          "indexed": false,
          "internalType": "bytes32",
          "name": "orderHash",
          "type": "bytes32"
        },
        {
          "indexed": false,
          "internalType": "uint256",
          "name": "fee",
          "type": "uint256"
        },
        {
          "indexed": false,
          "internalType": "address",
          "name": "feeAddress",
          "type": "address"
        },
        {
          "indexed": false,
          "internalType": "address",
          "name": "matcherAddress",
          "type": "address"
        },
        {
          "indexed": false,
          "internalType": "uint256",
          "name": "tradeAmount",
          "type": "uint256"
        }
      ],
      "name": "Fill",
      "type": "event"
    },
    {
      "anonymous": false,
      "inputs": [
        {
          "indexed": false,
          "internalType": "address",
          "name": "account",
          "type": "address"
        }
      ],
      "name": "Paused",
      "type": "event"
    },
    {
      "anonymous": false,
      "inputs": [
        {
          "indexed": false,
          "internalType": "address",
          "name": "account",
          "type": "address"
        }
      ],
      "name": "Unpaused",
      "type": "event"
    },
    {
      "anonymous": false,
      "inputs": [
        {
          "indexed": true,
          "internalType": "address",
          "name": "account",
          "type": "address"
        }
      ],
      "name": "WhitelistedAdded",
      "type": "event"
    },
    {
      "anonymous": false,
      "inputs": [
        {
          "indexed": true,
          "internalType": "address",
          "name": "account",
          "type": "address"
        }
      ],
      "name": "WhitelistedRemoved",
      "type": "event"
    },
    {
      "anonymous": false,
      "inputs": [
        {
          "indexed": true,
          "internalType": "address",
          "name": "account",
          "type": "address"
        }
      ],
      "name": "WhitelistAdminAdded",
      "type": "event"
    },
    {
      "anonymous": false,
      "inputs": [
        {
          "indexed": true,
          "internalType": "address",
          "name": "account",
          "type": "address"
        }
      ],
      "name": "WhitelistAdminRemoved",
      "type": "event"
    },
    {
      "constant": true,
      "inputs": [],
      "name": "hashLength",
      "outputs": [
        {
          "internalType": "uint256",
          "name": "length",
          "type": "uint256"
        }
      ],
      "payable": false,
      "stateMutability": "view",
      "type": "function"
    },
    {
      "constant": true,
      "inputs": [
        {
          "internalType": "uint256",
          "name": "begin",
          "type": "uint256"
        }
      ],
      "name": "hashList",
      "outputs": [
        {
          "internalType": "bytes32[4]",
          "name": "res",
          "type": "bytes32[4]"
        }
      ],
      "payable": false,
      "stateMutability": "view",
      "type": "function"
    },
    {
      "constant": true,
      "inputs": [
        {
          "internalType": "bytes32",
          "name": "orderHash",
          "type": "bytes32"
        }
      ],
      "name": "getOrderData",
      "outputs": [
        {
          "components": [
            {
              "internalType": "uint256",
              "name": "filled",
              "type": "uint256"
            },
            {
              "internalType": "uint256",
              "name": "max",
              "type": "uint256"
            },
            {
              "internalType": "bool",
              "name": "cancelled",
              "type": "bool"
            },
            {
              "internalType": "bool",
              "name": "flag",
              "type": "bool"
            }
          ],
          "internalType": "struct Boomflow.OrderData",
          "name": "orderData",
          "type": "tuple"
        }
      ],
      "payable": false,
      "stateMutability": "view",
      "type": "function"
    },
    {
      "constant": true,
      "inputs": [
        {
          "internalType": "bytes32",
          "name": "orderHash",
          "type": "bytes32"
        }
      ],
      "name": "getBaseMakerOrders",
      "outputs": [
        {
          "components": [
            {
              "internalType": "address",
              "name": "userAddress",
              "type": "address"
            },
            {
              "internalType": "uint256",
              "name": "amount",
              "type": "uint256"
            },
            {
              "internalType": "uint256",
              "name": "price",
              "type": "uint256"
            },
            {
              "internalType": "uint256",
              "name": "orderType",
              "type": "uint256"
            },
            {
              "internalType": "bool",
              "name": "side",
              "type": "bool"
            },
            {
              "internalType": "uint256",
              "name": "salt",
              "type": "uint256"
            },
            {
              "internalType": "address",
              "name": "baseAssetAddress",
              "type": "address"
            },
            {
              "internalType": "address",
              "name": "quoteAssetAddress",
              "type": "address"
            },
            {
              "internalType": "address",
              "name": "feeAddress",
              "type": "address"
            },
            {
              "internalType": "uint256",
              "name": "makerFeePercentage",
              "type": "uint256"
            },
            {
              "internalType": "uint256",
              "name": "takerFeePercentage",
              "type": "uint256"
            }
          ],
          "internalType": "struct LibOrder.Order[]",
          "name": "orders",
          "type": "tuple[]"
        }
      ],
      "payable": false,
      "stateMutability": "view",
      "type": "function"
    },
    {
      "constant": true,
      "inputs": [
        {
          "internalType": "bytes32",
          "name": "orderHash",
          "type": "bytes32"
        }
      ],
      "name": "getQuoteMakerOrders",
      "outputs": [
        {
          "components": [
            {
              "internalType": "address",
              "name": "userAddress",
              "type": "address"
            },
            {
              "internalType": "uint256",
              "name": "amount",
              "type": "uint256"
            },
            {
              "internalType": "uint256",
              "name": "price",
              "type": "uint256"
            },
            {
              "internalType": "uint256",
              "name": "orderType",
              "type": "uint256"
            },
            {
              "internalType": "bool",
              "name": "side",
              "type": "bool"
            },
            {
              "internalType": "uint256",
              "name": "salt",
              "type": "uint256"
            },
            {
              "internalType": "address",
              "name": "baseAssetAddress",
              "type": "address"
            },
            {
              "internalType": "address",
              "name": "quoteAssetAddress",
              "type": "address"
            },
            {
              "internalType": "address",
              "name": "feeAddress",
              "type": "address"
            },
            {
              "internalType": "uint256",
              "name": "makerFeePercentage",
              "type": "uint256"
            },
            {
              "internalType": "uint256",
              "name": "takerFeePercentage",
              "type": "uint256"
            }
          ],
          "internalType": "struct LibOrder.Order[]",
          "name": "orders",
          "type": "tuple[]"
        }
      ],
      "payable": false,
      "stateMutability": "view",
      "type": "function"
    },
    {
      "constant": false,
      "inputs": [
        {
          "internalType": "bytes32[]",
          "name": "orderHash",
          "type": "bytes32[]"
        },
        {
          "components": [
            {
              "internalType": "uint256",
              "name": "filled",
              "type": "uint256"
            },
            {
              "internalType": "uint256",
              "name": "max",
              "type": "uint256"
            },
            {
              "internalType": "bool",
              "name": "cancelled",
              "type": "bool"
            },
            {
              "internalType": "bool",
              "name": "flag",
              "type": "bool"
            }
          ],
          "internalType": "struct Boomflow.OrderData[]",
          "name": "orderData",
          "type": "tuple[]"
        }
      ],
      "name": "setOrderData",
      "outputs": [],
      "payable": false,
      "stateMutability": "nonpayable",
      "type": "function"
    },
    {
      "constant": false,
      "inputs": [
        {
          "internalType": "bytes32",
          "name": "orderHash",
          "type": "bytes32"
        },
        {
          "components": [
            {
              "internalType": "address",
              "name": "userAddress",
              "type": "address"
            },
            {
              "internalType": "uint256",
              "name": "amount",
              "type": "uint256"
            },
            {
              "internalType": "uint256",
              "name": "price",
              "type": "uint256"
            },
            {
              "internalType": "uint256",
              "name": "orderType",
              "type": "uint256"
            },
            {
              "internalType": "bool",
              "name": "side",
              "type": "bool"
            },
            {
              "internalType": "uint256",
              "name": "salt",
              "type": "uint256"
            },
            {
              "internalType": "address",
              "name": "baseAssetAddress",
              "type": "address"
            },
            {
              "internalType": "address",
              "name": "quoteAssetAddress",
              "type": "address"
            },
            {
              "internalType": "address",
              "name": "feeAddress",
              "type": "address"
            },
            {
              "internalType": "uint256",
              "name": "makerFeePercentage",
              "type": "uint256"
            },
            {
              "internalType": "uint256",
              "name": "takerFeePercentage",
              "type": "uint256"
            }
          ],
          "internalType": "struct LibOrder.Order[]",
          "name": "base",
          "type": "tuple[]"
        },
        {
          "components": [
            {
              "internalType": "address",
              "name": "userAddress",
              "type": "address"
            },
            {
              "internalType": "uint256",
              "name": "amount",
              "type": "uint256"
            },
            {
              "internalType": "uint256",
              "name": "price",
              "type": "uint256"
            },
            {
              "internalType": "uint256",
              "name": "orderType",
              "type": "uint256"
            },
            {
              "internalType": "bool",
              "name": "side",
              "type": "bool"
            },
            {
              "internalType": "uint256",
              "name": "salt",
              "type": "uint256"
            },
            {
              "internalType": "address",
              "name": "baseAssetAddress",
              "type": "address"
            },
            {
              "internalType": "address",
              "name": "quoteAssetAddress",
              "type": "address"
            },
            {
              "internalType": "address",
              "name": "feeAddress",
              "type": "address"
            },
            {
              "internalType": "uint256",
              "name": "makerFeePercentage",
              "type": "uint256"
            },
            {
              "internalType": "uint256",
              "name": "takerFeePercentage",
              "type": "uint256"
            }
          ],
          "internalType": "struct LibOrder.Order[]",
          "name": "quote",
          "type": "tuple[]"
        }
      ],
      "name": "setOrderRecordedMakerOrders",
      "outputs": [],
      "payable": false,
      "stateMutability": "nonpayable",
      "type": "function"
    },
    {
      "constant": false,
      "inputs": [
        {
          "components": [
            {
              "internalType": "address",
              "name": "userAddress",
              "type": "address"
            },
            {
              "internalType": "uint256",
              "name": "amount",
              "type": "uint256"
            },
            {
              "internalType": "uint256",
              "name": "price",
              "type": "uint256"
            },
            {
              "internalType": "uint256",
              "name": "orderType",
              "type": "uint256"
            },
            {
              "internalType": "bool",
              "name": "side",
              "type": "bool"
            },
            {
              "internalType": "uint256",
              "name": "salt",
              "type": "uint256"
            },
            {
              "internalType": "address",
              "name": "baseAssetAddress",
              "type": "address"
            },
            {
              "internalType": "address",
              "name": "quoteAssetAddress",
              "type": "address"
            },
            {
              "internalType": "address",
              "name": "feeAddress",
              "type": "address"
            },
            {
              "internalType": "uint256",
              "name": "makerFeePercentage",
              "type": "uint256"
            },
            {
              "internalType": "uint256",
              "name": "takerFeePercentage",
              "type": "uint256"
            }
          ],
          "internalType": "struct LibOrder.Order",
          "name": "takerOrder",
          "type": "tuple"
        },
        {
          "components": [
            {
              "internalType": "address",
              "name": "userAddress",
              "type": "address"
            },
            {
              "internalType": "uint256",
              "name": "amount",
              "type": "uint256"
            },
            {
              "internalType": "uint256",
              "name": "price",
              "type": "uint256"
            },
            {
              "internalType": "uint256",
              "name": "orderType",
              "type": "uint256"
            },
            {
              "internalType": "bool",
              "name": "side",
              "type": "bool"
            },
            {
              "internalType": "uint256",
              "name": "salt",
              "type": "uint256"
            },
            {
              "internalType": "address",
              "name": "baseAssetAddress",
              "type": "address"
            },
            {
              "internalType": "address",
              "name": "quoteAssetAddress",
              "type": "address"
            },
            {
              "internalType": "address",
              "name": "feeAddress",
              "type": "address"
            },
            {
              "internalType": "uint256",
              "name": "makerFeePercentage",
              "type": "uint256"
            },
            {
              "internalType": "uint256",
              "name": "takerFeePercentage",
              "type": "uint256"
            }
          ],
          "internalType": "struct LibOrder.Order[]",
          "name": "makerOrders",
          "type": "tuple[]"
        },
        {
          "internalType": "bytes",
          "name": "takerSignature",
          "type": "bytes"
        },
        {
          "internalType": "bytes[]",
          "name": "makerSignatures",
          "type": "bytes[]"
        }
      ],
      "name": "recordInstantExchangeOrders",
      "outputs": [],
      "payable": false,
      "stateMutability": "nonpayable",
      "type": "function"
    },
    {
      "constant": false,
      "inputs": [
        {
          "components": [
            {
              "internalType": "address",
              "name": "userAddress",
              "type": "address"
            },
            {
              "internalType": "uint256",
              "name": "amount",
              "type": "uint256"
            },
            {
              "internalType": "uint256",
              "name": "price",
              "type": "uint256"
            },
            {
              "internalType": "uint256",
              "name": "orderType",
              "type": "uint256"
            },
            {
              "internalType": "bool",
              "name": "side",
              "type": "bool"
            },
            {
              "internalType": "uint256",
              "name": "salt",
              "type": "uint256"
            },
            {
              "internalType": "address",
              "name": "baseAssetAddress",
              "type": "address"
            },
            {
              "internalType": "address",
              "name": "quoteAssetAddress",
              "type": "address"
            },
            {
              "internalType": "address",
              "name": "feeAddress",
              "type": "address"
            },
            {
              "internalType": "uint256",
              "name": "makerFeePercentage",
              "type": "uint256"
            },
            {
              "internalType": "uint256",
              "name": "takerFeePercentage",
              "type": "uint256"
            }
          ],
          "internalType": "struct LibOrder.Order",
          "name": "takerOrder",
          "type": "tuple"
        },
        {
          "internalType": "bytes",
          "name": "takerSignature",
          "type": "bytes"
        },
        {
          "internalType": "uint256",
          "name": "threshold",
          "type": "uint256"
        }
      ],
      "name": "executeInstantExchangeTrade",
      "outputs": [],
      "payable": false,
      "stateMutability": "nonpayable",
      "type": "function"
    },
    {
      "constant": false,
      "inputs": [
        {
          "components": [
            {
              "internalType": "address",
              "name": "userAddress",
              "type": "address"
            },
            {
              "internalType": "uint256",
              "name": "amount",
              "type": "uint256"
            },
            {
              "internalType": "uint256",
              "name": "price",
              "type": "uint256"
            },
            {
              "internalType": "uint256",
              "name": "orderType",
              "type": "uint256"
            },
            {
              "internalType": "bool",
              "name": "side",
              "type": "bool"
            },
            {
              "internalType": "uint256",
              "name": "salt",
              "type": "uint256"
            },
            {
              "internalType": "address",
              "name": "baseAssetAddress",
              "type": "address"
            },
            {
              "internalType": "address",
              "name": "quoteAssetAddress",
              "type": "address"
            },
            {
              "internalType": "address",
              "name": "feeAddress",
              "type": "address"
            },
            {
              "internalType": "uint256",
              "name": "makerFeePercentage",
              "type": "uint256"
            },
            {
              "internalType": "uint256",
              "name": "takerFeePercentage",
              "type": "uint256"
            }
          ],
          "internalType": "struct LibOrder.Order",
          "name": "makerOrder",
          "type": "tuple"
        },
        {
          "components": [
            {
              "internalType": "address",
              "name": "userAddress",
              "type": "address"
            },
            {
              "internalType": "uint256",
              "name": "amount",
              "type": "uint256"
            },
            {
              "internalType": "uint256",
              "name": "price",
              "type": "uint256"
            },
            {
              "internalType": "uint256",
              "name": "orderType",
              "type": "uint256"
            },
            {
              "internalType": "bool",
              "name": "side",
              "type": "bool"
            },
            {
              "internalType": "uint256",
              "name": "salt",
              "type": "uint256"
            },
            {
              "internalType": "address",
              "name": "baseAssetAddress",
              "type": "address"
            },
            {
              "internalType": "address",
              "name": "quoteAssetAddress",
              "type": "address"
            },
            {
              "internalType": "address",
              "name": "feeAddress",
              "type": "address"
            },
            {
              "internalType": "uint256",
              "name": "makerFeePercentage",
              "type": "uint256"
            },
            {
              "internalType": "uint256",
              "name": "takerFeePercentage",
              "type": "uint256"
            }
          ],
          "internalType": "struct LibOrder.Order",
          "name": "takerOrder",
          "type": "tuple"
        },
        {
          "internalType": "bytes",
          "name": "makerSignature",
          "type": "bytes"
        },
        {
          "internalType": "bytes",
          "name": "takerSignature",
          "type": "bytes"
        },
        {
          "internalType": "address",
          "name": "feeAddress",
          "type": "address"
        }
      ],
      "name": "executeTrade",
      "outputs": [
        {
          "components": [
            {
              "internalType": "uint256",
              "name": "tradeAmount",
              "type": "uint256"
            },
            {
              "internalType": "uint256",
              "name": "tradeFunds",
              "type": "uint256"
            },
            {
              "internalType": "uint256",
              "name": "makerFillAmount",
              "type": "uint256"
            },
            {
              "internalType": "uint256",
              "name": "takerFillAmount",
              "type": "uint256"
            },
            {
              "internalType": "uint256",
              "name": "makerFee",
              "type": "uint256"
            },
            {
              "internalType": "uint256",
              "name": "takerFee",
              "type": "uint256"
            }
          ],
          "internalType": "struct LibFillResults.MatchedFillResults",
          "name": "matchedFillResults",
          "type": "tuple"
        }
      ],
      "payable": false,
      "stateMutability": "nonpayable",
      "type": "function"
    },
    {
      "constant": false,
      "inputs": [
        {
          "components": [
            {
              "components": [
                {
                  "internalType": "address",
                  "name": "userAddress",
                  "type": "address"
                },
                {
                  "internalType": "uint256",
                  "name": "amount",
                  "type": "uint256"
                },
                {
                  "internalType": "uint256",
                  "name": "price",
                  "type": "uint256"
                },
                {
                  "internalType": "uint256",
                  "name": "orderType",
                  "type": "uint256"
                },
                {
                  "internalType": "bool",
                  "name": "side",
                  "type": "bool"
                },
                {
                  "internalType": "uint256",
                  "name": "salt",
                  "type": "uint256"
                },
                {
                  "internalType": "address",
                  "name": "baseAssetAddress",
                  "type": "address"
                },
                {
                  "internalType": "address",
                  "name": "quoteAssetAddress",
                  "type": "address"
                },
                {
                  "internalType": "address",
                  "name": "feeAddress",
                  "type": "address"
                },
                {
                  "internalType": "uint256",
                  "name": "makerFeePercentage",
                  "type": "uint256"
                },
                {
                  "internalType": "uint256",
                  "name": "takerFeePercentage",
                  "type": "uint256"
                }
              ],
              "internalType": "struct LibOrder.Order",
              "name": "order",
              "type": "tuple"
            },
            {
              "internalType": "uint256",
              "name": "nonce",
              "type": "uint256"
            }
          ],
          "internalType": "struct LibRequest.CancelRequest[]",
          "name": "requests",
          "type": "tuple[]"
        },
        {
          "internalType": "bytes[]",
          "name": "signatures",
          "type": "bytes[]"
        }
      ],
      "name": "cancelOrders",
      "outputs": [],
      "payable": false,
      "stateMutability": "nonpayable",
      "type": "function"
    },
    {
      "constant": false,
      "inputs": [
        {
          "components": [
            {
              "components": [
                {
                  "internalType": "address",
                  "name": "userAddress",
                  "type": "address"
                },
                {
                  "internalType": "uint256",
                  "name": "amount",
                  "type": "uint256"
                },
                {
                  "internalType": "uint256",
                  "name": "price",
                  "type": "uint256"
                },
                {
                  "internalType": "uint256",
                  "name": "orderType",
                  "type": "uint256"
                },
                {
                  "internalType": "bool",
                  "name": "side",
                  "type": "bool"
                },
                {
                  "internalType": "uint256",
                  "name": "salt",
                  "type": "uint256"
                },
                {
                  "internalType": "address",
                  "name": "baseAssetAddress",
                  "type": "address"
                },
                {
                  "internalType": "address",
                  "name": "quoteAssetAddress",
                  "type": "address"
                },
                {
                  "internalType": "address",
                  "name": "feeAddress",
                  "type": "address"
                },
                {
                  "internalType": "uint256",
                  "name": "makerFeePercentage",
                  "type": "uint256"
                },
                {
                  "internalType": "uint256",
                  "name": "takerFeePercentage",
                  "type": "uint256"
                }
              ],
              "internalType": "struct LibOrder.Order",
              "name": "order",
              "type": "tuple"
            },
            {
              "internalType": "uint256",
              "name": "nonce",
              "type": "uint256"
            }
          ],
          "internalType": "struct LibRequest.CancelRequest",
          "name": "request",
          "type": "tuple"
        },
        {
          "internalType": "bytes",
          "name": "signature",
          "type": "bytes"
        }
      ],
      "name": "cancelOrder",
      "outputs": [],
      "payable": false,
      "stateMutability": "nonpayable",
      "type": "function"
    },
    {
      "constant": false,
      "inputs": [
        {
          "components": [
            {
              "internalType": "address",
              "name": "userAddress",
              "type": "address"
            },
            {
              "internalType": "uint256",
              "name": "amount",
              "type": "uint256"
            },
            {
              "internalType": "uint256",
              "name": "price",
              "type": "uint256"
            },
            {
              "internalType": "uint256",
              "name": "orderType",
              "type": "uint256"
            },
            {
              "internalType": "bool",
              "name": "side",
              "type": "bool"
            },
            {
              "internalType": "uint256",
              "name": "salt",
              "type": "uint256"
            },
            {
              "internalType": "address",
              "name": "baseAssetAddress",
              "type": "address"
            },
            {
              "internalType": "address",
              "name": "quoteAssetAddress",
              "type": "address"
            },
            {
              "internalType": "address",
              "name": "feeAddress",
              "type": "address"
            },
            {
              "internalType": "uint256",
              "name": "makerFeePercentage",
              "type": "uint256"
            },
            {
              "internalType": "uint256",
              "name": "takerFeePercentage",
              "type": "uint256"
            }
          ],
          "internalType": "struct LibOrder.Order",
          "name": "order",
          "type": "tuple"
        },
        {
          "internalType": "bytes",
          "name": "signature",
          "type": "bytes"
        }
      ],
      "name": "finalizeOrder",
      "outputs": [],
      "payable": false,
      "stateMutability": "nonpayable",
      "type": "function"
    },
    {
      "constant": false,
      "inputs": [],
      "name": "Pause",
      "outputs": [],
      "payable": false,
      "stateMutability": "nonpayable",
      "type": "function"
    },
    {
      "constant": false,
      "inputs": [],
      "name": "Resume",
      "outputs": [],
      "payable": false,
      "stateMutability": "nonpayable",
      "type": "function"
    },
    {
      "constant": true,
      "inputs": [
        {
          "components": [
            {
              "internalType": "address",
              "name": "userAddress",
              "type": "address"
            },
            {
              "internalType": "uint256",
              "name": "amount",
              "type": "uint256"
            },
            {
              "internalType": "uint256",
              "name": "price",
              "type": "uint256"
            },
            {
              "internalType": "uint256",
              "name": "orderType",
              "type": "uint256"
            },
            {
              "internalType": "bool",
              "name": "side",
              "type": "bool"
            },
            {
              "internalType": "uint256",
              "name": "salt",
              "type": "uint256"
            },
            {
              "internalType": "address",
              "name": "baseAssetAddress",
              "type": "address"
            },
            {
              "internalType": "address",
              "name": "quoteAssetAddress",
              "type": "address"
            },
            {
              "internalType": "address",
              "name": "feeAddress",
              "type": "address"
            },
            {
              "internalType": "uint256",
              "name": "makerFeePercentage",
              "type": "uint256"
            },
            {
              "internalType": "uint256",
              "name": "takerFeePercentage",
              "type": "uint256"
            }
          ],
          "internalType": "struct LibOrder.Order",
          "name": "order",
          "type": "tuple"
        }
      ],
      "name": "getOrderInfo",
      "outputs": [
        {
          "components": [
            {
              "internalType": "uint8",
              "name": "orderStatus",
              "type": "uint8"
            },
            {
              "internalType": "bytes32",
              "name": "orderHash",
              "type": "bytes32"
            },
            {
              "internalType": "uint256",
              "name": "filledAmount",
              "type": "uint256"
            }
          ],
          "internalType": "struct LibOrder.OrderInfo",
          "name": "orderInfo",
          "type": "tuple"
        }
      ],
      "payable": false,
      "stateMutability": "view",
      "type": "function"
    },
    {
      "constant": true,
      "inputs": [
        {
          "components": [
            {
              "internalType": "address",
              "name": "userAddress",
              "type": "address"
            },
            {
              "internalType": "uint256",
              "name": "amount",
              "type": "uint256"
            },
            {
              "internalType": "uint256",
              "name": "price",
              "type": "uint256"
            },
            {
              "internalType": "uint256",
              "name": "orderType",
              "type": "uint256"
            },
            {
              "internalType": "bool",
              "name": "side",
              "type": "bool"
            },
            {
              "internalType": "uint256",
              "name": "salt",
              "type": "uint256"
            },
            {
              "internalType": "address",
              "name": "baseAssetAddress",
              "type": "address"
            },
            {
              "internalType": "address",
              "name": "quoteAssetAddress",
              "type": "address"
            },
            {
              "internalType": "address",
              "name": "feeAddress",
              "type": "address"
            },
            {
              "internalType": "uint256",
              "name": "makerFeePercentage",
              "type": "uint256"
            },
            {
              "internalType": "uint256",
              "name": "takerFeePercentage",
              "type": "uint256"
            }
          ],
          "internalType": "struct LibOrder.Order",
          "name": "order",
          "type": "tuple"
        },
        {
          "components": [
            {
              "internalType": "uint8",
              "name": "orderStatus",
              "type": "uint8"
            },
            {
              "internalType": "bytes32",
              "name": "orderHash",
              "type": "bytes32"
            },
            {
              "internalType": "uint256",
              "name": "filledAmount",
              "type": "uint256"
            }
          ],
          "internalType": "struct LibOrder.OrderInfo",
          "name": "orderInfo",
          "type": "tuple"
        },
        {
          "internalType": "address",
          "name": "",
          "type": "address"
        },
        {
          "internalType": "bytes",
          "name": "signature",
          "type": "bytes"
        }
      ],
      "name": "assertFillableOrder",
      "outputs": [],
      "payable": false,
      "stateMutability": "pure",
      "type": "function"
    }
  ],
  "bytecode": "0x6080604052600280546001600160a01b031916301790556004805460ff191690553480156200002d57600080fd5b5062000054620000456001600160e01b036200019816565b6001600160e01b036200019c16565b604051602001620000659062000636565b60408051601f1981840301815282825280516020918201208383018352600884527f426f6f6d666c6f770000000000000000000000000000000000000000000000009382019390935281518083018352600381527f312e300000000000000000000000000000000000000000000000000000000000908201526002805492516200014294937fa766a8a2c54c152051aa6d32ac0b8d30934cb1f5a7456d8b3ca26980cc1a7223937fe6bbd6277e1bf288eed5e8d1780f9a50b239e86b153736bceebccf4ea79d90b393926001600160a01b03909216910162000684565b60408051601f1981840301815291905280516020909101206003556004805461ff00191661010017905562000192620001836001600160e01b036200019816565b6001600160e01b03620001ee16565b6200073a565b3390565b620001b78160006200026d60201b620032261790919060201c565b6040516001600160a01b038216907f22380c05984257a1cb900161c713dd71d39e74820f1aea43bd3f1bdd2096129990600090a250565b62000214620002056001600160e01b036200019816565b6001600160e01b03620002e116565b62000256576040517f08c379a00000000000000000000000000000000000000000000000000000000081526004016200024d90620006fe565b60405180910390fd5b6200026a816001600160e01b036200030416565b50565b6200028282826001600160e01b036200035616565b15620002bc576040517f08c379a00000000000000000000000000000000000000000000000000000000081526004016200024d90620006da565b6001600160a01b0316600090815260209190915260409020805460ff19166001179055565b6000620002fe8260006200035660201b620027f41790919060201c565b92915050565b6200031f8160016200026d60201b620032261790919060201c565b6040516001600160a01b038216907fee1504a83b6d4a361f4c1dc78ab59bfa30d6a3b6612c403e86bb01ef2984295f90600090a250565b60006001600160a01b0382166200039b576040517f08c379a00000000000000000000000000000000000000000000000000000000081526004016200024d90620006ec565b506001600160a01b03166000908152602091909152604090205460ff1690565b620003c6816200071e565b82525050565b620003c6816200072b565b6000620003e6600c8362000719565b7f737472696e67206e616d652c00000000000000000000000000000000000000008152600c0192915050565b600062000421601f8362000710565b7f526f6c65733a206163636f756e7420616c72656164792068617320726f6c6500815260200192915050565b60006200045c60198362000719565b7f6164647265737320766572696679696e67436f6e747261637400000000000000815260190192915050565b60006200049760108362000719565b7f75696e7432353620636861696e49642c00000000000000000000000000000000815260100192915050565b6000620004d260018362000719565b7f2900000000000000000000000000000000000000000000000000000000000000815260010192915050565b60006200050d600f8362000719565b7f737472696e672076657273696f6e2c00000000000000000000000000000000008152600f0192915050565b60006200054860228362000710565b7f526f6c65733a206163636f756e7420697320746865207a65726f20616464726581527f7373000000000000000000000000000000000000000000000000000000000000602082015260400192915050565b6000620005a960408362000710565b7f57686974656c69737441646d696e526f6c653a2063616c6c657220646f65732081527f6e6f742068617665207468652057686974656c69737441646d696e20726f6c65602082015260400192915050565b60006200060a600d8362000719565b7f454950373132446f6d61696e28000000000000000000000000000000000000008152600d0192915050565b60006200064382620005fb565b91506200065082620003d7565b91506200065d82620004fe565b91506200066a8262000488565b915062000677826200044d565b9150620002fe82620004c3565b60a08101620006948288620003cc565b620006a36020830187620003cc565b620006b26040830186620003cc565b620006c16060830185620003cc565b620006d06080830184620003bb565b9695505050505050565b60208082528101620002fe8162000412565b60208082528101620002fe8162000539565b60208082528101620002fe816200059a565b90815260200190565b919050565b6000620002fe826200072e565b90565b6001600160a01b031690565b6153ba806200074a6000396000f3fe608060405234801561001057600080fd5b50600436106101f05760003560e01c80636de9932a1161010f578063bf2ee5f0116100a2578063f2a1ec1e11610071578063f2a1ec1e146103fb578063f9f652ee1461041b578063faab64441461043b578063fb4d31441461044e576101f0565b8063bf2ee5f0146103c5578063d2adbc21146103d8578063d6cd9473146103eb578063e306f779146103f3576101f0565b806393634702116100de5780639363470214610379578063a1627fa91461038c578063aa4936d21461039f578063bb5f747b146103b2576101f0565b80636de9932a146103385780637362d9c81461034b5780637d6ef8a71461035e5780638abe559314610371576101f0565b80633af32abf1161018757806353db95a01161015657806353db95a01461030257806359a9a4a6146103155780635c975abb146103285780636985a02214610330576101f0565b80633af32abf146102cc57806345ad1f06146102df578063490d6d11146102f25780634c5a628c146102fa576101f0565b8063288cdc91116101c3578063288cdc9114610259578063291d9549146102795780632ac126221461028c5780632c8d41fd146102ac576101f0565b806303a3324b146101f557806310154bad1461021e578063147d7423146102335780632699918c14610246575b600080fd5b610208610203366004613c0b565b61046e565b6040516102159190614baa565b60405180910390f35b61023161022c366004613b03565b610561565b005b610208610241366004613c0b565b61059d565b610231610254366004613e2f565b61067b565b61026c610267366004613c0b565b61071f565b6040516102159190614bc9565b610231610287366004613b03565b610731565b61029f61029a366004613c0b565b610761565b6040516102159190614bbb565b6102bf6102ba366004613c0b565b610776565b6040516102159190614b9c565b61029f6102da366004613b03565b6107ff565b6102316102ed366004613d85565b61081a565b61023161102d565b61023161105e565b610231610310366004613b90565b61106e565b610231610323366004613e6c565b611127565b61029f611995565b6102316119a4565b61029f610346366004613c0b565b6119d3565b610231610359366004613b03565b6119e8565b61023161036c366004613c8d565b611a18565b61026c611c56565b61029f610387366004613c29565b611c5c565b61026c61039a366004613c0b565b611d79565b6102316103ad366004613ec9565b611d8b565b61029f6103c0366004613b03565b611f3e565b6102316103d3366004613d1d565b611f50565b61026c6103e6366004613cfe565b612006565b610231612019565b61026c612029565b61040e610409366004613f39565b61202f565b6040516102159190614f5b565b61042e610429366004613d66565b612377565b6040516102159190614f77565b610231610449366004613b29565b6124bc565b61046161045c366004613c0b565b61268c565b6040516102159190614f69565b606060086000838152602001908152602001600020805480602002602001604051908101604052809291908181526020016000905b828210156105565760008481526020908190206040805161016081018252600b860290920180546001600160a01b0390811684526001808301548587015260028301549385019390935260038201546060850152600482015460ff1615156080850152600582015460a08501526006820154811660c08501526007820154811660e08501526008820154166101008401526009810154610120840152600a015461014083015290835290920191016104a3565b505050509050919050565b61056c6103c061270c565b6105915760405162461bcd60e51b815260040161058890614e5b565b60405180910390fd5b61059a81612710565b50565b60008181526009602090815260408083208054825181850281018501909352808352606094929391929091840182156105565760008481526020908190206040805161016081018252600b860290920180546001600160a01b0390811684526001808301548587015260028301549385019390935260038201546060850152600482015460ff1615156080850152600582015460a08501526006820154811660c08501526007820154811660e08501526008820154166101008401526009810154610120840152600a015461014083015290835290920191016104a3565b6106866102da61270c565b6106a25760405162461bcd60e51b815260040161058890614e9b565b600454610100900460ff16156106ca5760405162461bcd60e51b815260040161058890614dbb565b60006106d583612758565b90506106e681846000015184611c5c565b6107025760405162461bcd60e51b815260040161058890614d9b565b6000908152600760205260409020805460ff191660011790555050565b60056020526000908152604090205481565b61073c6103c061270c565b6107585760405162461bcd60e51b815260040161058890614e5b565b61059a81612766565b60076020526000908152604090205460ff1681565b61077e61343a565b600b54821061079f5760405162461bcd60e51b815260040161058890614d1b565b600b546000906107b9906107b48560046127ae565b6127dc565b9050825b818110156107f857600b81815481106107d257fe5b906000526020600020015483858303600481106107eb57fe5b60200201526001016107bd565b5050919050565b600061081260018363ffffffff6127f416565b90505b919050565b6108256102da61270c565b6108415760405162461bcd60e51b815260040161058890614e9b565b600454610100900460ff16156108695760405162461bcd60e51b815260040161058890614dbb565b60045460ff161561088c5760405162461bcd60e51b815260040161058890614e8b565b6004805460ff19166001908117909155846060015160018111156108ac57fe5b60018111156108b757fe5b146108d45760405162461bcd60e51b815260040161058890614ebb565b826000815181106108e157fe5b602002602001015160e001516001600160a01b03168460e001516001600160a01b03161415158360008151811061091457fe5b602002602001015160c001516001600160a01b03168560c001516001600160a01b031614151514156109585760405162461bcd60e51b815260040161058890614deb565b80518351146109795760405162461bcd60e51b815260040161058890614dab565b610981613458565b61098a85612377565b90508060400151600014156109b45760208086015182820151600090815260069092526040909120555b6020808201516000908152600a909152604090205460ff16610a1357602080820180516000908152600a90925260408220805460ff191660019081179091559051600b8054928301815590925260008051602061525483398151915201555b610a208582600086611d8b565b60005b845181101561101b57848181518110610a3857fe5b6020026020010151608001511515866080015115151415610a6b5760405162461bcd60e51b815260040161058890614f4b565b6000858281518110610a7957fe5b6020026020010151606001516001811115610a9057fe5b6001811115610a9b57fe5b14610ab85760405162461bcd60e51b815260040161058890614e2b565b610ac0613458565b610adc868381518110610acf57fe5b6020026020010151612377565b9050806040015160001415610b1f57858281518110610af757fe5b6020026020010151602001516006600083602001518152602001908152602001600020819055505b6020808201516000908152600a909152604090205460ff16610b7e57602080820180516000908152600a90925260408220805460ff191660019081179091559051600b8054928301815590925260008051602061525483398151915201555b610bb1868381518110610b8d57fe5b6020026020010151826000878681518110610ba457fe5b6020026020010151611d8b565b858281518110610bbd57fe5b602002602001015160c001516001600160a01b03168760c001516001600160a01b03161415610dfe5760208084015160009081526008909152604090205415610cfc57858281518110610c0c57fe5b602002602001015160c001516001600160a01b03166008600085602001518152602001908152602001600020600081548110610c4457fe5b600091825260209091206006600b9092020101546001600160a01b031614610c7e5760405162461bcd60e51b815260040161058890614d5b565b858281518110610c8a57fe5b602002602001015160e001516001600160a01b03166008600085602001518152602001908152602001600020600081548110610cc257fe5b600091825260209091206007600b9092020101546001600160a01b031614610cfc5760405162461bcd60e51b815260040161058890614f1b565b6008600084602001518152602001908152602001600020868381518110610d1f57fe5b6020908102919091018101518254600180820185556000948552938390208251600b9092020180546001600160a01b03199081166001600160a01b0393841617825593830151948101949094556040820151600285015560608201516003850155608082015160048501805460ff191691151591909117905560a0820151600585015560c0820151600685018054851691831691909117905560e0820151600785018054851691831691909117905561010082015160088501805490941691161790915561012081015160098301556101400151600a90910155611012565b60208084015160009081526009909152604090205415610f1457858281518110610e2457fe5b602002602001015160c001516001600160a01b03166009600085602001518152602001908152602001600020600081548110610e5c57fe5b600091825260209091206006600b9092020101546001600160a01b031614610e965760405162461bcd60e51b815260040161058890614efb565b858281518110610ea257fe5b602002602001015160e001516001600160a01b03166009600085602001518152602001908152602001600020600081548110610eda57fe5b600091825260209091206007600b9092020101546001600160a01b031614610f145760405162461bcd60e51b815260040161058890614d0b565b6009600084602001518152602001908152602001600020868381518110610f3757fe5b6020908102919091018101518254600180820185556000948552938390208251600b9092020180546001600160a01b03199081166001600160a01b0393841617825593830151948101949094556040820151600285015560608201516003850155608082015160048501805460ff191691151591909117905560a0820151600585015560c0820151600685018054851691831691909117905560e0820151600785018054851691831691909117905561010082015160088501805490941691161790915561012081015160098301556101400151600a909101555b50600101610a23565b50506004805460ff1916905550505050565b6110386103c061270c565b6110545760405162461bcd60e51b815260040161058890614e5b565b61105c61283c565b565b61105c61106961270c565b6128ae565b6110796102da61270c565b6110955760405162461bcd60e51b815260040161058890614e9b565b600454610100900460ff16156110bd5760405162461bcd60e51b815260040161058890614dbb565b80518251146110de5760405162461bcd60e51b815260040161058890614e6b565b60005b82518110156111225761111a8382815181106110f957fe5b602002602001015183838151811061110d57fe5b6020026020010151611f50565b6001016110e1565b505050565b6111326102da61270c565b61114e5760405162461bcd60e51b815260040161058890614e9b565b600454610100900460ff16156111765760405162461bcd60e51b815260040161058890614dbb565b60045460ff16156111995760405162461bcd60e51b815260040161058890614e8b565b6004805460ff191660011790556111ae613458565b6111b784612377565b905060608085608001516113975760208084015160009081526008825260408082208054825181860281018601909352808352919390929084015b828210156112a55760008481526020908190206040805161016081018252600b860290920180546001600160a01b0390811684526001808301548587015260028301549385019390935260038201546060850152600482015460ff1615156080850152600582015460a08501526006820154811660c08501526007820154811660e08501526008820154166101008401526009810154610120840152600a015461014083015290835290920191016111f2565b5050506020808601516000908152600982526040808220805482518186028101860190935280835295975090949093509184015b8282101561138c5760008481526020908190206040805161016081018252600b860290920180546001600160a01b0390811684526001808301548587015260028301549385019390935260038201546060850152600482015460ff1615156080850152600582015460a08501526006820154811660c08501526007820154811660e08501526008820154166101008401526009810154610120840152600a015461014083015290835290920191016112d9565b505050509050611565565b60208084015160009081526009825260408082208054825181860281018601909352808352919390929084015b828210156114775760008481526020908190206040805161016081018252600b860290920180546001600160a01b0390811684526001808301548587015260028301549385019390935260038201546060850152600482015460ff1615156080850152600582015460a08501526006820154811660c08501526007820154811660e08501526008820154166101008401526009810154610120840152600a015461014083015290835290920191016113c4565b5050506020808601516000908152600882526040808220805482518186028101860190935280835295975090949093509184015b8282101561155e5760008481526020908190206040805161016081018252600b860290920180546001600160a01b0390811684526001808301548587015260028301549385019390935260038201546060850152600482015460ff1615156080850152600582015460a08501526006820154811660c08501526007820154811660e08501526008820154166101008401526009810154610120840152600a015461014083015290835290920191016114ab565b5050505090505b8051825115159015151461158b5760405162461bcd60e51b815260040161058890614ecb565b8151156119515761159a613478565b60405180610160016040528088600001516001600160a01b031681526020018860200151815260200188604001518152602001886060015181526020018860800151151581526020018860a001518152602001846000815181106115fa57fe5b602002602001015160c001516001600160a01b031681526020018460008151811061162157fe5b602002602001015160e001516001600160a01b0316815260200160006001600160a01b0316815260200160008152602001600081525090506116616134f8565b611673828587856020015160006128f6565b905061167d613478565b6040518061016001604052808a600001516001600160a01b03168152602001836040015181526020018a6040015181526020018a6060015181526020018a60800151151581526020018a60a001518152602001856000815181106116dd57fe5b602002602001015160c001516001600160a01b031681526020018560008151811061170457fe5b602002602001015160e001516001600160a01b031681526020018a61010001516001600160a01b03168152602001600081526020018a6101400151815250905061174c6134f8565b61175e828689856020015160006128f6565b90508761177384604001518360600151612ad6565b1161194c576117af8a8b610100015189602001518a604001518560a001518f608001516117a45788606001516117aa565b88608001515b612b18565b60005b865181101561188b576117c3613458565b6117d2888381518110610acf57fe5b905061184b8883815181106117e357fe5b60200260200101518984815181106117f757fe5b60200260200101516101000151836020015184604001518960000151878151811061181e57fe5b6020026020010151608001518a60000151888151811061183a57fe5b602002602001015160000151612b18565b61188288838151811061185a57fe5b60200260200101518d60008860000151868151811061187557fe5b6020026020010151612bbd565b506001016117b2565b5060005b855181101561194a576118a0613458565b6118af878381518110610acf57fe5b90506119178783815181106118c057fe5b60200260200101518884815181106118d457fe5b6020026020010151610100015183602001518460400151896000015187815181106118fb57fe5b6020026020010151608001518860000151888151811061183a57fe5b61194187838151811061192657fe5b60200260200101518d60008660000151868151811061187557fe5b5060010161188f565b505b505050505b602080840151600090815260089091526040812061196e9161352e565b602080840151600090815260099091526040812061198b9161352e565b61101b868661067b565b600454610100900460ff165b90565b6119af6103c061270c565b6119cb5760405162461bcd60e51b815260040161058890614e5b565b61105c612e33565b600a6020526000908152604090205460ff1681565b6119f36103c061270c565b611a0f5760405162461bcd60e51b815260040161058890614e5b565b61059a81612e93565b611a236103c061270c565b611a3f5760405162461bcd60e51b815260040161058890614e5b565b60005b8251811015611b475760008481526008602052604090208351849083908110611a6757fe5b6020908102919091018101518254600180820185556000948552938390208251600b9092020180546001600160a01b03199081166001600160a01b0393841617825593830151818601556040830151600282015560608301516003820155608083015160048201805460ff191691151591909117905560a0830151600582015560c0830151600682018054861691841691909117905560e0830151600782018054861691841691909117905561010083015160088201805490951692169190911790925561012081015160098301556101400151600a9091015501611a42565b5060005b8151811015611c505760008481526009602052604090208251839083908110611b7057fe5b6020908102919091018101518254600180820185556000948552938390208251600b9092020180546001600160a01b03199081166001600160a01b0393841617825593830151818601556040830151600282015560608301516003820155608083015160048201805460ff191691151591909117905560a0830151600582015560c0830151600682018054861691841691909117905560e0830151600782018054861691841691909117905561010083015160088201805490951692169190911790925561012081015160098301556101400151600a9091015501611b4b565b50505050565b600b5490565b60006001600160a01b038316611c845760405162461bcd60e51b815260040161058890614dcb565b8151604114611ca55760405162461bcd60e51b815260040161058890614ceb565b600082604081518110611cb457fe5b016020015160f81c9050601b811480611cd057508060ff16601c145b611cec5760405162461bcd60e51b815260040161058890614e7b565b6000611cf9846000612edb565b90506000611d08856020612edb565b905060018784848460405160008152602001604052604051611d2d9493929190614ca5565b6020604051602081039080840390855afa158015611d4f573d6000803e3d6000fd5b505050602060405103516001600160a01b0316866001600160a01b03161493505050509392505050565b60066020526000908152604090205481565b825160ff1660011415611db05760405162461bcd60e51b815260040161058890614f3b565b825160ff1660021415611dd55760405162461bcd60e51b815260040161058890614d8b565b825160ff1660071415611dfa5760405162461bcd60e51b815260040161058890614d4b565b825160ff16611e1b5760405162461bcd60e51b815260040161058890614cfb565b825160ff1660051415611e405760405162461bcd60e51b815260040161058890614e0b565b825160ff1660041415611e655760405162461bcd60e51b815260040161058890614eab565b825160ff1660061415611e8a5760405162461bcd60e51b815260040161058890614d7b565b825160ff16600314611eae5760405162461bcd60e51b815260040161058890614edb565b836101200151670de0b6b3a764000011611eda5760405162461bcd60e51b815260040161058890614e4b565b836101400151670de0b6b3a764000011611f065760405162461bcd60e51b815260040161058890614e4b565b6040830151611c5057611f228360200151856000015183611c5c565b611c505760405162461bcd60e51b815260040161058890614d9b565b6000610812818363ffffffff6127f416565b611f5b6102da61270c565b611f775760405162461bcd60e51b815260040161058890614e9b565b600454610100900460ff1615611f9f5760405162461bcd60e51b815260040161058890614dbb565b6000611faa83612006565b835151909150611fbc90829084611c5c565b611fd85760405162461bcd60e51b815260040161058890614f2b565b6000611fe78460000151612758565b6000908152600760205260409020805460ff1916600117905550505050565b600061081261201483612f0a565b612f8d565b61105c61202461270c565b612766565b60035481565b61203761354f565b6120426102da61270c565b61205e5760405162461bcd60e51b815260040161058890614e9b565b600454610100900460ff16156120865760405162461bcd60e51b815260040161058890614dbb565b60045460ff16156120a95760405162461bcd60e51b815260040161058890614e8b565b6004805460ff1916600117905560808086015190870151151590151514156120e35760405162461bcd60e51b815260040161058890614f4b565b6000866060015160018111156120f557fe5b600181111561210057fe5b1461211d5760405162461bcd60e51b815260040161058890614e2b565b60c0808701516001600160a01b039081169187019190915260e0808801519091169086015261214a613458565b61215387612377565b905061215d613458565b61216687612377565b90508160400151600014156121905760208089015183820151600090815260069092526040909120555b60408101516121b45760208088015182820151600090815260069092526040909120555b6020808301516000908152600a909152604090205460ff1661221357602080830180516000908152600a90925260408220805460ff191660019081179091559051600b8054928301815590925260008051602061525483398151915201555b6020808201516000908152600a909152604090205460ff1661227257602080820180516000908152600a90925260408220805460ff191660019081179091559051600b8054928301815590925260008051602061525483398151915201555b61227e88838689611d8b565b61228a87828688611d8b565b6122948888612fb2565b6122d8888884604001518460400151600660008860200151815260200190815260200160002054600660008860200151815260200190815260200160002054613038565b92506122fd888961010001518460200151856040015187608001518860000151612b18565b61235687886101000151836020015184604001518760a001518c608001518015612341575060018d60600151600181111561233457fe5b600181111561233f57fe5b145b61234c5788516117aa565b8860200151612b18565b61236288888686612bbd565b50506004805460ff1916905595945050505050565b61237f613458565b61238882612758565b602080830182905260009182526005815260409182902054918301919091528201516123bb5760015b60ff168152610815565b6000826060015160018111156123cd57fe5b60018111156123d857fe5b1415801561240157506001826060015160018111156123f357fe5b60018111156123fe57fe5b14155b1561240d5760076123b1565b60008260600151600181111561241f57fe5b600181111561242a57fe5b14801561243957506040820151155b156124455760026123b1565b602080820151600090815260069091526040902054158015906124835750600660008260200151815260200190815260200160002054816040015110155b1561248f5760056123b1565b60208082015160009081526007909152604090205460ff16156124b35760066123b1565b60038152919050565b6124c76103c061270c565b6124e35760405162461bcd60e51b815260040161058890614e5b565b80518251146125045760405162461bcd60e51b815260040161058890614eeb565b60005b815181101561112257600a600084838151811061252057fe5b60209081029190910181015182528101919091526040016000205460ff166125af576001600a600085848151811061255457fe5b6020026020010151815260200190815260200160002060006101000a81548160ff021916908315150217905550600b83828151811061258f57fe5b602090810291909101810151825460018101845560009384529190922001555b8181815181106125bb57fe5b602002602001015160000151600560008584815181106125d757fe5b60200260200101518152602001908152602001600020819055508181815181106125fd57fe5b6020026020010151602001516006600085848151811061261957fe5b602002602001015181526020019081526020016000208190555081818151811061263f57fe5b6020026020010151604001516007600085848151811061265b57fe5b6020908102919091018101518252810191909152604001600020805460ff1916911515919091179055600101612507565b612694613585565b6000828152600860205260408120541515806126bd575060008381526009602052604090205415155b604080516080810182526000868152600560209081528382205483528782526006815283822054818401529681526007909652948190205460ff16151590850152151560608401525090919050565b3390565b61272160018263ffffffff61322616565b6040516001600160a01b038216907fee1504a83b6d4a361f4c1dc78ab59bfa30d6a3b6612c403e86bb01ef2984295f90600090a250565b600061081261201483613272565b61277760018263ffffffff61330916565b6040516001600160a01b038216907f270d9b30cf5b0793bbfd54c9d5b94aeb49462b8148399000265144a8722da6b690600090a250565b6000828201838110156127d35760405162461bcd60e51b815260040161058890614d6b565b90505b92915050565b6000818311156127ed5750806127d6565b5090919050565b60006001600160a01b03821661281c5760405162461bcd60e51b815260040161058890614e3b565b506001600160a01b03166000908152602091909152604090205460ff1690565b600454610100900460ff166128635760405162461bcd60e51b815260040161058890614d2b565b6004805461ff00191690557f5db9ee0a495bf2e6ff9c91a7834c1ba4fdd244a5e8aa4e537bd38aeae4b073aa61289761270c565b6040516128a49190614b66565b60405180910390a1565b6128bf60008263ffffffff61330916565b6040516001600160a01b038216907f0a8eb35e5ca14b3d6f28e4abf2f128dbab231a58b56e89beb5d636115001e16590600090a250565b6128fe6134f8565b600060208083018290526040808401839052606084018390526080840183905260a084019290925286518251818152818302810190920190925290801561295f57816020015b61294c61354f565b8152602001906001900390816129445790505b50815260005b8551811015612acb57612976613458565b612985878381518110610acf57fe5b905061298f61354f565b6129d988848151811061299e57fe5b60200260200101518a84604001516129be8b6040015189604001516127ae565b6020808801516000908152600690915260409020548b613038565b905080846000015184815181106129ec57fe5b602002602001018190525083600001518381518110612a0757fe5b60200260200101516040015184602001818151019150818152505083600001518381518110612a3257fe5b60209081029190910101516060015160408501805190910190528351805184908110612a5a57fe5b60209081029190910101515160608501805190910190528351805184908110612a7f57fe5b602090810291909101810151015160808501805190910190528351805184908110612aa657fe5b602090810291909101015160a090810151908501805190910190525050600101612965565b505b95945050505050565b60006127d383836040518060400160405280601e81526020017f536166654d6174683a207375627472616374696f6e206f766572666c6f770000815250613351565b612b2283826127ae565b600560008681526020019081526020016000208190555085600001516001600160a01b03167fa9fc90a011c67fab29e9939845fa274039c1d28da7307d8d18c00ca5e1e586998760200151886040015189606001516001811115612b8257fe5b8a608001518b60c001518c60e001518b8a8e338c604051612bad9b9a99989796959493929190614f85565b60405180910390a2505050505050565b60008360800151612bd2578460e00151612bd8565b8460c001515b905060008460800151612bef578560c00151612bf5565b8560e001515b8651865160608601516040516323b872dd60e01b81529394506001600160a01b038616936323b872dd93612c2f9390929091600401614b74565b602060405180830381600087803b158015612c4957600080fd5b505af1158015612c5d573d6000803e3d6000fd5b505050506040513d601f19601f82011682018060405250612c819190810190613bed565b508451865160408086015190516323b872dd60e01b81526001600160a01b038516936323b872dd93612cba939192909190600401614b74565b602060405180830381600087803b158015612cd457600080fd5b505af1158015612ce8573d6000803e3d6000fd5b505050506040513d601f19601f82011682018060405250612d0c9190810190613bed565b50855161010086015160a08501516040516323b872dd60e01b81526001600160a01b038616936323b872dd93612d49939192909190600401614b74565b602060405180830381600087803b158015612d6357600080fd5b505af1158015612d77573d6000803e3d6000fd5b505050506040513d601f19601f82011682018060405250612d9b9190810190613bed565b50845161010087015160808501516040516323b872dd60e01b81526001600160a01b038516936323b872dd93612dd8939192909190600401614b74565b602060405180830381600087803b158015612df257600080fd5b505af1158015612e06573d6000803e3d6000fd5b505050506040513d601f19601f82011682018060405250612e2a9190810190613bed565b50505050505050565b600454610100900460ff1615612e5b5760405162461bcd60e51b815260040161058890614dbb565b6004805461ff0019166101001790557f62e78cea01bee320cd4e420270b5ea74000d11b0c9f74754ebdbfc544b05a25861289761270c565b612ea460008263ffffffff61322616565b6040516001600160a01b038216907f22380c05984257a1cb900161c713dd71d39e74820f1aea43bd3f1bdd2096129990600090a250565b60008160200183511015612f015760405162461bcd60e51b815260040161058890614dfb565b50016020015190565b600060405180610140016040528061010481526020016152746101049139604051602001612f389190614b53565b60405160208183030381529060405280519060200120612f5b8360000151613272565b602080850151604051612f7094939201614c8a565b604051602081830303815290604052805190602001209050919050565b60035460405161190160f01b8152600281019190915260228101919091526042902090565b600081606001516001811115612fc457fe5b6001811115612fcf57fe5b14156130345781608001511561300c578060400151826040015110156130075760405162461bcd60e51b815260040161058890614f0b565b613034565b8060400151826040015111156130345760405162461bcd60e51b815260040161058890614f0b565b5050565b61304061354f565b600061304c8487612ad6565b9050600061305a8487612ad6565b905060008860600151600181111561306e57fe5b600181111561307957fe5b148061308757508760800151155b1561309d57613096828261337d565b83526130ce565b60006130be6130b483670de0b6b3a764000061338c565b8b604001516133c6565b90506130ca838261337d565b8452505b6130f16130e384600001518b6040015161338c565b670de0b6b3a76400006133c6565b6020840152608088015115613193576131276130e38460000151613122670de0b6b3a76400008c6101400151612ad6565b61338c565b8360600181815250506131526130e38460200151613122670de0b6b3a76400008d6101200151612ad6565b6040840152825161014089015161316c916130e39161338c565b60a084015260208301516101208a0151613189916130e39161338c565b608084015261321a565b6131b56130e38460200151613122670de0b6b3a76400008c6101400151612ad6565b606084015282516101208a01516131dd916130e39161312290670de0b6b3a764000090612ad6565b604084015260208301516101408901516131fa916130e39161338c565b60a084015282516101208a0151613214916130e39161338c565b60808401525b50509695505050505050565b61323082826127f4565b1561324d5760405162461bcd60e51b815260040161058890614d3b565b6001600160a01b0316600090815260209190915260409020805460ff19166001179055565b600060405180610100016040528060dc815260200161517860dc913960405160200161329e9190614b53565b60405160208183030381529060405280519060200120826000015183602001518460400151856060015186608001518760a001518860c001518960e001518a61010001518b61012001518c6101400151604051602001612f709c9b9a99989796959493929190614bd7565b61331382826127f4565b61332f5760405162461bcd60e51b815260040161058890614ddb565b6001600160a01b0316600090815260209190915260409020805460ff19169055565b600081848411156133755760405162461bcd60e51b81526004016105889190614cda565b505050900390565b60008183106127ed57816127d3565b60008261339b575060006127d6565b828202828482816133a857fe5b04146127d35760405162461bcd60e51b815260040161058890614e1b565b60006127d383836040518060400160405280601a81526020017f536166654d6174683a206469766973696f6e206279207a65726f000000000000815250600081836134245760405162461bcd60e51b81526004016105889190614cda565b50600083858161343057fe5b0495945050505050565b60405180608001604052806004906020820280388339509192915050565b604080516060810182526000808252602082018190529181019190915290565b60405180610160016040528060006001600160a01b031681526020016000815260200160008152602001600081526020016000151581526020016000815260200160006001600160a01b0316815260200160006001600160a01b0316815260200160006001600160a01b0316815260200160008152602001600081525090565b6040518060c001604052806060815260200160008152602001600081526020016000815260200160008152602001600081525090565b50805460008255600b029060005260206000209081019061059a91906135b1565b6040518060c001604052806000815260200160008152602001600081526020016000815260200160008152602001600081525090565b604051806080016040528060008152602001600081526020016000151581526020016000151581525090565b6119a191905b8082111561362d5780546001600160a01b03199081168255600060018301819055600283018190556003830181905560048301805460ff1916905560058301819055600683018054831690556007830180548316905560088301805490921690915560098201819055600a820155600b016135b7565b5090565b80356127d681615148565b600082601f83011261364d57600080fd5b813561366061365b8261504f565b615029565b9150818183526020840193506020810190508385602084028201111561368557600080fd5b60005b838110156136b1578161369b8882613888565b8452506020928301929190910190600101613688565b5050505092915050565b600082601f8301126136cc57600080fd5b81356136da61365b8261504f565b81815260209384019390925082018360005b838110156136b157813586016137028882613893565b84525060209283019291909101906001016136ec565b600082601f83011261372957600080fd5b813561373761365b8261504f565b915081818352602084019350602081019050838561018084028201111561375d57600080fd5b60005b838110156136b1578161377388826138e2565b8452506020909201916101809190910190600101613760565b600082601f83011261379d57600080fd5b81356137ab61365b8261504f565b915081818352602084019350602081019050838560808402820111156137d057600080fd5b60005b838110156136b157816137e6888261392b565b845250602090920191608091909101906001016137d3565b600082601f83011261380f57600080fd5b813561381d61365b8261504f565b915081818352602084019350602081019050838561016084028201111561384357600080fd5b60005b838110156136b1578161385988826139f5565b8452506020909201916101609190910190600101613846565b80356127d68161515c565b80516127d68161515c565b80356127d681615165565b600082601f8301126138a457600080fd5b81356138b261365b8261506f565b915080825260208301602083018583830111156138ce57600080fd5b6138d98382846150fc565b50505092915050565b600061018082840312156138f557600080fd5b6138ff6040615029565b9050600061390d84846139f5565b82525061016061391f84848301613888565b60208301525092915050565b60006080828403121561393d57600080fd5b6139476080615029565b905060006139558484613888565b825250602061396684848301613888565b602083015250604061397a84828501613872565b604083015250606061398e84828501613872565b60608301525092915050565b6000606082840312156139ac57600080fd5b6139b66060615029565b905060006139c48484613af8565b82525060206139d584848301613888565b60208301525060406139e984828501613888565b60408301525092915050565b60006101608284031215613a0857600080fd5b613a13610160615029565b90506000613a218484613631565b8252506020613a3284848301613888565b6020830152506040613a4684828501613888565b6040830152506060613a5a84828501613888565b6060830152506080613a6e84828501613872565b60808301525060a0613a8284828501613888565b60a08301525060c0613a9684828501613631565b60c08301525060e0613aaa84828501613631565b60e083015250610100613abf84828501613631565b61010083015250610120613ad584828501613888565b61012083015250610140613aeb84828501613888565b6101408301525092915050565b80356127d68161516e565b600060208284031215613b1557600080fd5b6000613b218484613631565b949350505050565b60008060408385031215613b3c57600080fd5b82356001600160401b03811115613b5257600080fd5b613b5e8582860161363c565b92505060208301356001600160401b03811115613b7a57600080fd5b613b868582860161378c565b9150509250929050565b60008060408385031215613ba357600080fd5b82356001600160401b03811115613bb957600080fd5b613bc585828601613718565b92505060208301356001600160401b03811115613be157600080fd5b613b86858286016136bb565b600060208284031215613bff57600080fd5b6000613b21848461387d565b600060208284031215613c1d57600080fd5b6000613b218484613888565b600080600060608486031215613c3e57600080fd5b6000613c4a8686613888565b9350506020613c5b86828701613631565b92505060408401356001600160401b03811115613c7757600080fd5b613c8386828701613893565b9150509250925092565b600080600060608486031215613ca257600080fd5b6000613cae8686613888565b93505060208401356001600160401b03811115613cca57600080fd5b613cd6868287016137fe565b92505060408401356001600160401b03811115613cf257600080fd5b613c83868287016137fe565b60006101808284031215613d1157600080fd5b6000613b2184846138e2565b6000806101a08385031215613d3157600080fd5b6000613d3d85856138e2565b9250506101808301356001600160401b03811115613d5a57600080fd5b613b8685828601613893565b60006101608284031215613d7957600080fd5b6000613b2184846139f5565b6000806000806101c08587031215613d9c57600080fd5b6000613da887876139f5565b9450506101608501356001600160401b03811115613dc557600080fd5b613dd1878288016137fe565b9350506101808501356001600160401b03811115613dee57600080fd5b613dfa87828801613893565b9250506101a08501356001600160401b03811115613e1757600080fd5b613e23878288016136bb565b91505092959194509250565b6000806101808385031215613e4357600080fd5b6000613e4f85856139f5565b9250506101608301356001600160401b03811115613d5a57600080fd5b60008060006101a08486031215613e8257600080fd5b6000613e8e86866139f5565b9350506101608401356001600160401b03811115613eab57600080fd5b613eb786828701613893565b925050610180613c8386828701613888565b6000806000806102008587031215613ee057600080fd5b6000613eec87876139f5565b945050610160613efe8782880161399a565b9350506101c0613f1087828801613631565b9250506101e08501356001600160401b03811115613f2d57600080fd5b613e2387828801613893565b60008060008060006103208688031215613f5257600080fd5b6000613f5e88886139f5565b955050610160613f70888289016139f5565b9450506102c08601356001600160401b03811115613f8d57600080fd5b613f9988828901613893565b9350506102e08601356001600160401b03811115613fb657600080fd5b613fc288828901613893565b925050610300613fd488828901613631565b9150509295509295909350565b6000613fed83836140d8565b505060200190565b60006140018383614a74565b50506101600190565b614013816150db565b82525050565b614013816150af565b61402b8161509c565b6140358184610815565b9250614040826119a1565b8060005b8381101561406e5781516140588782613fe1565b965061406383615096565b925050600101614044565b505050505050565b6000614081826150a2565b61408b81856150a6565b935061409683615096565b8060005b838110156140c45781516140ae8882613ff5565b97506140b983615096565b92505060010161409a565b509495945050505050565b614013816150ba565b614013816119a1565b614013816150e6565b60006140f5826150a2565b6140ff81856150a6565b935061410f818560208601615108565b61411881615134565b9093019392505050565b600061412d826150a2565b6141378185610815565b9350614147818560208601615108565b9290920192915050565b600061415e6019836150a6565b7f57726f6e67206c656e677468206f66207369676e617475726500000000000000815260200192915050565b60006141976007836150a6565b661253959053125160ca1b815260200192915050565b60006141ba6029836150a6565b7f71756f74654d616b65724f72646572733a2077726f6e672071756f746541737381526865744164647265737360b81b602082015260400192915050565b6000614205601e836150a6565b7f4352434c3a206163636f756e744c697374206f7574206f662072616e67650000815260200192915050565b600061423e6014836150a6565b7314185d5cd8589b194e881b9bdd081c185d5cd95960621b815260200192915050565b600061426e601f836150a6565b7f526f6c65733a206163636f756e7420616c72656164792068617320726f6c6500815260200192915050565b60006142a7600c836150a6565b6b494e56414c49445f5459504560a01b815260200192915050565b60006142cf6027836150a6565b7f626173654d616b65724f72646572733a2077726f6e67206261736541737365748152664164647265737360c81b602082015260400192915050565b6000614318601b836150a6565b7f536166654d6174683a206164646974696f6e206f766572666c6f770000000000815260200192915050565b60006143516009836150a6565b6810d05390d15313115160ba1b815260200192915050565b6000614376600d836150a6565b6c494e56414c49445f505249434560981b815260200192915050565b600061439f6017836150a6565b7f494e56414c49445f4f524445525f5349474e4154555245000000000000000000815260200192915050565b60006143d86019836150a6565b7f5349474e41545552455f4c454e4754485f4d49534d4154434800000000000000815260200192915050565b60006144116010836150a6565b6f14185d5cd8589b194e881c185d5cd95960821b815260200192915050565b600061443d6014836150a6565b7357726f6e67207369676e6572206164647265737360601b815260200192915050565b600061446d6021836150a6565b7f526f6c65733a206163636f756e7420646f6573206e6f74206861766520726f6c8152606560f81b602082015260400192915050565b60006144b0600d836150a6565b6c1253959053125117d054d4d155609a1b815260200192915050565b60006144d9600c836150a6565b6b0aee4dedcce40d8cadccee8d60a31b815260200192915050565b6000614501600c836150a6565b6b119553131657d1925313115160a21b815260200192915050565b60006145296021836150a6565b7f536166654d6174683a206d756c7469706c69636174696f6e206f766572666c6f8152607760f81b602082015260400192915050565b600061456c6012836150a6565b71494e56414c49445f4d414b45525f5459504560701b815260200192915050565b600061459a6022836150a6565b7f526f6c65733a206163636f756e7420697320746865207a65726f206164647265815261737360f01b602082015260400192915050565b60006145de6016836150a6565b75494e56414c49445f4645455f50455243454e5441474560501b815260200192915050565b60006146106040836150a6565b7f57686974656c69737441646d696e526f6c653a2063616c6c657220646f65732081527f6e6f742068617665207468652057686974656c69737441646d696e20726f6c65602082015260400192915050565b600061466f6018836150a6565b7f494e56414c49445f5349474e41545552455f4c454e4754480000000000000000815260200192915050565b60006146a86007836150a6565b662bb937b733902b60c91b815260200192915050565b60006146cb6012836150a6565b71149151539514905390d657d253131151d05360721b815260200192915050565b60006146f9603a836150a6565b7f57686974656c6973746564526f6c653a2063616c6c657220646f6573206e6f7481527f2068617665207468652057686974656c697374656420726f6c65000000000000602082015260400192915050565b60006147586007836150a6565b661156141254915160ca1b815260200192915050565b600061477b6012836150a6565b71494e56414c49445f54414b45525f5459504560701b815260200192915050565b60006147a9600e836150a6565b6d0929cac82989288be988a9c8ea8960931b815260200192915050565b60006147d36010836150a6565b6f4f524445525f554e46494c4c41424c4560801b815260200192915050565b60006147ff601c836150a6565b7f4352434c3a2077726f6e67206f7264657244617461206c656e67746800000000815260200192915050565b60006148386028836150a6565b7f71756f74654d616b65724f72646572733a2077726f6e67206261736541737365815267744164647265737360c01b602082015260400192915050565b60006148826018836150a6565b7f4e454741544956455f5350524541445f52455155495245440000000000000000815260200192915050565b60006148bb6028836150a6565b7f626173654d616b65724f72646572733a2077726f6e672071756f746541737365815267744164647265737360c01b602082015260400192915050565b60006149056018836150a6565b7f494e56414c49445f43414e43454c5f5349474e41545552450000000000000000815260200192915050565b600061493e600e836150a6565b6d1253959053125117d05353d5539560921b815260200192915050565b6000614968600c836150a6565b6b494e56414c49445f5349444560a01b815260200192915050565b805160c083019061499484826140d8565b5060208201516149a760208501826140d8565b5060408201516149ba60408501826140d8565b5060608201516149cd60608501826140d8565b5060808201516149e060808501826140d8565b5060a0820151611c5060a08501826140d8565b80516080830190614a0484826140d8565b506020820151614a1760208501826140d8565b506040820151614a2a60408501826140cf565b506060820151611c5060608501826140cf565b80516060830190614a4e8482614b4a565b506020820151614a6160208501826140d8565b506040820151611c5060408501826140d8565b8051610160830190614a868482614019565b506020820151614a9960208501826140d8565b506040820151614aac60408501826140d8565b506060820151614abf60608501826140d8565b506080820151614ad260808501826140cf565b5060a0820151614ae560a08501826140d8565b5060c0820151614af860c0850182614019565b5060e0820151614b0b60e0850182614019565b50610100820151614b20610100850182614019565b50610120820151614b356101208501826140d8565b50610140820151611c506101408501826140d8565b614013816150d5565b6000614b5f8284614122565b9392505050565b602081016127d6828461400a565b60608101614b828286614019565b614b8f6020830185614019565b613b2160408301846140d8565b608081016127d68284614022565b602080825281016127d38184614076565b602081016127d682846140cf565b602081016127d682846140d8565b6101808101614be6828f6140d8565b614bf3602083018e614019565b614c00604083018d6140d8565b614c0d606083018c6140d8565b614c1a608083018b6140d8565b614c2760a083018a6140cf565b614c3460c08301896140d8565b614c4160e0830188614019565b614c4f610100830187614019565b614c5d610120830186614019565b614c6b6101408301856140d8565b614c796101608301846140d8565b9d9c50505050505050505050505050565b60608101614c9882866140d8565b614b8f60208301856140d8565b60808101614cb382876140d8565b614cc06020830186614b4a565b614ccd60408301856140d8565b612acd60608301846140d8565b602080825281016127d381846140ea565b6020808252810161081281614151565b602080825281016108128161418a565b60208082528101610812816141ad565b60208082528101610812816141f8565b6020808252810161081281614231565b6020808252810161081281614261565b602080825281016108128161429a565b60208082528101610812816142c2565b602080825281016108128161430b565b6020808252810161081281614344565b6020808252810161081281614369565b6020808252810161081281614392565b60208082528101610812816143cb565b6020808252810161081281614404565b6020808252810161081281614430565b6020808252810161081281614460565b60208082528101610812816144a3565b60208082528101610812816144cc565b60208082528101610812816144f4565b602080825281016108128161451c565b602080825281016108128161455f565b602080825281016108128161458d565b60208082528101610812816145d1565b6020808252810161081281614603565b6020808252810161081281614662565b602080825281016108128161469b565b60208082528101610812816146be565b60208082528101610812816146ec565b602080825281016108128161474b565b602080825281016108128161476e565b602080825281016108128161479c565b60208082528101610812816147c6565b60208082528101610812816147f2565b602080825281016108128161482b565b6020808252810161081281614875565b60208082528101610812816148ae565b60208082528101610812816148f8565b6020808252810161081281614931565b602080825281016108128161495b565b60c081016127d68284614983565b608081016127d682846149f3565b606081016127d68284614a3d565b6101608101614f94828e6140d8565b614fa1602083018d6140d8565b614fae604083018c6140e1565b614fbb606083018b6140cf565b614fc8608083018a614019565b614fd560a0830189614019565b614fe260c08301886140d8565b614fef60e08301876140d8565b614ffd610100830186614019565b61500b61012083018561400a565b6150196101408301846140d8565b9c9b505050505050505050505050565b6040518181016001600160401b038111828210171561504757600080fd5b604052919050565b60006001600160401b0382111561506557600080fd5b5060209081020190565b60006001600160401b0382111561508557600080fd5b506020601f91909101601f19160190565b60200190565b50600490565b5190565b90815260200190565b6000610812826150c9565b151590565b806108158161513e565b6001600160a01b031690565b60ff1690565b6000610812826150f1565b6000610812826150bf565b6000610812826150af565b82818337506000910152565b60005b8381101561512357818101518382015260200161510b565b83811115611c505750506000910152565b601f01601f191690565b6002811061059a57fe5b615151816150af565b811461059a57600080fd5b615151816150ba565b615151816119a1565b615151816150d556fe4f7264657228616464726573732075736572416464726573732c75696e7432353620616d6f756e742c75696e743235362070726963652c75696e74323536206f72646572547970652c626f6f6c20736964652c75696e743235362073616c742c6164647265737320626173654173736574416464726573732c616464726573732071756f74654173736574416464726573732c6164647265737320666565416464726573732c75696e74323536206d616b657246656550657263656e746167652c75696e743235362074616b657246656550657263656e74616765290175b7a638427703f0dbe7bb9bbf987a2551717b34e79f33b5b1008d1fa01db943616e63656c52657175657374284f72646572206f726465722c75696e74323536206e6f6e6365294f7264657228616464726573732075736572416464726573732c75696e7432353620616d6f756e742c75696e743235362070726963652c75696e74323536206f72646572547970652c626f6f6c20736964652c75696e743235362073616c742c6164647265737320626173654173736574416464726573732c616464726573732071756f74654173736574416464726573732c6164647265737320666565416464726573732c75696e74323536206d616b657246656550657263656e746167652c75696e743235362074616b657246656550657263656e7461676529a365627a7a72315820aebacd984ff66902bd2b5defeb95d92ccf6d10b48608f2090d896c0e8b30caad6c6578706572696d656e74616cf564736f6c634300050b0040",
  "source": "pragma solidity ^0.5.5;\r\npragma experimental ABIEncoderV2;\r\n\r\nimport \"./access/roles/WhitelistAdminRole.sol\";\r\nimport \"./access/roles/WhitelistedRole.sol\";\r\n\r\nimport \"../crc-l/ICRCL.sol\";\r\nimport \"../lifetime/Pausable.sol\";\r\n\r\nimport \"./libs/LibOrder.sol\";\r\nimport \"./libs/LibFillResults.sol\";\r\nimport \"./libs/LibSignatureValidator.sol\";\r\nimport \"./libs/LibRequest.sol\";\r\nimport \"./libs/ReentrancyGuard.sol\";\r\n\r\ncontract Boomflow is WhitelistAdminRole, WhitelistedRole, LibOrder, ReentrancyGuard, LibSignatureValidator, LibRequest, Pausable {\r\n    // Fill event is emitted whenever an order is filled.\r\n    event Fill(\r\n        address indexed userAddress,        // Address that created the order.\r\n        uint256 amount,                     // Amount in base asset\r\n        uint256 price,                      // Price per base asset\r\n        OrderType orderType,                // Type of the order\r\n        bool side,                          // Buy or Sell\r\n        address baseAssetAddress,           // Base asset token address\r\n        address quoteAssetAddress,          // Quote asset token address\r\n        bytes32 orderHash,                  // Order's hash\r\n        uint256 fee,                        // Fee order creator to pay\r\n        address feeAddress,                 // Address to pay fee\r\n        address matcherAddress,             // DEX operator that submitted the order\r\n        uint256 tradeAmount                 // Total amount traded\r\n    );\r\n\r\n    // Mapping of orderHash => amount of baseAsset already sold by user; for Market Buy, it is in amount of quoteAsset\r\n    mapping (bytes32 => uint256) public filled;\r\n\r\n    // Mapping of orderHash => max amount of baseAsset from user; for Market Buy, it is in amount of quoteAsset\r\n    mapping (bytes32 => uint256) public max;\r\n\r\n    // Mapping of orderHash => cancelled\r\n    mapping (bytes32 => bool) public cancelled;\r\n\r\n    // Mapping of orderHash => all instantExchange base orders\r\n    mapping (bytes32 => Order[]) baseMakerOrders;\r\n\r\n    // Mapping of orderHash => all instantExchange quote orders\r\n    mapping (bytes32 => Order[]) quoteMakerOrders;\r\n\r\n    constructor () public {\r\n        addWhitelisted(_msgSender());\r\n    }\r\n\r\n    //----------------- Data Migration -----------------\r\n    struct OrderData {\r\n        uint256 filled;\r\n        uint256 max;\r\n        bool cancelled;\r\n        bool flag;\r\n    }\r\n    mapping (bytes32 => bool) public _hashCheck;\r\n    bytes32[] private _hashList;\r\n\r\n    function hashLength() public view returns (uint256 length) {\r\n        length = _hashList.length;\r\n    }\r\n\r\n    function hashList(uint256 begin) public view returns (bytes32[4] memory res) {\r\n        require(begin >= 0 && begin < _hashList.length, \"CRCL: accountList out of range\");\r\n\r\n        uint256 range = _min(_hashList.length, SafeMath.add(begin,4));\r\n        for (uint256 i = begin; i < range; i++) {\r\n            res[i-begin] = _hashList[i];\r\n        }\r\n    }\r\n\r\n    function getOrderData(bytes32 orderHash)\r\n        public\r\n        view\r\n        returns (OrderData memory orderData)\r\n    {\r\n        bool hasMakerOrdersRecorded = (baseMakerOrders[orderHash].length != 0) || (quoteMakerOrders[orderHash].length != 0);\r\n        orderData = OrderData({\r\n            filled: filled[orderHash],\r\n            max: max[orderHash],\r\n            cancelled: cancelled[orderHash],\r\n            flag: hasMakerOrdersRecorded\r\n        });\r\n    }\r\n\r\n    function getBaseMakerOrders(bytes32 orderHash)\r\n        public\r\n        view\r\n        returns (Order[] memory orders)\r\n    {\r\n        orders = baseMakerOrders[orderHash];\r\n    }\r\n\r\n    function getQuoteMakerOrders(bytes32 orderHash)\r\n        public\r\n        view\r\n        returns (Order[] memory orders)\r\n    {\r\n        orders = quoteMakerOrders[orderHash];\r\n    }\r\n\r\n    function setOrderData(bytes32[] memory orderHash, OrderData[] memory orderData)\r\n        public\r\n        onlyWhitelistAdmin\r\n    {\r\n        require(orderHash.length == orderData.length, \"CRCL: wrong orderData length\");\r\n        for (uint i = 0; i < orderData.length; i++) {\r\n            if (!_hashCheck[orderHash[i]]) {\r\n                _hashCheck[orderHash[i]] = true;\r\n                _hashList.push(orderHash[i]);\r\n            }\r\n\r\n            filled[orderHash[i]] = orderData[i].filled;\r\n            max[orderHash[i]] = orderData[i].max;\r\n            cancelled[orderHash[i]] = orderData[i].cancelled;\r\n        }\r\n    }\r\n\r\n    function setOrderRecordedMakerOrders(bytes32 orderHash, Order[] memory base, Order[] memory quote)\r\n        public\r\n        onlyWhitelistAdmin\r\n    {\r\n        for (uint j = 0; j < base.length; j++) {\r\n            baseMakerOrders[orderHash].push(base[j]);\r\n        }\r\n\r\n        for (uint j = 0; j < quote.length; j++) {\r\n            quoteMakerOrders[orderHash].push(quote[j]);\r\n        }\r\n    }\r\n    //----------------- End Data Migration -----------------\r\n\r\n    // Exchange\r\n    /**\r\n     * Record the matched base maker orders and quote maker orders for a specific taker order.\r\n     * The function should be called prior to `executeInstantExchangeTrade`\r\n     * Only Whitelistlisted (DEX) have the access permission.\r\n     *\r\n     * The function could be run in batches for a single taker order, and `makerOrders` could\r\n     * contains a mixture of base and quote maker orders, as long as DEX ensures the order of\r\n     * base maker orders and that of quote maker orders are unploaded in the exact order, respectively.\r\n     *\r\n     * Requirements:\r\n     * - All base maker orders should have the same base and quote assets\r\n     * - All quote maker orders should have the same base and quote assets\r\n     * - All base maker orders should have the same base assets as the taker order\r\n     * - All quote maker orders should have the same quote assets as the taker order\r\n     */\r\n    function recordInstantExchangeOrders(\r\n        Order memory takerOrder,\r\n        Order[] memory makerOrders,\r\n        bytes memory takerSignature,\r\n        bytes[] memory makerSignatures\r\n    )\r\n        public\r\n        onlyWhitelisted\r\n        whenNotPaused\r\n        nonReentrant\r\n    {\r\n        // Taker order must be market order in Instant Exchange\r\n        require(OrderType(takerOrder.orderType) == OrderType.Market, \"INVALID_TAKER_TYPE\");\r\n\r\n        // Exactly one asset address should be different\r\n        require(\r\n            (takerOrder.baseAssetAddress == makerOrders[0].baseAssetAddress) != (takerOrder.quoteAssetAddress == makerOrders[0].quoteAssetAddress),\r\n            \"INVALID_ASSET\"\r\n        );\r\n\r\n        // Base and quote makerOrder arrays are compatible\r\n        require(makerOrders.length == makerSignatures.length, \"SIGNATURE_LENGTH_MISMATCH\");\r\n\r\n        OrderInfo memory takerOrderInfo = getOrderInfo(takerOrder);\r\n\r\n        // Record the order if not seen before\r\n        if (takerOrderInfo.filledAmount == 0) {\r\n            max[takerOrderInfo.orderHash] = takerOrder.amount;\r\n        }\r\n\r\n        // For migration only\r\n        if (!_hashCheck[takerOrderInfo.orderHash]) {\r\n            _hashCheck[takerOrderInfo.orderHash] = true;\r\n            _hashList.push(takerOrderInfo.orderHash);\r\n        }\r\n\r\n        // Assert if the taker order is valid\r\n        assertFillableOrder(\r\n            takerOrder,\r\n            takerOrderInfo,\r\n            address(0),\r\n            takerSignature\r\n        );\r\n\r\n        for (uint i = 0; i < makerOrders.length; i++) {\r\n            require(takerOrder.side != makerOrders[i].side, \"INVALID_SIDE\");\r\n            require(OrderType(makerOrders[i].orderType) == OrderType.Limit, \"INVALID_MAKER_TYPE\");\r\n\r\n            OrderInfo memory makerOrderInfo = getOrderInfo(makerOrders[i]);\r\n\r\n            // Record the order if not seen before\r\n            if (makerOrderInfo.filledAmount == 0) {\r\n                max[makerOrderInfo.orderHash] = makerOrders[i].amount;\r\n            }\r\n\r\n            // For migration only\r\n            if (!_hashCheck[makerOrderInfo.orderHash]) {\r\n                _hashCheck[makerOrderInfo.orderHash] = true;\r\n                _hashList.push(makerOrderInfo.orderHash);\r\n            }\r\n\r\n            // Assert if the maker order is valid\r\n            assertFillableOrder(\r\n                makerOrders[i],\r\n                makerOrderInfo,\r\n                address(0),\r\n                makerSignatures[i]\r\n            );\r\n\r\n            // If a maker order has the same base assets as the taker order, then push it to `baseMakerOrders`\r\n            // Otherwise, if a maker order has the same quote assets as the taker order, push it to `quoteMakerOrders`\r\n            if (takerOrder.baseAssetAddress == makerOrders[i].baseAssetAddress) {\r\n                if (baseMakerOrders[takerOrderInfo.orderHash].length > 0) {\r\n                    // Check if all makerOrders are for the same asset pair\r\n                    require(baseMakerOrders[takerOrderInfo.orderHash][0].baseAssetAddress == makerOrders[i].baseAssetAddress, \"baseMakerOrders: wrong baseAssetAddress\");\r\n                    require(baseMakerOrders[takerOrderInfo.orderHash][0].quoteAssetAddress == makerOrders[i].quoteAssetAddress, \"baseMakerOrders: wrong quoteAssetAddress\");\r\n                }\r\n                baseMakerOrders[takerOrderInfo.orderHash].push(makerOrders[i]);\r\n            } else {\r\n                if (quoteMakerOrders[takerOrderInfo.orderHash].length > 0) {\r\n                    // Check if all makerOrders are for the same asset pair\r\n                    require(quoteMakerOrders[takerOrderInfo.orderHash][0].baseAssetAddress == makerOrders[i].baseAssetAddress, \"quoteMakerOrders: wrong baseAssetAddress\");\r\n                    require(quoteMakerOrders[takerOrderInfo.orderHash][0].quoteAssetAddress == makerOrders[i].quoteAssetAddress, \"quoteMakerOrders: wrong quoteAssetAddress\");\r\n                }\r\n                quoteMakerOrders[takerOrderInfo.orderHash].push(makerOrders[i]);\r\n            }\r\n        }\r\n    }\r\n\r\n    /**\r\n     * Execute all the recorded base maker orders and quote maker orders for a specific taker order.\r\n     * The function should be called after `recordInstantExchangeOrders`\r\n     * Only Whitelistlisted (DEX) have the access permission.\r\n     *\r\n     * The function will atomically perform the following operations:\r\n     *\r\n     *      1. Impersonate a taker order between the taker-owned asset and intermediate asset\r\n     *      2. Calculate the results for the first exchange roundtrip\r\n     *      3. Impersonate another taker order between intermediate asset the taker-asked asset\r\n     *      4. Calculate the results for the second exchange roundtrip\r\n     *      5. Settle all the exchanges\r\n     *\r\n     * Requirements:\r\n     * - The length of base and quote makerOrder lists should be either both zero or both nonzero\r\n     * - The amount of intermediate asset left after the second exchange roundtrip should be less than `threshold`\r\n     */\r\n    function executeInstantExchangeTrade(\r\n        Order memory takerOrder,\r\n        bytes memory takerSignature,\r\n        uint256 threshold\r\n    )\r\n        public\r\n        onlyWhitelisted\r\n        whenNotPaused\r\n        nonReentrant\r\n    {\r\n        OrderInfo memory takerOrderInfo = getOrderInfo(takerOrder);\r\n\r\n        Order[] memory firstOrderLists;\r\n        Order[] memory secondOrderLists;\r\n\r\n        if (!takerOrder.side) {\r\n            firstOrderLists = baseMakerOrders[takerOrderInfo.orderHash];\r\n            secondOrderLists = quoteMakerOrders[takerOrderInfo.orderHash];\r\n        } else {\r\n            firstOrderLists = quoteMakerOrders[takerOrderInfo.orderHash];\r\n            secondOrderLists = baseMakerOrders[takerOrderInfo.orderHash];\r\n        }\r\n\r\n        // Two makerOrder lists have either both zero lengths or nonzero lengths\r\n        require(\r\n            (firstOrderLists.length != 0) == (secondOrderLists.length != 0),\r\n            \"INVALID_LENGTH\"\r\n        );\r\n\r\n        // Simply cancel the takerOrder if orderlists are empty\r\n        if (firstOrderLists.length > 0) {\r\n            // Mimic 1st roundtrip takerOrder: A-B\r\n            Order memory firstTakerOrder = Order({\r\n                userAddress: takerOrder.userAddress,\r\n                amount: takerOrder.amount,\r\n                price: takerOrder.price,\r\n                orderType: takerOrder.orderType,\r\n                side: takerOrder.side,\r\n                salt: takerOrder.salt,\r\n                baseAssetAddress: firstOrderLists[0].baseAssetAddress,\r\n                quoteAssetAddress: firstOrderLists[0].quoteAssetAddress,\r\n                feeAddress: address(0),\r\n                makerFeePercentage: 0,\r\n                takerFeePercentage: 0\r\n            });\r\n\r\n            // Calculate matching results for the 1st roundtrip\r\n            LibFillResults.MatchedMarketFillResults memory firstMatchedResults = _calculateMarketOrder(firstTakerOrder, firstOrderLists, takerOrderInfo, firstTakerOrder.amount,  address(0));\r\n\r\n            // Mimic 2nd roundtrip takerOrder: B-C\r\n            Order memory secondTakerOrder = Order({\r\n                userAddress: takerOrder.userAddress,\r\n                amount: firstMatchedResults.totalTakerFill,\r\n                price: takerOrder.price,\r\n                orderType: takerOrder.orderType,\r\n                side: takerOrder.side,\r\n                salt: takerOrder.salt,\r\n                baseAssetAddress: secondOrderLists[0].baseAssetAddress,\r\n                quoteAssetAddress: secondOrderLists[0].quoteAssetAddress,\r\n                feeAddress: takerOrder.feeAddress,\r\n                makerFeePercentage: 0,\r\n                takerFeePercentage: takerOrder.takerFeePercentage\r\n            });\r\n\r\n            // Calculate matching results for the 2nd roundtrip\r\n            LibFillResults.MatchedMarketFillResults memory secondMatchedResults = _calculateMarketOrder(secondTakerOrder, secondOrderLists, takerOrderInfo, secondTakerOrder.amount, address(0));\r\n\r\n            // Ensure that there is almost no intermediate B left\r\n            // Note that it is very likely that the match is not perfect, and in the case where there are a slight\r\n            // amount of B left, we would still allow the transaction and transfer B to the user as a by-product\r\n            if (SafeMath.sub(firstMatchedResults.totalTakerFill, secondMatchedResults.totalTradeAmount) <= threshold) {\r\n                // Settle the result for takerOrder\r\n                updateFilledStates(\r\n                    takerOrder,\r\n                    takerOrder.feeAddress,\r\n                    takerOrderInfo.orderHash,\r\n                    takerOrderInfo.filledAmount,\r\n                    secondMatchedResults.totalTakerFee,\r\n                    takerOrder.side ? firstMatchedResults.totalTradeFunds : firstMatchedResults.totalTradeAmount\r\n                );\r\n\r\n                // Settle maker orders from 1st round trip\r\n                for (uint i = 0; i < firstOrderLists.length; i++) {\r\n                    // Update exchange states\r\n                    OrderInfo memory makerOrderInfo = getOrderInfo(firstOrderLists[i]);\r\n                    updateFilledStates(\r\n                        firstOrderLists[i],\r\n                        firstOrderLists[i].feeAddress,\r\n                        makerOrderInfo.orderHash,\r\n                        makerOrderInfo.filledAmount,\r\n                        firstMatchedResults.fillResults[i].makerFee,\r\n                        firstMatchedResults.fillResults[i].tradeAmount\r\n                    );\r\n\r\n                    // Settle orders\r\n                    settleTrade(firstOrderLists[i], takerOrder, address(0), firstMatchedResults.fillResults[i]);\r\n                }\r\n\r\n                // Settle maker orders from 2st round trip\r\n                for (uint i = 0; i < secondOrderLists.length; i++) {\r\n                    // Update exchange states\r\n                    OrderInfo memory makerOrderInfo = getOrderInfo(secondOrderLists[i]);\r\n                    updateFilledStates(\r\n                        secondOrderLists[i],\r\n                        secondOrderLists[i].feeAddress,\r\n                        makerOrderInfo.orderHash,\r\n                        makerOrderInfo.filledAmount,\r\n                        firstMatchedResults.fillResults[i].makerFee,\r\n                        secondMatchedResults.fillResults[i].tradeAmount\r\n                    );\r\n\r\n                    // Settle orders\r\n                    settleTrade(secondOrderLists[i], takerOrder, address(0), secondMatchedResults.fillResults[i]);\r\n                }\r\n            }\r\n        }\r\n\r\n        // Delete the stored maker orders\r\n        delete baseMakerOrders[takerOrderInfo.orderHash];\r\n        delete quoteMakerOrders[takerOrderInfo.orderHash];\r\n\r\n        // Cancel the taker order\r\n        finalizeOrder(takerOrder, takerSignature);\r\n    }\r\n\r\n    /**\r\n     * Execute the exchange between a maker order and a taker order.\r\n     * Only Whitelistlisted (DEX) have the access permission.\r\n     *\r\n     * The function will atomically perform the following operations:\r\n     *\r\n     *      1. Validate both taker order, maker order and the match\r\n     *      2. Calculate the matching results\r\n     *      3. Settle the exchanges\r\n     */\r\n    function executeTrade(\r\n        Order memory makerOrder,\r\n        Order memory takerOrder,\r\n        bytes memory makerSignature,\r\n        bytes memory takerSignature,\r\n        address feeAddress\r\n    )\r\n        public\r\n        onlyWhitelisted\r\n        whenNotPaused\r\n        nonReentrant\r\n        returns (LibFillResults.MatchedFillResults memory matchedFillResults)\r\n    {\r\n        // We assume that the two order sides are opposite, takerOrder.quoteAssetAddress == makerOrder.quoteAssetAddress and takerOrder.baseAssetAddress == makerOrder.baseAssetAddress.\r\n        // If this assumption isn't true, the match will fail at signature validation.\r\n        require(makerOrder.side != takerOrder.side, \"INVALID_SIDE\");\r\n        require(OrderType(makerOrder.orderType) == OrderType.Limit, \"INVALID_MAKER_TYPE\");\r\n\r\n        takerOrder.baseAssetAddress = makerOrder.baseAssetAddress;\r\n        takerOrder.quoteAssetAddress = makerOrder.quoteAssetAddress;\r\n\r\n        // Get left & right order info\r\n        OrderInfo memory makerOrderInfo = getOrderInfo(makerOrder);\r\n        OrderInfo memory takerOrderInfo = getOrderInfo(takerOrder);\r\n\r\n        // Record the order if not seen before\r\n        if (makerOrderInfo.filledAmount == 0) {\r\n            max[makerOrderInfo.orderHash] = makerOrder.amount;\r\n        }\r\n        if (takerOrderInfo.filledAmount == 0) {\r\n            max[takerOrderInfo.orderHash] = takerOrder.amount;\r\n        }\r\n\r\n        // For migration only\r\n        if (!_hashCheck[makerOrderInfo.orderHash]) {\r\n            _hashCheck[makerOrderInfo.orderHash] = true;\r\n            _hashList.push(makerOrderInfo.orderHash);\r\n        }\r\n        if (!_hashCheck[takerOrderInfo.orderHash]) {\r\n            _hashCheck[takerOrderInfo.orderHash] = true;\r\n            _hashList.push(takerOrderInfo.orderHash);\r\n        }\r\n\r\n        // Either our context is valid or we revert\r\n        assertFillableOrder(\r\n            makerOrder,\r\n            makerOrderInfo,\r\n            feeAddress,\r\n            makerSignature\r\n        );\r\n        assertFillableOrder(\r\n            takerOrder,\r\n            takerOrderInfo,\r\n            feeAddress,\r\n            takerSignature\r\n        );\r\n\r\n        // Either it is a valid match or we revert\r\n        assertValidMatch(makerOrder, takerOrder);\r\n\r\n        // Compute proportional fill amounts\r\n        matchedFillResults = LibFillResults.calculateMatchedFillResults(\r\n            makerOrder,\r\n            takerOrder,\r\n            makerOrderInfo.filledAmount,\r\n            takerOrderInfo.filledAmount,\r\n            max[makerOrderInfo.orderHash],\r\n            max[takerOrderInfo.orderHash]\r\n        );\r\n\r\n        // Update exchange state\r\n        updateFilledStates(\r\n            makerOrder,\r\n            makerOrder.feeAddress,\r\n            makerOrderInfo.orderHash,\r\n            makerOrderInfo.filledAmount,\r\n            matchedFillResults.makerFee,\r\n            matchedFillResults.tradeAmount\r\n        );\r\n        updateFilledStates(\r\n            takerOrder,\r\n            takerOrder.feeAddress,\r\n            takerOrderInfo.orderHash,\r\n            takerOrderInfo.filledAmount,\r\n            matchedFillResults.takerFee,\r\n            (takerOrder.side && OrderType(takerOrder.orderType) == OrderType.Market) ? matchedFillResults.tradeFunds : matchedFillResults.tradeAmount\r\n        );\r\n\r\n        // Settle matched orders. Succeeds or throws.\r\n        settleTrade(makerOrder, takerOrder, feeAddress, matchedFillResults);\r\n\r\n        return matchedFillResults;\r\n    }\r\n\r\n    /**\r\n     * Cancel orders in batches.\r\n     * Only Whitelistlisted (DEX) have the access permission.\r\n     *\r\n     * The function will iteratively cancel each order specified\r\n     */\r\n    function cancelOrders(CancelRequest[] memory requests, bytes[] memory signatures)\r\n        public\r\n        onlyWhitelisted\r\n        whenNotPaused\r\n    {\r\n        require(requests.length == signatures.length, \"INVALID_SIGNATURE_LENGTH\");\r\n        for(uint i = 0; i < requests.length; i++){\r\n            cancelOrder(requests[i], signatures[i]);\r\n        }\r\n    }\r\n\r\n    /**\r\n     * Cancel an order with user-signed request.\r\n     * Only Whitelistlisted (DEX) have the access permission.\r\n     *\r\n     * The function will cancel a single order\r\n     */\r\n    function cancelOrder(CancelRequest memory request, bytes memory signature)\r\n        public\r\n        onlyWhitelisted\r\n        whenNotPaused\r\n    {\r\n        // Validate user signature\r\n        bytes32 requestHash = getRequestHash(request);\r\n        require(isValidSignature(requestHash,request.order.userAddress,signature), \"INVALID_CANCEL_SIGNATURE\");\r\n\r\n        bytes32 orderHash = getOrderHash(request.order);\r\n        cancelled[orderHash] = true;\r\n    }\r\n\r\n    /**\r\n     * Cancel an order without user-signed request.\r\n     * Only Whitelistlisted (DEX) have the access permission.\r\n     *\r\n     * The function will cancel a single order when DEX decides that there are\r\n     * no more matching orders available\r\n     */\r\n    function finalizeOrder(Order memory order, bytes memory signature)\r\n        public\r\n        onlyWhitelisted\r\n        whenNotPaused\r\n    {\r\n        //require(OrderType(order.orderType) == OrderType.Market, \"INVALID_TYPE\");\r\n        bytes32 orderHash = getOrderHash(order);\r\n\r\n        // Validate user signature (check only if first time seen)\r\n        require(isValidSignature(orderHash,order.userAddress,signature), \"INVALID_ORDER_SIGNATURE\");\r\n\r\n        cancelled[orderHash] = true;\r\n    }\r\n\r\n    /**\r\n     * Pause the majority of functionalities of Boomflow.\r\n     * Only WhitelistAdmin (DEX) have the access permission.\r\n     *\r\n     * Note that when deployed, Boomflow is by default paused.\r\n     */\r\n    function Pause()\r\n        public\r\n        onlyWhitelistAdmin\r\n    {\r\n        _pause();\r\n    }\r\n\r\n    /**\r\n     * Resume all paused functionalities of Boomflow.\r\n     * Only WhitelistAdmin (DEX) have the access permission.\r\n     *\r\n     */\r\n    function Resume()\r\n        public\r\n        onlyWhitelistAdmin\r\n    {\r\n        _unpause();\r\n    }\r\n// ----------------------------- Helper Functions\r\n    function getOrderInfo(Order memory order)\r\n        public\r\n        view\r\n        returns (OrderInfo memory orderInfo)\r\n    {\r\n        // Compute the order hash\r\n        orderInfo.orderHash = getOrderHash(order);\r\n\r\n        // Fetch operated amount\r\n        orderInfo.filledAmount = filled[orderInfo.orderHash];\r\n\r\n        // Validate the order amount\r\n        if (order.amount == 0) {\r\n            orderInfo.orderStatus = uint8(OrderStatus.INVALID_AMOUNT);\r\n            return orderInfo;\r\n        }\r\n\r\n        // Validate the order type\r\n        if (OrderType(order.orderType) != OrderType.Limit &&\r\n          OrderType(order.orderType) != OrderType.Market) {\r\n            orderInfo.orderStatus = uint8(OrderStatus.INVALID_TYPE);\r\n            return orderInfo;\r\n        }\r\n\r\n        // Validate the order price\r\n        if (OrderType(order.orderType) == OrderType.Limit && order.price == 0) {\r\n            orderInfo.orderStatus = uint8(OrderStatus.INVALID_PRICE);\r\n            return orderInfo;\r\n        }\r\n\r\n        // Validate order availability\r\n        if (max[orderInfo.orderHash] != 0 && orderInfo.filledAmount >= max[orderInfo.orderHash]) {\r\n            orderInfo.orderStatus = uint8(OrderStatus.FULLY_FILLED);\r\n            return orderInfo;\r\n        }\r\n\r\n        // Validate if order is cancelled\r\n        if (cancelled[orderInfo.orderHash]) {\r\n            orderInfo.orderStatus = uint8(OrderStatus.CANCELLED);\r\n            return orderInfo;\r\n        }\r\n\r\n        // Validate order expiration\r\n        // solhint-disable-next-line not-rely-on-time\r\n        /*if (block.timestamp >= order.expirationTimeSeconds) {\r\n            orderInfo.orderStatus = uint8(OrderStatus.EXPIRED);\r\n            return orderInfo;\r\n        }*/\r\n\r\n        // All other statuses are ruled out: order is Fillable\r\n        orderInfo.orderStatus = uint8(OrderStatus.FILLABLE);\r\n        return orderInfo;\r\n    }\r\n\r\n    function assertFillableOrder(\r\n        Order memory order,\r\n        OrderInfo memory orderInfo,\r\n        address,\r\n        bytes memory signature\r\n    )\r\n        public\r\n        pure\r\n    {\r\n        require(orderInfo.orderStatus != uint8(OrderStatus.INVALID_AMOUNT), \"INVALID_AMOUNT\");\r\n        require(orderInfo.orderStatus != uint8(OrderStatus.INVALID_PRICE), \"INVALID_PRICE\");\r\n        require(orderInfo.orderStatus != uint8(OrderStatus.INVALID_TYPE), \"INVALID_TYPE\");\r\n        require(orderInfo.orderStatus != uint8(OrderStatus.INVALID), \"INVALID\");\r\n        require(orderInfo.orderStatus != uint8(OrderStatus.FULLY_FILLED), \"FULLY_FILLED\");\r\n        require(orderInfo.orderStatus != uint8(OrderStatus.EXPIRED), \"EXPIRED\");\r\n        require(orderInfo.orderStatus != uint8(OrderStatus.CANCELLED), \"CANCELLED\");\r\n        require(\r\n            orderInfo.orderStatus == uint8(OrderStatus.FILLABLE),\r\n            \"ORDER_UNFILLABLE\"\r\n        );\r\n\r\n        // Validate the order fee percentage is less than 1\r\n        require(uint256(10**18) > order.makerFeePercentage, \"INVALID_FEE_PERCENTAGE\");\r\n        require(uint256(10**18) > order.takerFeePercentage, \"INVALID_FEE_PERCENTAGE\");\r\n\r\n        // Validate user signature (check only if first time seen)\r\n        if (orderInfo.filledAmount == 0) {\r\n            require(isValidSignature(orderInfo.orderHash,order.userAddress,signature), \"INVALID_ORDER_SIGNATURE\");\r\n        }\r\n    }\r\n\r\n    /**\r\n     * Make sure there is a profitable spread when both taker and maker orders are limit order.\r\n     * There is a profitable spread iff the cost per unit bought (OrderA.MakerAmount/OrderA.TakerAmount) for each order is greater\r\n     * than the profit per unit sold of the matched order (OrderB.TakerAmount/OrderB.MakerAmount).\r\n     */\r\n    function assertValidMatch(\r\n        LibOrder.Order memory makerOrder,\r\n        LibOrder.Order memory takerOrder\r\n    )\r\n        internal\r\n        pure\r\n    {\r\n        if (OrderType(takerOrder.orderType) == OrderType.Limit) {\r\n            if (makerOrder.side) {\r\n                require(\r\n                    makerOrder.price >= takerOrder.price,\r\n                    \"NEGATIVE_SPREAD_REQUIRED\"\r\n                );\r\n            } else {\r\n                require(\r\n                    makerOrder.price <= takerOrder.price,\r\n                    \"NEGATIVE_SPREAD_REQUIRED\"\r\n                );\r\n            }\r\n        }\r\n    }\r\n\r\n    // Update state with results of a fill order.\r\n    function updateFilledStates(\r\n        Order memory order,\r\n        address feeAddress,\r\n        bytes32 orderHash,\r\n        uint256 baseAssetFilled,\r\n        uint256 fee,\r\n        uint256 value\r\n    )\r\n        internal\r\n    {\r\n        // Update maker state\r\n        filled[orderHash] = SafeMath.add(baseAssetFilled, value);\r\n        emit Fill(\r\n            order.userAddress,\r\n            order.amount,\r\n            order.price,\r\n            OrderType(order.orderType),\r\n            order.side,\r\n            order.baseAssetAddress,\r\n            order.quoteAssetAddress,\r\n            orderHash,\r\n            fee,\r\n            feeAddress,\r\n            msg.sender,\r\n            value\r\n        );\r\n    }\r\n\r\n    // Settle the trade between one maker and one taker order\r\n    function settleTrade(\r\n        Order memory makerOrder,\r\n        Order memory takerOrder,\r\n        address,\r\n        LibFillResults.MatchedFillResults memory matchedFillResults\r\n    )\r\n        internal\r\n    {\r\n        address takerFillAsset = takerOrder.side ? makerOrder.baseAssetAddress : makerOrder.quoteAssetAddress;\r\n        address makerFillAsset = takerOrder.side ? makerOrder.quoteAssetAddress : makerOrder.baseAssetAddress;\r\n\r\n        ICRCL(takerFillAsset).transferFrom(makerOrder.userAddress,takerOrder.userAddress,matchedFillResults.takerFillAmount);\r\n        ICRCL(makerFillAsset).transferFrom(takerOrder.userAddress,makerOrder.userAddress,matchedFillResults.makerFillAmount);\r\n\r\n        ICRCL(takerFillAsset).transferFrom(makerOrder.userAddress,takerOrder.feeAddress,matchedFillResults.takerFee);\r\n        ICRCL(makerFillAsset).transferFrom(takerOrder.userAddress,makerOrder.feeAddress,matchedFillResults.makerFee);\r\n    }\r\n\r\n    function _min(uint256 value1, uint256 value2) internal pure returns (uint256) {\r\n        if (value1 > value2) {\r\n            return value2;\r\n        }\r\n        return value1;\r\n    }\r\n\r\n    // Calculate the matching results of one taker order against multiple maker orders\r\n    function _calculateMarketOrder(\r\n        Order memory takerOrder,\r\n        Order[] memory makerOrders,\r\n        OrderInfo memory takerOrderInfo,\r\n        uint256 takerOrderMax,\r\n        address\r\n    )\r\n        internal\r\n        view\r\n        returns (LibFillResults.MatchedMarketFillResults memory matchedMarketFillResults)\r\n    {\r\n        // Initialize fill results\r\n        matchedMarketFillResults.totalMakerFill = 0;\r\n        matchedMarketFillResults.totalTakerFill = 0;\r\n        matchedMarketFillResults.totalTradeAmount = 0;\r\n        matchedMarketFillResults.totalTradeFunds = 0;\r\n        matchedMarketFillResults.totalTakerFee = 0;\r\n\r\n        matchedMarketFillResults.fillResults = new LibFillResults.MatchedFillResults[](makerOrders.length);\r\n\r\n        for (uint i = 0; i < makerOrders.length; i++) {\r\n            // Get maker order info\r\n            OrderInfo memory makerOrderInfo = getOrderInfo(makerOrders[i]);\r\n\r\n            // Calculate the matching result between one maker and one taker order\r\n            LibFillResults.MatchedFillResults memory matchedFillResults = LibFillResults.calculateMatchedFillResults(\r\n                makerOrders[i],\r\n                takerOrder,\r\n                makerOrderInfo.filledAmount,\r\n                SafeMath.add(takerOrderInfo.filledAmount, matchedMarketFillResults.totalTakerFill),\r\n                max[makerOrderInfo.orderHash],\r\n                takerOrderMax\r\n            );\r\n\r\n            // Record the match results\r\n            matchedMarketFillResults.fillResults[i] = matchedFillResults;\r\n\r\n            matchedMarketFillResults.totalMakerFill += matchedMarketFillResults.fillResults[i].makerFillAmount;\r\n            matchedMarketFillResults.totalTakerFill += matchedMarketFillResults.fillResults[i].takerFillAmount;\r\n            matchedMarketFillResults.totalTradeAmount += matchedMarketFillResults.fillResults[i].tradeAmount;\r\n            matchedMarketFillResults.totalTradeFunds += matchedMarketFillResults.fillResults[i].tradeFunds;\r\n            matchedMarketFillResults.totalTakerFee += matchedMarketFillResults.fillResults[i].takerFee;\r\n        }\r\n\r\n        // Reset all the temporarily cancelled orders\r\n        /*for (uint i = 0; i < makerOrders.length; i++) {\r\n            cancelled[orderHashes[i]] = false;\r\n        }*/\r\n\r\n        return matchedMarketFillResults;\r\n    }\r\n}",
  "sourcePath": "/mnt/c/conflux/boomflow-contract/contracts/boomflow/boomflow.sol",
  "compiler": {
    "name": "solc",
    "version": "0.5.11+commit.c082d0b4.Emscripten.clang"
  },
  "schemaVersion": "3.0.23",
  "updatedAt": "2020-04-04T07:29:27.100Z",
  "devdoc": {
    "methods": {
      "getRequestHash(((address,uint256,uint256,uint256,bool,uint256,address,address,address,uint256,uint256),uint256))": {
        "return": "Keccak-256 EIP712 hash of the request."
      },
      "paused()": {
        "details": "Returns true if the contract is paused, and false otherwise.\r"
      }
    }
  },
  "userdoc": {
    "methods": {
      "Pause()": {
        "notice": "Pause the majority of functionalities of Boomflow.\r Only WhitelistAdmin (DEX) have the access permission.\r      * Note that when deployed, Boomflow is by default paused.\r"
      },
      "Resume()": {
        "notice": "Resume all paused functionalities of Boomflow.\r Only WhitelistAdmin (DEX) have the access permission.\r      "
      },
      "cancelOrder(((address,uint256,uint256,uint256,bool,uint256,address,address,address,uint256,uint256),uint256),bytes)": {
        "notice": "Cancel an order with user-signed request.\r Only Whitelistlisted (DEX) have the access permission.\r      * The function will cancel a single order\r"
      },
      "cancelOrders(((address,uint256,uint256,uint256,bool,uint256,address,address,address,uint256,uint256),uint256)[],bytes[])": {
        "notice": "Cancel orders in batches.\r Only Whitelistlisted (DEX) have the access permission.\r      * The function will iteratively cancel each order specified\r"
      },
      "executeInstantExchangeTrade((address,uint256,uint256,uint256,bool,uint256,address,address,address,uint256,uint256),bytes,uint256)": {
        "notice": "Execute all the recorded base maker orders and quote maker orders for a specific taker order.\r The function should be called after `recordInstantExchangeOrders`\r Only Whitelistlisted (DEX) have the access permission.\r      * The function will atomically perform the following operations:\r      *      1. Impersonate a taker order between the taker-owned asset and intermediate asset\r     2. Calculate the results for the first exchange roundtrip\r     3. Impersonate another taker order between intermediate asset the taker-asked asset\r     4. Calculate the results for the second exchange roundtrip\r     5. Settle all the exchanges\r      * Requirements:\r - The length of base and quote makerOrder lists should be either both zero or both nonzero\r - The amount of intermediate asset left after the second exchange roundtrip should be less than `threshold`\r"
      },
      "executeTrade((address,uint256,uint256,uint256,bool,uint256,address,address,address,uint256,uint256),(address,uint256,uint256,uint256,bool,uint256,address,address,address,uint256,uint256),bytes,bytes,address)": {
        "notice": "Execute the exchange between a maker order and a taker order.\r Only Whitelistlisted (DEX) have the access permission.\r      * The function will atomically perform the following operations:\r      *      1. Validate both taker order, maker order and the match\r     2. Calculate the matching results\r     3. Settle the exchanges\r"
      },
      "finalizeOrder((address,uint256,uint256,uint256,bool,uint256,address,address,address,uint256,uint256),bytes)": {
        "notice": "Cancel an order without user-signed request.\r Only Whitelistlisted (DEX) have the access permission.\r      * The function will cancel a single order when DEX decides that there are\r no more matching orders available\r"
      },
      "recordInstantExchangeOrders((address,uint256,uint256,uint256,bool,uint256,address,address,address,uint256,uint256),(address,uint256,uint256,uint256,bool,uint256,address,address,address,uint256,uint256)[],bytes,bytes[])": {
        "notice": "Record the matched base maker orders and quote maker orders for a specific taker order.\r The function should be called prior to `executeInstantExchangeTrade`\r Only Whitelistlisted (DEX) have the access permission.\r      * The function could be run in batches for a single taker order, and `makerOrders` could\r contains a mixture of base and quote maker orders, as long as DEX ensures the order of\r base maker orders and that of quote maker orders are unploaded in the exact order, respectively.\r      * Requirements:\r - All base maker orders should have the same base and quote assets\r - All quote maker orders should have the same base and quote assets\r - All base maker orders should have the same base assets as the taker order\r - All quote maker orders should have the same quote assets as the taker order\r"
      }
    }
  }
}