{
  "contractName": "CRCL",
  "abi": [
    {
      "constant": false,
      "inputs": [
        {
          "internalType": "address",
          "name": "account",
          "type": "address"
        }
      ],
      "name": "addWhitelisted",
      "outputs": [],
      "payable": false,
      "stateMutability": "nonpayable",
      "type": "function"
    },
    {
      "constant": false,
      "inputs": [
        {
          "internalType": "address",
          "name": "account",
          "type": "address"
        }
      ],
      "name": "removeWhitelisted",
      "outputs": [],
      "payable": false,
      "stateMutability": "nonpayable",
      "type": "function"
    },
    {
      "constant": true,
      "inputs": [
        {
          "internalType": "address",
          "name": "account",
          "type": "address"
        }
      ],
      "name": "isWhitelisted",
      "outputs": [
        {
          "internalType": "bool",
          "name": "",
          "type": "bool"
        }
      ],
      "payable": false,
      "stateMutability": "view",
      "type": "function"
    },
    {
      "constant": true,
      "inputs": [
        {
          "components": [
            {
              "internalType": "address",
              "name": "userAddress",
              "type": "address"
            },
            {
              "internalType": "uint256",
              "name": "amount",
              "type": "uint256"
            },
            {
              "internalType": "string",
              "name": "recipient",
              "type": "string"
            },
            {
              "internalType": "bool",
              "name": "isCrosschain",
              "type": "bool"
            },
            {
              "internalType": "uint256",
              "name": "nonce",
              "type": "uint256"
            }
          ],
          "internalType": "struct LibRequest.WithdrawCrossChainRequest",
          "name": "request",
          "type": "tuple"
        }
      ],
      "name": "getWithdrawCrossChainRequestHash",
      "outputs": [
        {
          "internalType": "bytes32",
          "name": "requestHash",
          "type": "bytes32"
        }
      ],
      "payable": false,
      "stateMutability": "view",
      "type": "function"
    },
    {
      "constant": false,
      "inputs": [],
      "name": "renounceWhitelistAdmin",
      "outputs": [],
      "payable": false,
      "stateMutability": "nonpayable",
      "type": "function"
    },
    {
      "constant": true,
      "inputs": [],
      "name": "paused",
      "outputs": [
        {
          "internalType": "bool",
          "name": "",
          "type": "bool"
        }
      ],
      "payable": false,
      "stateMutability": "view",
      "type": "function"
    },
    {
      "constant": false,
      "inputs": [
        {
          "internalType": "address",
          "name": "account",
          "type": "address"
        }
      ],
      "name": "addWhitelistAdmin",
      "outputs": [],
      "payable": false,
      "stateMutability": "nonpayable",
      "type": "function"
    },
    {
      "constant": true,
      "inputs": [
        {
          "internalType": "address",
          "name": "account",
          "type": "address"
        }
      ],
      "name": "getDeferTime",
      "outputs": [
        {
          "internalType": "uint256",
          "name": "",
          "type": "uint256"
        }
      ],
      "payable": false,
      "stateMutability": "view",
      "type": "function"
    },
    {
      "constant": true,
      "inputs": [
        {
          "components": [
            {
              "internalType": "address",
              "name": "userAddress",
              "type": "address"
            },
            {
              "internalType": "uint256[]",
              "name": "amounts",
              "type": "uint256[]"
            },
            {
              "internalType": "address[]",
              "name": "recipients",
              "type": "address[]"
            },
            {
              "internalType": "uint256",
              "name": "nonce",
              "type": "uint256"
            }
          ],
          "internalType": "struct LibRequest.TransferRequest",
          "name": "request",
          "type": "tuple"
        }
      ],
      "name": "getTransferRequestHash",
      "outputs": [
        {
          "internalType": "bytes32",
          "name": "requestHash",
          "type": "bytes32"
        }
      ],
      "payable": false,
      "stateMutability": "view",
      "type": "function"
    },
    {
      "constant": true,
      "inputs": [
        {
          "internalType": "bytes32",
          "name": "hash",
          "type": "bytes32"
        },
        {
          "internalType": "address",
          "name": "signerAddress",
          "type": "address"
        },
        {
          "internalType": "bytes",
          "name": "signature",
          "type": "bytes"
        }
      ],
      "name": "isValidSignature",
      "outputs": [
        {
          "internalType": "bool",
          "name": "isValid",
          "type": "bool"
        }
      ],
      "payable": false,
      "stateMutability": "pure",
      "type": "function"
    },
    {
      "constant": false,
      "inputs": [
        {
          "internalType": "uint256",
          "name": "time",
          "type": "uint256"
        }
      ],
      "name": "setDeferTime",
      "outputs": [
        {
          "internalType": "bool",
          "name": "",
          "type": "bool"
        }
      ],
      "payable": false,
      "stateMutability": "nonpayable",
      "type": "function"
    },
    {
      "constant": true,
      "inputs": [
        {
          "internalType": "address",
          "name": "account",
          "type": "address"
        }
      ],
      "name": "isWhitelistAdmin",
      "outputs": [
        {
          "internalType": "bool",
          "name": "",
          "type": "bool"
        }
      ],
      "payable": false,
      "stateMutability": "view",
      "type": "function"
    },
    {
      "constant": true,
      "inputs": [],
      "name": "_deferTime",
      "outputs": [
        {
          "internalType": "uint256",
          "name": "",
          "type": "uint256"
        }
      ],
      "payable": false,
      "stateMutability": "view",
      "type": "function"
    },
    {
      "constant": true,
      "inputs": [],
      "name": "deferTime",
      "outputs": [
        {
          "internalType": "uint256",
          "name": "",
          "type": "uint256"
        }
      ],
      "payable": false,
      "stateMutability": "view",
      "type": "function"
    },
    {
      "constant": true,
      "inputs": [
        {
          "internalType": "bytes32",
          "name": "",
          "type": "bytes32"
        }
      ],
      "name": "recorded",
      "outputs": [
        {
          "internalType": "bool",
          "name": "",
          "type": "bool"
        }
      ],
      "payable": false,
      "stateMutability": "view",
      "type": "function"
    },
    {
      "constant": false,
      "inputs": [],
      "name": "renounceWhitelisted",
      "outputs": [],
      "payable": false,
      "stateMutability": "nonpayable",
      "type": "function"
    },
    {
      "constant": true,
      "inputs": [
        {
          "components": [
            {
              "internalType": "address",
              "name": "userAddress",
              "type": "address"
            },
            {
              "internalType": "uint256",
              "name": "amount",
              "type": "uint256"
            },
            {
              "internalType": "address",
              "name": "recipient",
              "type": "address"
            },
            {
              "internalType": "bool",
              "name": "isCrosschain",
              "type": "bool"
            },
            {
              "internalType": "uint256",
              "name": "nonce",
              "type": "uint256"
            }
          ],
          "internalType": "struct LibRequest.WithdrawRequest",
          "name": "request",
          "type": "tuple"
        }
      ],
      "name": "getRequestHash",
      "outputs": [
        {
          "internalType": "bytes32",
          "name": "requestHash",
          "type": "bytes32"
        }
      ],
      "payable": false,
      "stateMutability": "view",
      "type": "function"
    },
    {
      "constant": true,
      "inputs": [],
      "name": "EIP712_DOMAIN_HASH",
      "outputs": [
        {
          "internalType": "bytes32",
          "name": "",
          "type": "bytes32"
        }
      ],
      "payable": false,
      "stateMutability": "view",
      "type": "function"
    },
    {
      "inputs": [
        {
          "internalType": "string",
          "name": "name",
          "type": "string"
        },
        {
          "internalType": "string",
          "name": "symbol",
          "type": "string"
        },
        {
          "internalType": "uint8",
          "name": "decimals",
          "type": "uint8"
        },
        {
          "internalType": "address",
          "name": "tokenAddr",
          "type": "address"
        },
        {
          "internalType": "uint256",
          "name": "deferTime",
          "type": "uint256"
        }
      ],
      "payable": false,
      "stateMutability": "nonpayable",
      "type": "constructor"
    },
    {
      "anonymous": false,
      "inputs": [
        {
          "indexed": false,
          "internalType": "address",
          "name": "account",
          "type": "address"
        }
      ],
      "name": "Paused",
      "type": "event"
    },
    {
      "anonymous": false,
      "inputs": [
        {
          "indexed": false,
          "internalType": "address",
          "name": "account",
          "type": "address"
        }
      ],
      "name": "Unpaused",
      "type": "event"
    },
    {
      "anonymous": false,
      "inputs": [
        {
          "indexed": true,
          "internalType": "address",
          "name": "sender",
          "type": "address"
        },
        {
          "indexed": false,
          "internalType": "uint256",
          "name": "time",
          "type": "uint256"
        }
      ],
      "name": "ScheduleWithdraw",
      "type": "event"
    },
    {
      "anonymous": false,
      "inputs": [
        {
          "indexed": true,
          "internalType": "address",
          "name": "account",
          "type": "address"
        }
      ],
      "name": "WhitelistedAdded",
      "type": "event"
    },
    {
      "anonymous": false,
      "inputs": [
        {
          "indexed": true,
          "internalType": "address",
          "name": "account",
          "type": "address"
        }
      ],
      "name": "WhitelistedRemoved",
      "type": "event"
    },
    {
      "anonymous": false,
      "inputs": [
        {
          "indexed": true,
          "internalType": "address",
          "name": "account",
          "type": "address"
        }
      ],
      "name": "WhitelistAdminAdded",
      "type": "event"
    },
    {
      "anonymous": false,
      "inputs": [
        {
          "indexed": true,
          "internalType": "address",
          "name": "account",
          "type": "address"
        }
      ],
      "name": "WhitelistAdminRemoved",
      "type": "event"
    },
    {
      "anonymous": false,
      "inputs": [
        {
          "indexed": true,
          "internalType": "address",
          "name": "sender",
          "type": "address"
        },
        {
          "indexed": true,
          "internalType": "address",
          "name": "recipient",
          "type": "address"
        },
        {
          "indexed": false,
          "internalType": "uint256",
          "name": "value",
          "type": "uint256"
        }
      ],
      "name": "Transfer",
      "type": "event"
    },
    {
      "anonymous": false,
      "inputs": [
        {
          "indexed": true,
          "internalType": "address",
          "name": "sender",
          "type": "address"
        },
        {
          "indexed": true,
          "internalType": "address",
          "name": "recipient",
          "type": "address"
        },
        {
          "indexed": false,
          "internalType": "uint256",
          "name": "value",
          "type": "uint256"
        }
      ],
      "name": "Deposit",
      "type": "event"
    },
    {
      "anonymous": false,
      "inputs": [
        {
          "indexed": true,
          "internalType": "address",
          "name": "sender",
          "type": "address"
        },
        {
          "indexed": true,
          "internalType": "address",
          "name": "recipient",
          "type": "address"
        },
        {
          "indexed": false,
          "internalType": "uint256",
          "name": "value",
          "type": "uint256"
        }
      ],
      "name": "Withdraw",
      "type": "event"
    },
    {
      "constant": true,
      "inputs": [
        {
          "internalType": "bytes32",
          "name": "",
          "type": "bytes32"
        },
        {
          "internalType": "address",
          "name": "",
          "type": "address"
        }
      ],
      "name": "canImplementInterfaceForAddress",
      "outputs": [
        {
          "internalType": "bytes32",
          "name": "",
          "type": "bytes32"
        }
      ],
      "payable": false,
      "stateMutability": "view",
      "type": "function"
    },
    {
      "constant": true,
      "inputs": [],
      "name": "totalSupply",
      "outputs": [
        {
          "internalType": "uint256",
          "name": "",
          "type": "uint256"
        }
      ],
      "payable": false,
      "stateMutability": "view",
      "type": "function"
    },
    {
      "constant": true,
      "inputs": [
        {
          "internalType": "address",
          "name": "account",
          "type": "address"
        }
      ],
      "name": "balanceOf",
      "outputs": [
        {
          "internalType": "uint256",
          "name": "",
          "type": "uint256"
        }
      ],
      "payable": false,
      "stateMutability": "view",
      "type": "function"
    },
    {
      "constant": true,
      "inputs": [],
      "name": "getTokenAddress",
      "outputs": [
        {
          "internalType": "address",
          "name": "",
          "type": "address"
        }
      ],
      "payable": false,
      "stateMutability": "view",
      "type": "function"
    },
    {
      "constant": false,
      "inputs": [
        {
          "internalType": "address",
          "name": "tokenAddr",
          "type": "address"
        }
      ],
      "name": "setTokenAddress",
      "outputs": [
        {
          "internalType": "bool",
          "name": "",
          "type": "bool"
        }
      ],
      "payable": false,
      "stateMutability": "nonpayable",
      "type": "function"
    },
    {
      "constant": true,
      "inputs": [],
      "name": "accountTotal",
      "outputs": [
        {
          "internalType": "uint256",
          "name": "",
          "type": "uint256"
        }
      ],
      "payable": false,
      "stateMutability": "view",
      "type": "function"
    },
    {
      "constant": true,
      "inputs": [
        {
          "internalType": "uint256",
          "name": "begin",
          "type": "uint256"
        }
      ],
      "name": "accountList",
      "outputs": [
        {
          "internalType": "address[100]",
          "name": "",
          "type": "address[100]"
        }
      ],
      "payable": false,
      "stateMutability": "view",
      "type": "function"
    },
    {
      "constant": false,
      "inputs": [
        {
          "internalType": "address",
          "name": "account",
          "type": "address"
        },
        {
          "internalType": "uint256",
          "name": "balance",
          "type": "uint256"
        }
      ],
      "name": "setStateOf",
      "outputs": [],
      "payable": false,
      "stateMutability": "nonpayable",
      "type": "function"
    },
    {
      "constant": false,
      "inputs": [
        {
          "internalType": "uint256",
          "name": "total",
          "type": "uint256"
        }
      ],
      "name": "setTotalSupply",
      "outputs": [],
      "payable": false,
      "stateMutability": "nonpayable",
      "type": "function"
    },
    {
      "constant": false,
      "inputs": [
        {
          "internalType": "address",
          "name": "sender",
          "type": "address"
        },
        {
          "internalType": "address",
          "name": "recipient",
          "type": "address"
        },
        {
          "internalType": "uint256",
          "name": "amount",
          "type": "uint256"
        }
      ],
      "name": "transferFrom",
      "outputs": [
        {
          "internalType": "bool",
          "name": "",
          "type": "bool"
        }
      ],
      "payable": false,
      "stateMutability": "nonpayable",
      "type": "function"
    },
    {
      "constant": false,
      "inputs": [
        {
          "components": [
            {
              "internalType": "address",
              "name": "userAddress",
              "type": "address"
            },
            {
              "internalType": "uint256[]",
              "name": "amounts",
              "type": "uint256[]"
            },
            {
              "internalType": "address[]",
              "name": "recipients",
              "type": "address[]"
            },
            {
              "internalType": "uint256",
              "name": "nonce",
              "type": "uint256"
            }
          ],
          "internalType": "struct LibRequest.TransferRequest",
          "name": "request",
          "type": "tuple"
        },
        {
          "internalType": "bytes",
          "name": "signature",
          "type": "bytes"
        }
      ],
      "name": "transferFor",
      "outputs": [
        {
          "internalType": "bool",
          "name": "",
          "type": "bool"
        }
      ],
      "payable": false,
      "stateMutability": "nonpayable",
      "type": "function"
    },
    {
      "constant": false,
      "inputs": [
        {
          "internalType": "address",
          "name": "",
          "type": "address"
        },
        {
          "internalType": "address",
          "name": "from",
          "type": "address"
        },
        {
          "internalType": "address",
          "name": "to",
          "type": "address"
        },
        {
          "internalType": "uint256",
          "name": "amount",
          "type": "uint256"
        },
        {
          "internalType": "bytes",
          "name": "userData",
          "type": "bytes"
        },
        {
          "internalType": "bytes",
          "name": "",
          "type": "bytes"
        }
      ],
      "name": "tokensReceived",
      "outputs": [],
      "payable": false,
      "stateMutability": "nonpayable",
      "type": "function"
    },
    {
      "constant": false,
      "inputs": [
        {
          "components": [
            {
              "internalType": "address",
              "name": "userAddress",
              "type": "address"
            },
            {
              "internalType": "uint256",
              "name": "amount",
              "type": "uint256"
            },
            {
              "internalType": "address",
              "name": "recipient",
              "type": "address"
            },
            {
              "internalType": "bool",
              "name": "isCrosschain",
              "type": "bool"
            },
            {
              "internalType": "uint256",
              "name": "nonce",
              "type": "uint256"
            }
          ],
          "internalType": "struct LibRequest.WithdrawRequest",
          "name": "request",
          "type": "tuple"
        },
        {
          "internalType": "bytes",
          "name": "signature",
          "type": "bytes"
        }
      ],
      "name": "withdraw",
      "outputs": [
        {
          "internalType": "bool",
          "name": "",
          "type": "bool"
        }
      ],
      "payable": false,
      "stateMutability": "nonpayable",
      "type": "function"
    },
    {
      "constant": false,
      "inputs": [
        {
          "components": [
            {
              "internalType": "address",
              "name": "userAddress",
              "type": "address"
            },
            {
              "internalType": "uint256",
              "name": "amount",
              "type": "uint256"
            },
            {
              "internalType": "string",
              "name": "recipient",
              "type": "string"
            },
            {
              "internalType": "bool",
              "name": "isCrosschain",
              "type": "bool"
            },
            {
              "internalType": "uint256",
              "name": "nonce",
              "type": "uint256"
            }
          ],
          "internalType": "struct LibRequest.WithdrawCrossChainRequest",
          "name": "request",
          "type": "tuple"
        },
        {
          "internalType": "bytes",
          "name": "signature",
          "type": "bytes"
        }
      ],
      "name": "withdrawCrossChain",
      "outputs": [
        {
          "internalType": "bool",
          "name": "",
          "type": "bool"
        }
      ],
      "payable": false,
      "stateMutability": "nonpayable",
      "type": "function"
    },
    {
      "constant": false,
      "inputs": [],
      "name": "requestForceWithdraw",
      "outputs": [
        {
          "internalType": "bool",
          "name": "",
          "type": "bool"
        }
      ],
      "payable": false,
      "stateMutability": "nonpayable",
      "type": "function"
    },
    {
      "constant": false,
      "inputs": [
        {
          "internalType": "address",
          "name": "recipient",
          "type": "address"
        }
      ],
      "name": "forceWithdraw",
      "outputs": [
        {
          "internalType": "bool",
          "name": "",
          "type": "bool"
        }
      ],
      "payable": false,
      "stateMutability": "nonpayable",
      "type": "function"
    },
    {
      "constant": false,
      "inputs": [],
      "name": "Pause",
      "outputs": [],
      "payable": false,
      "stateMutability": "nonpayable",
      "type": "function"
    },
    {
      "constant": false,
      "inputs": [],
      "name": "Resume",
      "outputs": [],
      "payable": false,
      "stateMutability": "nonpayable",
      "type": "function"
    }
  ],
  "bytecode": "0x6080604052600480546001600160a01b031916301790553480156200002357600080fd5b5060405162003dc238038062003dc28339810160408190526200004691620004df565b806200006d6200005e6001600160e01b036200027d16565b6001600160e01b036200028216565b6002556040516200008190602001620007f0565b60408051601f198184030181528282528051602091820120838301835260048085527f4352434c000000000000000000000000000000000000000000000000000000009483019490945282518084018452600381527f312e30000000000000000000000000000000000000000000000000000000000090830152925491516200015d93927f92e0d4302bfe4f52763e6677c92016018a1b7dde3c9b2e015849e403a0f84d06927fe6bbd6277e1bf288eed5e8d1780f9a50b239e86b153736bceebccf4ea79d90b3926002926001600160a01b0316910162000874565b60408051601f1981840301815291905280516020918201206005556006805460ff191690558551620001969160079190880190620003ba565b508351620001ac906008906020870190620003ba565b5060ff8316600955600a80546001600160a01b0319166001600160a01b03841617905560405173866aca87ff33a0ae05d2164b3d999a804f583222906329965a1d903090620001fb90620007e3565b6040519081900381207fffffffff0000000000000000000000000000000000000000000000000000000060e085901b1682526200023e929130906004016200083e565b600060405180830381600087803b1580156200025957600080fd5b505af11580156200026e573d6000803e3d6000fd5b505050505050505050620009c6565b335b90565b6200029d816000620002d460201b62001b421790919060201c565b6040516001600160a01b038216907f22380c05984257a1cb900161c713dd71d39e74820f1aea43bd3f1bdd2096129990600090a250565b620002e982826001600160e01b036200035116565b156200032c576040517f08c379a00000000000000000000000000000000000000000000000000000000081526004016200032390620008ca565b60405180910390fd5b6001600160a01b0316600090815260209190915260409020805460ff19166001179055565b60006001600160a01b03821662000396576040517f08c379a00000000000000000000000000000000000000000000000000000000081526004016200032390620008dc565b506001600160a01b03811660009081526020839052604090205460ff165b92915050565b828054600181600116156101000203166002900490600052602060002090601f016020900481019282601f10620003fd57805160ff19168380011785556200042d565b828001600101855582156200042d579182015b828111156200042d57825182559160200191906001019062000410565b506200043b9291506200043f565b5090565b6200027f91905b808211156200043b576000815560010162000446565b8051620003b48162000996565b600082601f8301126200047b57600080fd5b8151620004926200048c8262000915565b620008ee565b91508082526020830160208301858383011115620004af57600080fd5b620004bc83828462000963565b50505092915050565b8051620003b481620009b0565b8051620003b481620009bb565b600080600080600060a08688031215620004f857600080fd5b85516001600160401b038111156200050f57600080fd5b6200051d8882890162000469565b95505060208601516001600160401b038111156200053a57600080fd5b620005488882890162000469565b94505060406200055b88828901620004d2565b93505060606200056e888289016200045c565b92505060806200058188828901620004c5565b9150509295509295909350565b62000599816200094b565b82525050565b62000599816200027f565b6000620005b9600c8362000946565b7f737472696e67206e616d652c00000000000000000000000000000000000000008152600c0192915050565b6000620005f4601f836200093d565b7f526f6c65733a206163636f756e7420616c72656164792068617320726f6c6500815260200192915050565b60006200062f60198362000946565b7f6164647265737320766572696679696e67436f6e747261637400000000000000815260190192915050565b60006200066a60108362000946565b7f75696e7432353620636861696e49642c00000000000000000000000000000000815260100192915050565b6000620006a560018362000946565b7f2900000000000000000000000000000000000000000000000000000000000000815260010192915050565b6000620006e0600f8362000946565b7f737472696e672076657273696f6e2c00000000000000000000000000000000008152600f0192915050565b60006200071b6022836200093d565b7f526f6c65733a206163636f756e7420697320746865207a65726f20616464726581527f7373000000000000000000000000000000000000000000000000000000000000602082015260400192915050565b60006200077c60158362000946565b7f455243373737546f6b656e73526563697069656e740000000000000000000000815260150192915050565b6000620007b7600d8362000946565b7f454950373132446f6d61696e28000000000000000000000000000000000000008152600d0192915050565b6000620003b4826200076d565b6000620007fd82620007a8565b91506200080a82620005aa565b91506200081782620006d1565b915062000824826200065b565b9150620008318262000620565b9150620003b48262000696565b606081016200084e82866200058e565b6200085d60208301856200059f565b6200086c60408301846200058e565b949350505050565b60a081016200088482886200059f565b6200089360208301876200059f565b620008a260408301866200059f565b620008b160608301856200059f565b620008c060808301846200058e565b9695505050505050565b60208082528101620003b481620005e5565b60208082528101620003b4816200070c565b6040518181016001600160401b03811182821017156200090d57600080fd5b604052919050565b60006001600160401b038211156200092c57600080fd5b506020601f91909101601f19160190565b90815260200190565b919050565b60006001600160a01b038216620003b4565b60ff1690565b60005b838110156200098057818101518382015260200162000966565b8381111562000990576000848401525b50505050565b620009a1816200094b565b8114620009ad57600080fd5b50565b620009a1816200027f565b620009a1816200095d565b6133ec80620009d66000396000f3fe608060405234801561001057600080fd5b506004361061021b5760003560e01c80637b1d294611610125578063c5de069a116100ad578063d94f5b391161007c578063d94f5b3914610449578063da60d27e1461045c578063e306f77914610464578063f7ea7a3d1461046c578063f8c4bbf21461047f5761021b565b8063c5de069a1461041e578063c9ac73c814610426578063d63997901461042e578063d6cd9473146104415761021b565b806394f7cda2116100f457806394f7cda2146103bf5780639844713b146103d2578063a75b5f3f146103e5578063b9815289146103f8578063bb5f747b1461040b5761021b565b80637b1d2946146103735780637c6ecf2814610386578063882f3e161461039957806393634702146103ac5761021b565b80633d30e004116101a8578063560ff94611610177578063560ff9461461032a5780635c975abb1461033d5780636985a0221461034557806370a082311461034d5780637362d9c8146103605761021b565b80633d30e004146102e7578063490d6d11146102fa5780634c5a628c146103025780634ea98d161461030a5761021b565b806323b872dd116101ef57806323b872dd1461027b578063249cb3fa1461029b57806326a4e8d2146102ae578063291d9549146102c15780633af32abf146102d45761021b565b806223de291461022057806310154bad1461023557806310fe9ae81461024857806318160ddd14610266575b600080fd5b61023361022e366004611f79565b610487565b005b610233610243366004611f53565b610554565b610250610587565b60405161025d9190612d24565b60405180910390f35b61026e610596565b60405161025d9190612dae565b61028e61028936600461202e565b61059c565b60405161025d9190612da0565b61026e6102a93660046120f1565b61064c565b61028e6102bc366004611f53565b61067c565b6102336102cf366004611f53565b6106ca565b61028e6102e2366004611f53565b6106fa565b61026e6102f536600461220c565b61070d565b610233610720565b610233610751565b61031d6103183660046120d3565b610761565b60405161025d9190612d91565b61023361033836600461207b565b610812565b61028e610901565b61023361090a565b61026e61035b366004611f53565b610939565b61023361036e366004611f53565b610954565b61026e610381366004611f53565b610984565b61026e61039436600461217b565b6109c9565b61028e6103a7366004611f53565b6109d7565b61028e6103ba366004612121565b610ae6565b61028e6103cd366004612293565b610c03565b61028e6103e03660046120d3565b610d2e565b61028e6103f3366004612240565b610d60565b61028e6104063660046121af565b610f0c565b61028e610419366004611f53565b611087565b61026e611099565b61026e61109f565b61028e61043c3660046120d3565b6110a5565b6102336110ba565b61026e610457366004612275565b6110ca565b61028e6110d8565b61026e6110f1565b61023361047a3660046120d3565b6110f7565b61026e611123565b60065460ff16156104b35760405162461bcd60e51b81526004016104aa90612fbd565b60405180910390fd5b600a546001600160a01b03166104c7611129565b6001600160a01b0316146104ed5760405162461bcd60e51b81526004016104aa906130bd565b6001600160a01b03841630146105155760405162461bcd60e51b81526004016104aa9061305d565b60148201516001600160a01b0381166105405760405162461bcd60e51b81526004016104aa90612f6d565b61054b86828661112d565b50505050505050565b61055f610419611129565b61057b5760405162461bcd60e51b81526004016104aa9061304d565b610584816111d6565b50565b600a546001600160a01b031690565b600c5490565b60006105a96102e2611129565b6105c55760405162461bcd60e51b81526004016104aa9061307d565b60065460ff16156105e85760405162461bcd60e51b81526004016104aa90612fbd565b6001600160a01b03841661060e5760405162461bcd60e51b81526004016104aa90612fad565b6001600160a01b0383166106345760405162461bcd60e51b81526004016104aa90612fed565b61063f84848461121e565b50600190505b9392505050565b600060405160200161065d90612d19565b6040516020818303038152906040528051906020012090505b92915050565b6000610689610419611129565b6106a55760405162461bcd60e51b81526004016104aa9061304d565b50600a80546001600160a01b0383166001600160a01b03199091161790556001919050565b6106d5610419611129565b6106f15760405162461bcd60e51b81526004016104aa9061304d565b61058481611380565b600061067660018363ffffffff6113c816565b600061067661071b83611410565b6114c2565b61072b610419611129565b6107475760405162461bcd60e51b81526004016104aa9061304d565b61074f6114e7565b565b61074f61075c611129565b611553565b610769611c44565b600f54821061078a5760405162461bcd60e51b81526004016104aa90612efd565b610792611c44565b600f546000906107b2906107ad86606463ffffffff61159b16565b6115c0565b9050835b8181101561080957600f81815481106107cb57fe5b6000918252602090912001546001600160a01b031683868303606481106107ee57fe5b6001600160a01b0390921660209290920201526001016107b6565b50909392505050565b61081d610419611129565b6108395760405162461bcd60e51b81526004016104aa9061304d565b6001600160a01b03821661085f5760405162461bcd60e51b81526004016104aa906130ad565b6001600160a01b0382166000908152600e602052604090205460ff166108e5576001600160a01b0382166000818152600e60205260408120805460ff19166001908117909155600f805491820181559091527f8d1108e10bcb7c27dddfc02ed9d693a074039d026cf4ea4240b40f7d581ac8020180546001600160a01b03191690911790555b6001600160a01b039091166000908152600b6020526040902055565b60065460ff1690565b610915610419611129565b6109315760405162461bcd60e51b81526004016104aa9061304d565b61074f6115d8565b6001600160a01b03166000908152600b602052604090205490565b61095f610419611129565b61097b5760405162461bcd60e51b81526004016104aa9061304d565b61058481611631565b6000610991610419611129565b6109ad5760405162461bcd60e51b81526004016104aa9061304d565b506001600160a01b031660009081526003602052604090205490565b600061067661071b83611679565b6000600360006109e5611129565b6001600160a01b03168152602081019190915260400160002054610a1b5760405162461bcd60e51b81526004016104aa9061308d565b610a5360025460036000610a2d611129565b6001600160a01b031681526020810191909152604001600020549063ffffffff61159b16565b421015610a725760405162461bcd60e51b81526004016104aa906130cd565b610ab0610a7d611129565b83600b6000610a8a611129565b6001600160a01b03166001600160a01b031681526020019081526020016000205461172e565b610acc5760405162461bcd60e51b81526004016104aa90612f4d565b610ade610ad7611129565b600061181e565b506001919050565b60006001600160a01b038316610b0e5760405162461bcd60e51b81526004016104aa90612ffd565b8151604114610b2f5760405162461bcd60e51b81526004016104aa90612eed565b600082604081518110610b3e57fe5b016020015160f81c9050601b811480610b5a57508060ff16601c145b610b765760405162461bcd60e51b81526004016104aa9061306d565b6000610b83846000611875565b90506000610b92856020611875565b905060018784848460405160008152602001604052604051610bb79493929190612e97565b6020604051602081039080840390855afa158015610bd9573d6000803e3d6000fd5b505050602060405103516001600160a01b0316866001600160a01b03161493505050509392505050565b6000610c10610419611129565b610c2c5760405162461bcd60e51b81526004016104aa9061304d565b60065460ff1615610c4f5760405162461bcd60e51b81526004016104aa90612fbd565b6000610c5a846110ca565b9050610c6b81856000015185610ae6565b610c875760405162461bcd60e51b81526004016104aa90612f8d565b6000818152600d602052604090205460ff1615610cb65760405162461bcd60e51b81526004016104aa90612fcd565b6000818152600d60205260409020805460ff19166001179055606084015115610cf15760405162461bcd60e51b81526004016104aa906130fd565b610d0884600001518560400151866020015161172e565b610d245760405162461bcd60e51b81526004016104aa906130dd565b5060019392505050565b6000610d3b610419611129565b610d575760405162461bcd60e51b81526004016104aa9061304d565b50600255600190565b6000610d6d610419611129565b610d895760405162461bcd60e51b81526004016104aa9061304d565b60065460ff1615610dac5760405162461bcd60e51b81526004016104aa90612fbd565b6000610db78461070d565b9050610dc881856000015185610ae6565b610de45760405162461bcd60e51b81526004016104aa90612f8d565b6000818152600d602052604090205460ff1615610e135760405162461bcd60e51b81526004016104aa90612fcd565b6000818152600d60205260409020805460ff191660011790556060840151610e4d5760405162461bcd60e51b81526004016104aa90612fdd565b600a5484516020860151604080880151905163057d5c3760e21b81526001600160a01b03909416936315f570dc93610e8b9390929091600401612d5b565b602060405180830381600087803b158015610ea557600080fd5b505af1158015610eb9573d6000803e3d6000fd5b505050506040513d601f19601f82011682018060405250610edd91908101906120b5565b50610ef0846000015185602001516118a4565b610d245760405162461bcd60e51b81526004016104aa90612f2d565b6000610f19610419611129565b610f355760405162461bcd60e51b81526004016104aa9061304d565b60065460ff1615610f585760405162461bcd60e51b81526004016104aa90612fbd565b82516001600160a01b0316610f7f5760405162461bcd60e51b81526004016104aa906130ed565b82604001515183602001515114610fa85760405162461bcd60e51b81526004016104aa90612f9d565b6000610fb3846109c9565b9050610fc481856000015185610ae6565b610fe05760405162461bcd60e51b81526004016104aa90612f3d565b6000818152600d602052604090205460ff161561100f5760405162461bcd60e51b81526004016104aa90612fcd565b6000818152600d60205260408120805460ff191660011790555b84604001515181101561107c5761107385600001518660400151838151811061104e57fe5b60200260200101518760200151848151811061106657fe5b602002602001015161121e565b50600101611029565b506001949350505050565b6000610676818363ffffffff6113c816565b60025481565b60025490565b600d6020526000908152604090205460ff1681565b61074f6110c5611129565b611380565b600061067661071b8361198d565b60006110eb6110e5611129565b4261181e565b50600190565b60055481565b611102610419611129565b61111e5760405162461bcd60e51b81526004016104aa9061304d565b600c55565b600f5490565b3390565b6001600160a01b0382166111535760405162461bcd60e51b81526004016104aa90612edd565b6001600160a01b03831630141561117c5760405162461bcd60e51b81526004016104aa90612f7d565b61118682826119fc565b816001600160a01b0316836001600160a01b03167f5548c837ab068cf56a2c2479df0882a4922fd203edb7517321831d95078c5f62836040516111c99190612dae565b60405180910390a3505050565b6111e760018263ffffffff611b4216565b6040516001600160a01b038216907fee1504a83b6d4a361f4c1dc78ab59bfa30d6a3b6612c403e86bb01ef2984295f90600090a250565b6001600160a01b0382166000908152600e602052604081205460ff166112a4576001600160a01b0383166000818152600e60205260408120805460ff19166001908117909155600f805491820181559091527f8d1108e10bcb7c27dddfc02ed9d693a074039d026cf4ea4240b40f7d581ac8020180546001600160a01b03191690911790555b6112e7826040518060600160405280602c815260200161337e602c91396001600160a01b0387166000908152600b6020526040902054919063ffffffff611b8e16565b6001600160a01b038086166000908152600b6020526040808220939093559085168152205461131c908363ffffffff61159b16565b6001600160a01b038085166000818152600b602052604090819020939093559151908616907fddf252ad1be2c89b69c2b068fc378daa952ba7f163c4a11628f55a4df523b3ef9061136e908690612dae565b60405180910390a35060019392505050565b61139160018263ffffffff611bba16565b6040516001600160a01b038216907f270d9b30cf5b0793bbfd54c9d5b94aeb49462b8148399000265144a8722da6b690600090a250565b60006001600160a01b0382166113f05760405162461bcd60e51b81526004016104aa9061303d565b506001600160a01b03166000908152602091909152604090205460ff1690565b60006040518060a001604052806064815260200161323b6064913960405160200161143b9190612d0d565b604051602081830303815290604052805190602001208260000151836020015184604001516040516020016114709190612d0d565b60405160208183030381529060405280519060200120856060015186608001516040516020016114a596959493929190612e62565b604051602081830303815290604052805190602001209050919050565b60055460405161190160f01b8152600281019190915260228101919091526042902090565b60065460ff166115095760405162461bcd60e51b81526004016104aa90612f0d565b6006805460ff191690557f5db9ee0a495bf2e6ff9c91a7834c1ba4fdd244a5e8aa4e537bd38aeae4b073aa61153c611129565b6040516115499190612d32565b60405180910390a1565b61156460008263ffffffff611bba16565b6040516001600160a01b038216907f0a8eb35e5ca14b3d6f28e4abf2f128dbab231a58b56e89beb5d636115001e16590600090a250565b6000828201838110156106455760405162461bcd60e51b81526004016104aa90612f5d565b6000818311156115d1575080610676565b5090919050565b60065460ff16156115fb5760405162461bcd60e51b81526004016104aa90612fbd565b6006805460ff191660011790557f62e78cea01bee320cd4e420270b5ea74000d11b0c9f74754ebdbfc544b05a25861153c611129565b61164260008263ffffffff611b4216565b6040516001600160a01b038216907f22380c05984257a1cb900161c713dd71d39e74820f1aea43bd3f1bdd2096129990600090a250565b600060405180608001604052806059815260200161329f605991396040516020016116a49190612d0d565b60405160208183030381529060405280519060200120826000015183602001516040516020016116d49190612d01565b6040516020818303038152906040528051906020012084604001516040516020016116ff9190612cf5565b6040516020818303038152906040528051906020012085606001516040516020016114a5959493929190612dbc565b600061173a84836118a4565b6117565760405162461bcd60e51b81526004016104aa90612f2d565b600a5460405163a9059cbb60e01b81526001600160a01b039091169063a9059cbb906117889086908690600401612d40565b602060405180830381600087803b1580156117a257600080fd5b505af11580156117b6573d6000803e3d6000fd5b505050506040513d601f19601f820116820180604052506117da91908101906120b5565b50826001600160a01b0316846001600160a01b03167f9b1bfa7fa9ee420a16e124f794c35ac9f90472acc99140eb2f6447c714cad8eb8460405161136e9190612dae565b6001600160a01b03821660008181526003602052604090819020839055517f0ebe7b96b8d0566030cee68cd5153d3af3eb238d56092c9493a18e6d0b56836990611869908490612dae565b60405180910390a25050565b6000816020018351101561189b5760405162461bcd60e51b81526004016104aa9061302d565b50016020015190565b60006001600160a01b0383166118cc5760405162461bcd60e51b81526004016104aa9061301d565b61190f8260405180606001604052806021815260200161335d602191396001600160a01b0386166000908152600b6020526040902054919063ffffffff611b8e16565b6001600160a01b0384166000908152600b6020526040902055600c5461193b908363ffffffff611c0216565b600c556040516000906001600160a01b038516907fddf252ad1be2c89b69c2b068fc378daa952ba7f163c4a11628f55a4df523b3ef9061197c908690612dae565b60405180910390a350600192915050565b60006040518060a00160405280606581526020016132f8606591396040516020016119b89190612d0d565b60405160208183030381529060405280519060200120826000015183602001518460400151856060015186608001516040516020016114a596959493929190612e08565b6001600160a01b038216611a225760405162461bcd60e51b81526004016104aa9061309d565b6001600160a01b0382166000908152600e602052604090205460ff16611aa8576001600160a01b0382166000818152600e60205260408120805460ff19166001908117909155600f805491820181559091527f8d1108e10bcb7c27dddfc02ed9d693a074039d026cf4ea4240b40f7d581ac8020180546001600160a01b03191690911790555b600c54611abb908263ffffffff61159b16565b600c556001600160a01b0382166000908152600b6020526040902054611ae7908263ffffffff61159b16565b6001600160a01b0383166000818152600b60205260408082209390935591519091907fddf252ad1be2c89b69c2b068fc378daa952ba7f163c4a11628f55a4df523b3ef90611b36908590612dae565b60405180910390a35050565b611b4c82826113c8565b15611b695760405162461bcd60e51b81526004016104aa90612f1d565b6001600160a01b0316600090815260209190915260409020805460ff19166001179055565b60008184841115611bb25760405162461bcd60e51b81526004016104aa9190612ecc565b505050900390565b611bc482826113c8565b611be05760405162461bcd60e51b81526004016104aa9061300d565b6001600160a01b0316600090815260209190915260409020805460ff19169055565b600061064583836040518060400160405280601e81526020017f536166654d6174683a207375627472616374696f6e206f766572666c6f770000815250611b8e565b60405180610c8001604052806064906020820280388339509192915050565b803561067681613214565b600082601f830112611c7f57600080fd5b8135611c92611c8d82613133565b61310d565b91508181835260208401935060208101905083856020840282011115611cb757600080fd5b60005b83811015611ce35781611ccd8882611c63565b8452506020928301929190910190600101611cba565b5050505092915050565b600082601f830112611cfe57600080fd5b8135611d0c611c8d82613133565b91508181835260208401935060208101905083856020840282011115611d3157600080fd5b60005b83811015611ce35781611d478882611d73565b8452506020928301929190910190600101611d34565b803561067681613228565b805161067681613228565b803561067681613231565b600082601f830112611d8f57600080fd5b8135611d9d611c8d82613153565b91508082526020830160208301858383011115611db957600080fd5b611dc48382846131ce565b50505092915050565b600060808284031215611ddf57600080fd5b611de9608061310d565b90506000611df78484611c63565b82525060208201356001600160401b03811115611e1357600080fd5b611e1f84828501611ced565b60208301525060408201356001600160401b03811115611e3e57600080fd5b611e4a84828501611c6e565b6040830152506060611e5e84828501611d73565b60608301525092915050565b600060a08284031215611e7c57600080fd5b611e8660a061310d565b90506000611e948484611c63565b8252506020611ea584848301611d73565b60208301525060408201356001600160401b03811115611ec457600080fd5b611ed084828501611d7e565b6040830152506060611ee484828501611d5d565b6060830152506080611ef884828501611d73565b60808301525092915050565b600060a08284031215611f1657600080fd5b611f2060a061310d565b90506000611f2e8484611c63565b8252506020611f3f84848301611d73565b6020830152506040611ed084828501611c63565b600060208284031215611f6557600080fd5b6000611f718484611c63565b949350505050565b60008060008060008060c08789031215611f9257600080fd5b6000611f9e8989611c63565b9650506020611faf89828a01611c63565b9550506040611fc089828a01611c63565b9450506060611fd189828a01611d73565b93505060808701356001600160401b03811115611fed57600080fd5b611ff989828a01611d7e565b92505060a08701356001600160401b0381111561201557600080fd5b61202189828a01611d7e565b9150509295509295509295565b60008060006060848603121561204357600080fd5b600061204f8686611c63565b935050602061206086828701611c63565b925050604061207186828701611d73565b9150509250925092565b6000806040838503121561208e57600080fd5b600061209a8585611c63565b92505060206120ab85828601611d73565b9150509250929050565b6000602082840312156120c757600080fd5b6000611f718484611d68565b6000602082840312156120e557600080fd5b6000611f718484611d73565b6000806040838503121561210457600080fd5b60006121108585611d73565b92505060206120ab85828601611c63565b60008060006060848603121561213657600080fd5b60006121428686611d73565b935050602061215386828701611c63565b92505060408401356001600160401b0381111561216f57600080fd5b61207186828701611d7e565b60006020828403121561218d57600080fd5b81356001600160401b038111156121a357600080fd5b611f7184828501611dcd565b600080604083850312156121c257600080fd5b82356001600160401b038111156121d857600080fd5b6121e485828601611dcd565b92505060208301356001600160401b0381111561220057600080fd5b6120ab85828601611d7e565b60006020828403121561221e57600080fd5b81356001600160401b0381111561223457600080fd5b611f7184828501611e6a565b6000806040838503121561225357600080fd5b82356001600160401b0381111561226957600080fd5b6121e485828601611e6a565b600060a0828403121561228757600080fd5b6000611f718484611f04565b60008060c083850312156122a657600080fd5b60006122b28585611f04565b92505060a08301356001600160401b0381111561220057600080fd5b60006122da83836122fd565b505060200190565b60006122da838361240a565b6122f7816131bd565b82525050565b6122f78161319b565b61230f81613183565b612319818461318d565b92506123248261317a565b8060005b8381101561235257815161233c87826122ce565b96506123478361317d565b925050600101612328565b505050505050565b600061236582613189565b61236f818561318d565b935061237a8361317d565b8060005b838110156123a857815161239288826122ce565b975061239d8361317d565b92505060010161237e565b509495945050505050565b60006123be82613189565b6123c8818561318d565b93506123d38361317d565b8060005b838110156123a85781516123eb88826122e2565b97506123f68361317d565b9250506001016123d7565b6122f7816131a6565b6122f78161317a565b600061241e82613189565b6124288185613192565b93506124388185602086016131da565b6124418161320a565b9093019392505050565b600061245682613189565b612460818561318d565b93506124708185602086016131da565b9290920192915050565b6000612487602183613192565b7f4352434c3a206465706f73697420746f20746865207a65726f206164647265738152607360f81b602082015260400192915050565b60006124ca601983613192565b7f57726f6e67206c656e677468206f66207369676e617475726500000000000000815260200192915050565b6000612503601e83613192565b7f4352434c3a206163636f756e744c697374206f7574206f662072616e67650000815260200192915050565b600061253c601483613192565b7314185d5cd8589b194e881b9bdd081c185d5cd95960621b815260200192915050565b600061256c601f83613192565b7f526f6c65733a206163636f756e7420616c72656164792068617320726f6c6500815260200192915050565b60006125a5602a83613192565b7f4352434c3a20776974686472617720616d6f756e742065786365656473204352815269434c2062616c616e636560b01b602082015260400192915050565b60006125f1602083613192565b7f4352434c3a20494e56414c49445f5452414e534645525f5349474e4154555245815260200192915050565b600061262a601a83613192565b7f4352434c3a20666f726365207769746864726177206572726f72000000000000815260200192915050565b6000612663601b83613192565b7f536166654d6174683a206164646974696f6e206f766572666c6f770000000000815260200192915050565b600061269c601d83613192565b7f4352434c3a206465706f73697420746f205a65726f2041646472657373000000815260200192915050565b60006126d5602383613192565b7f4352434c3a206465706f7369742066726f6d20746865204352434c206164647281526265737360e81b602082015260400192915050565b600061271a601a83613192565b7f494e56414c49445f57495448445241575f5349474e4154555245000000000000815260200192915050565b6000612753601c83613192565b7f4352434c3a20616d6f756e74206c656e677468206d69736d6174636800000000815260200192915050565b600061278c602483613192565b7f4352434c3a207472616e736665722066726f6d20746865207a65726f206164648152637265737360e01b602082015260400192915050565b60006127d2601083613192565b6f14185d5cd8589b194e881c185d5cd95960821b815260200192915050565b60006127fe602b83613192565b7f4352434c3a2074686520726571756573742068617320616c726561647920626581526a195b88195e1958dd5d195960aa1b602082015260400192915050565b600061284b601a83613192565b7f4352434c3a2073686f756c642063616c6c207769746864726177000000000000815260200192915050565b6000612884602283613192565b7f4352434c3a207472616e7366657220746f20746865207a65726f206164647265815261737360f01b602082015260400192915050565b60006128c8601483613192565b7357726f6e67207369676e6572206164647265737360601b815260200192915050565b60006128f8602183613192565b7f526f6c65733a206163636f756e7420646f6573206e6f74206861766520726f6c8152606560f81b602082015260400192915050565b600061293b602083613192565b7f4352434c3a206275726e2066726f6d20746865207a65726f2061646472657373815260200192915050565b6000612974600c83613192565b6b0aee4dedcce40d8cadccee8d60a31b815260200192915050565b600061299c602283613192565b7f526f6c65733a206163636f756e7420697320746865207a65726f206164647265815261737360f01b602082015260400192915050565b60006129e0604083613192565b7f57686974656c69737441646d696e526f6c653a2063616c6c657220646f65732081527f6e6f742068617665207468652057686974656c69737441646d696e20726f6c65602082015260400192915050565b6000612a3f60148361318d565b73455243313832305f4143434550545f4d4147494360601b815260140192915050565b6000612a6f601983613192565b7f4352434c3a206465706f736974206e6f7420746f204352434c00000000000000815260200192915050565b6000612aa8600783613192565b662bb937b733902b60c91b815260200192915050565b6000612acb603a83613192565b7f57686974656c6973746564526f6c653a2063616c6c657220646f6573206e6f7481527f2068617665207468652057686974656c697374656420726f6c65000000000000602082015260400192915050565b6000612b2a601c83613192565b7f464f5243455f57495448445241575f4e4f545f52455155455354454400000000815260200192915050565b6000612b63601e83613192565b7f4352434c3a206d696e7420746f20746865207a65726f20616464726573730000815260200192915050565b6000612b9c602383613192565b7f4352434c3a204d6967726174696f6e20746f20746865207a65726f206164647281526265737360e81b602082015260400192915050565b6000612be1601c83613192565b7f4352434c3a206465706f736974206e6f7420617574686f72697a656400000000815260200192915050565b6000612c1a601483613192565b7354494d455f4c4f434b5f494e434f4d504c45544560601b815260200192915050565b6000612c4a601483613192565b7321a921a61d103bb4ba34323930bb9032b93937b960611b815260200192915050565b6000612c7a601f83613192565b7f4352434c3a207472616e7366657220666f72207a65726f206164647265737300815260200192915050565b6000612cb3602483613192565b7f4352434c3a2073686f756c642063616c6c20776974686472617743726f7373438152633430b4b760e11b602082015260400192915050565b6122f7816131b7565b6000610645828461235a565b600061064582846123b3565b6000610645828461244b565b600061067682612a32565b6020810161067682846122fd565b6020810161067682846122ee565b60408101612d4e82856122fd565b610645602083018461240a565b60608101612d6982866122fd565b612d76602083018561240a565b8181036040830152612d888184612413565b95945050505050565b610c8081016106768284612306565b602081016106768284612401565b60208101610676828461240a565b60a08101612dca828861240a565b612dd760208301876122fd565b612de4604083018661240a565b612df1606083018561240a565b612dfe608083018461240a565b9695505050505050565b60c08101612e16828961240a565b612e2360208301886122fd565b612e30604083018761240a565b612e3d60608301866122fd565b612e4a6080830185612401565b612e5760a083018461240a565b979650505050505050565b60c08101612e70828961240a565b612e7d60208301886122fd565b612e8a604083018761240a565b612e3d606083018661240a565b60808101612ea5828761240a565b612eb26020830186612cec565b612ebf604083018561240a565b612d88606083018461240a565b602080825281016106458184612413565b602080825281016106768161247a565b60208082528101610676816124bd565b60208082528101610676816124f6565b602080825281016106768161252f565b602080825281016106768161255f565b6020808252810161067681612598565b60208082528101610676816125e4565b602080825281016106768161261d565b6020808252810161067681612656565b602080825281016106768161268f565b60208082528101610676816126c8565b602080825281016106768161270d565b6020808252810161067681612746565b602080825281016106768161277f565b60208082528101610676816127c5565b60208082528101610676816127f1565b602080825281016106768161283e565b6020808252810161067681612877565b60208082528101610676816128bb565b60208082528101610676816128eb565b602080825281016106768161292e565b6020808252810161067681612967565b602080825281016106768161298f565b60208082528101610676816129d3565b6020808252810161067681612a62565b6020808252810161067681612a9b565b6020808252810161067681612abe565b6020808252810161067681612b1d565b6020808252810161067681612b56565b6020808252810161067681612b8f565b6020808252810161067681612bd4565b6020808252810161067681612c0d565b6020808252810161067681612c3d565b6020808252810161067681612c6d565b6020808252810161067681612ca6565b6040518181016001600160401b038111828210171561312b57600080fd5b604052919050565b60006001600160401b0382111561314957600080fd5b5060209081020190565b60006001600160401b0382111561316957600080fd5b506020601f91909101601f19160190565b90565b60200190565b50606490565b5190565b919050565b90815260200190565b6000610676826131ab565b151590565b6001600160a01b031690565b60ff1690565b60006106768260006106768261319b565b82818337506000910152565b60005b838110156131f55781810151838201526020016131dd565b83811115613204576000848401525b50505050565b601f01601f191690565b61321d8161319b565b811461058457600080fd5b61321d816131a6565b61321d8161317a56fe57697468647261775265717565737428616464726573732075736572416464726573732c75696e7432353620616d6f756e742c737472696e6720726563697069656e742c626f6f6c20697343726f7373636861696e2c75696e74323536206e6f6e6365295472616e736665725265717565737428616464726573732075736572416464726573732c75696e743235365b5d20616d6f756e74732c616464726573735b5d20726563697069656e74732c75696e74323536206e6f6e63652957697468647261775265717565737428616464726573732075736572416464726573732c75696e7432353620616d6f756e742c6164647265737320726563697069656e742c626f6f6c20697343726f7373636861696e2c75696e74323536206e6f6e6365294352434c3a206275726e20616d6f756e7420657863656564732062616c616e63654352434c3a207472616e7366657220616d6f756e742065786365656473206c6f636b65642062616c616e6365a365627a7a72315820f525629b4ced4a136f028464292de06b86886d5c0ce628a20b7335d0dc5254376c6578706572696d656e74616cf564736f6c634300050b0040",
  "source": "pragma solidity ^0.5.5;\r\npragma experimental ABIEncoderV2;\r\n\r\nimport \"./ICRCL.sol\";\r\nimport \"./TimeLock.sol\";\r\nimport \"../boomflow/access/roles/WhitelistAdminRole.sol\";\r\nimport \"../boomflow/access/roles/WhitelistedRole.sol\";\r\nimport \"../ERC777/libs/IERC20.sol\";\r\nimport \"../ERC777/libs/IERC777Recipient.sol\";\r\nimport \"./libs/IERC1820Registry.sol\";\r\n\r\nimport \"../ERC1820/ERC1820ImplementerInterface.sol\";\r\nimport \"../ERC777/ERC777TokenBase.sol\";\r\n\r\nimport \"./libs/LibEIP712.sol\";\r\nimport \"./libs/LibRequest.sol\";\r\nimport \"../boomflow/libs/LibSignatureValidator.sol\";\r\n\r\ncontract CRCL is ICRCL, WhitelistAdminRole, WhitelistedRole, TimeLock, IERC777Recipient, ERC1820ImplementerInterface, LibSignatureValidator, LibRequest, Pausable {\r\n    using SafeMath for uint256;\r\n\r\n    string _name;\r\n    string _symbol;\r\n    uint256 _decimals;\r\n\r\n    address _tokenAddr;\r\n\r\n    mapping (address => uint256) private _balances;\r\n\r\n    uint256 private _totalSupply;\r\n\r\n    mapping (bytes32 => bool) public recorded;\r\n\r\n    //0xbBF289D846208c16EDc8474705C748aff07732dB\r\n    //0xcD07F29f90603c9D9b9Bf8c7cc2B6250B6ac7E3E\r\n    IERC1820Registry constant private ERC1820_REGISTRY = IERC1820Registry(address(0x866aCA87FF33a0ae05D2164B3D999A804F583222));\r\n\r\n    mapping (address => bool) private _accountCheck;\r\n    address[] private _accountList;\r\n\r\n    constructor (string memory name, string memory symbol, uint8 decimals, address tokenAddr, uint256 deferTime)\r\n        TimeLock(deferTime) public {\r\n        _name = name;\r\n        _symbol = symbol;\r\n        _decimals = decimals;\r\n        _tokenAddr = tokenAddr;\r\n\r\n        ERC1820_REGISTRY.setInterfaceImplementer(address(this), keccak256(\"ERC777TokensRecipient\"), address(this));\r\n    }\r\n\r\n    function canImplementInterfaceForAddress(bytes32, address) external view returns(bytes32) {\r\n        return ERC1820_ACCEPT_MAGIC;\r\n    }\r\n\r\n    function totalSupply() public view returns (uint256) {\r\n        return _totalSupply;\r\n    }\r\n\r\n    function balanceOf(address account) public view returns (uint256) {\r\n        return _balances[account];\r\n    }\r\n\r\n    function getTokenAddress() public view returns (address) {\r\n        return _tokenAddr;\r\n    }\r\n\r\n    function setTokenAddress(address tokenAddr) public onlyWhitelistAdmin returns (bool) {\r\n        _tokenAddr = tokenAddr;\r\n        return true;\r\n    }\r\n\r\n    //----------------- Data Migration -----------------\r\n    function accountTotal() public view returns (uint256) {\r\n        return _accountList.length;\r\n    }\r\n\r\n    function accountList(uint256 begin) public view returns (address[100] memory) {\r\n        require(begin >= 0 && begin < _accountList.length, \"CRCL: accountList out of range\");\r\n        address[100] memory res;\r\n        uint256 range = _min(_accountList.length, begin.add(100));\r\n        for (uint256 i = begin; i < range; i++) {\r\n            res[i-begin] = _accountList[i];\r\n        }\r\n        return res;\r\n    }\r\n\r\n    function setStateOf(address account, uint256 balance) public onlyWhitelistAdmin {\r\n        require(account != address(0), \"CRCL: Migration to the zero address\");\r\n\r\n        if (!_accountCheck[account]) {\r\n            _accountCheck[account] = true;\r\n            _accountList.push(account);\r\n        }\r\n\r\n        _balances[account] = balance;\r\n    }\r\n\r\n    function setTotalSupply(uint256 total) public onlyWhitelistAdmin {\r\n        _totalSupply = total;\r\n    }\r\n\r\n    //----------------- End Data Migration -----------------\r\n\r\n    /**\r\n     * Transfer the amount of token from sender to recipient.\r\n     * Only WhitelistedRoles (WhitelistAdmin, Boomflow) have the access permission.\r\n     * Emits an {Transfer} event indicating the amount transferred.\r\n     *\r\n     * Requirements:\r\n     * - `sender` and `recipient` cannot be the zero address.\r\n     * - `sender` must have a balance of at least `amount`.\r\n     */\r\n    function transferFrom(address sender, address recipient, uint256 amount) public onlyWhitelisted whenNotPaused returns (bool) {\r\n        require(sender != address(0), \"CRCL: transfer from the zero address\");\r\n        require(recipient != address(0), \"CRCL: transfer to the zero address\");\r\n\r\n        _transfer(sender, recipient, amount);\r\n\r\n        return true;\r\n    }\r\n\r\n    /**\r\n     * Transfer tokens from one sender to a list of recipients according to a list of amounts.\r\n     * Only WhitelistAdmin have the access permission.\r\n     * Emits an {Transfer} event indicating the amount transferred.\r\n     *\r\n     * Requirements:\r\n     * - `request.userAddress` cannot be zero address.\r\n     * - `request.amounts` and `request.recipients` must have the same length.\r\n     */\r\n    function transferFor(TransferRequest memory request, bytes memory signature) public onlyWhitelistAdmin whenNotPaused returns (bool) {\r\n        require(request.userAddress != address(0), \"CRCL: transfer for zero address\");\r\n        require(request.amounts.length == request.recipients.length, \"CRCL: amount length mismatch\");\r\n\r\n        bytes32 requestHash = getTransferRequestHash(request);\r\n        require(isValidSignature(requestHash,request.userAddress,signature), \"CRCL: INVALID_TRANSFER_SIGNATURE\");\r\n\r\n        require(!recorded[requestHash], \"CRCL: the request has already been executed\");\r\n        recorded[requestHash] = true;\r\n\r\n        for(uint i = 0; i < request.recipients.length; i++){\r\n            _transfer(request.userAddress, request.recipients[i], request.amounts[i]);\r\n        }\r\n\r\n        return true;\r\n    }\r\n\r\n    // Implement ERC777Recipient interface\r\n    function tokensReceived(\r\n        address,\r\n        address from,\r\n        address to,\r\n        uint256 amount,\r\n        bytes memory userData,\r\n        bytes memory\r\n    )\r\n        public\r\n        whenNotPaused\r\n    {\r\n        require(_msgSender() == _tokenAddr, \"CRCL: deposit not authorized\");\r\n        require(to == address(this), \"CRCL: deposit not to CRCL\");\r\n\r\n        // Recover the recipient address\r\n        address addr = address(0);\r\n        assembly {\r\n            addr := mload(add(userData,20))\r\n        }\r\n        require(addr != address(0), \"CRCL: deposit to Zero Address\");\r\n\r\n        _deposit(from, addr, amount);\r\n    }\r\n\r\n    /**\r\n     * Withdraw the amount of token from sender's CRCL to recipient's ERC777 asset.\r\n     * Only WhitelistAdmin (DEX) have the access permission.\r\n     * The function will atomically perform the following operations:\r\n     *\r\n     *      1. Validate the user signature\r\n     *      2. Burn `request.amount` of CRCL token from `request.userAddress`\r\n     *      3. Transfer equal amount of ERC777 token from the contract address to `request.recipient`\r\n     *\r\n     * The ERC777 token emits a {Transfer} event indicating the amount transferred.\r\n     * The CRCL token emits a {Withdraw} event indicating the amount withdrawn.\r\n     *\r\n     * Requirements:\r\n     * - The request hash has to be unique.\r\n     * - The `request.isCrosschain` is False.\r\n     */\r\n    function withdraw(WithdrawRequest memory request, bytes memory signature) public onlyWhitelistAdmin whenNotPaused returns (bool) {\r\n        // Validate the user signature\r\n        bytes32 requestHash = getRequestHash(request);\r\n        require(isValidSignature(requestHash,request.userAddress,signature), \"INVALID_WITHDRAW_SIGNATURE\");\r\n\r\n        // Record the hash if not seen already to defend against replay attack\r\n        require(!recorded[requestHash], \"CRCL: the request has already been executed\");\r\n        recorded[requestHash] = true;\r\n\r\n        // The request should mean for withdraw within Conflux chain\r\n        require(!request.isCrosschain, \"CRCL: should call withdrawCrossChain\");\r\n\r\n        // Withdraw the `request.amount` of CRCL\r\n        require(_withdraw(request.userAddress, request.recipient, request.amount), \"CRCL: withdraw error\");\r\n        return true;\r\n    }\r\n\r\n    /**\r\n     * Withdraw the amount of token from sender's CRCL to recipient's crosschain asset.\r\n     * Only WhitelistAdmin (DEX) have the access permission.\r\n     * The function will atomically perform the following operations:\r\n     *\r\n     *      1. Validate the user signature\r\n     *      2. Burn `request.amount` of CRCL token from `request.userAddress`\r\n     *      3. Burn equal amount of ERC777 token from the contract address\r\n     *\r\n     * Note that For the full-fledged crosschain withdraw, we are depending\r\n     * on Custodian counterparts to perform the actual crosschain operations\r\n     *\r\n     * The ERC777 token emits a {Burned} event indicating the amount withdrawn.\r\n     * The CRCL token emits a {Transfer} to null address event indicating the amount withdrawn.\r\n     *\r\n     * Requirements:\r\n     * - The request hash has to be unique.\r\n     * - The `request.isCrosschain` is True.\r\n     */\r\n    function withdrawCrossChain(WithdrawCrossChainRequest memory request, bytes memory signature) public onlyWhitelistAdmin whenNotPaused returns (bool) {\r\n        // Validate the user signature\r\n        bytes32 requestHash = getWithdrawCrossChainRequestHash(request);\r\n        require(isValidSignature(requestHash,request.userAddress,signature), \"INVALID_WITHDRAW_SIGNATURE\");\r\n\r\n        // Record the hash if not seen already to defend against replay attack\r\n        require(!recorded[requestHash], \"CRCL: the request has already been executed\");\r\n        recorded[requestHash] = true;\r\n\r\n        // The request should mean for withdraw within Conflux chain\r\n        require(request.isCrosschain, \"CRCL: should call withdraw\");\r\n\r\n        // Burn the `request.amount` of ERC777 from the current CRCL address\r\n        TokenBase(_tokenAddr).burn(request.userAddress, request.amount, request.recipient);\r\n\r\n        // Burn the `request.amount` of CRCL from the `request.userAddress`\r\n        require(_burn(request.userAddress, request.amount), \"CRCL: withdraw amount exceeds CRCL balance\");\r\n\r\n        return true;\r\n    }\r\n\r\n    /**\r\n     * Request for a force withdraw of all sender's CRCL token.\r\n     * The function acknowledges the request and records the request time.\r\n     *\r\n     * Emits a {ScheduleWithdraw} event indicating the withdraw has been scheduled.\r\n     */\r\n    function requestForceWithdraw() public returns (bool) {\r\n        setScheduleTime(_msgSender(), block.timestamp);\r\n        return true;\r\n    }\r\n\r\n    /**\r\n     * Force withdraw all msg.sender's CRCL token to recipient's ERC20 token.\r\n     * The function acknowledges the request and records the request time.\r\n     *\r\n     * Emits a {Withdraw} event indicating the amount withdrawn.\r\n     */\r\n    function forceWithdraw(address recipient) public withdrawRequested pastTimeLock returns (bool) {\r\n        require(_withdraw(_msgSender(), recipient, _balances[_msgSender()]), \"CRCL: force withdraw error\");\r\n\r\n        setScheduleTime(_msgSender(), 0);\r\n\r\n        return true;\r\n    }\r\n\r\n    /**\r\n     * Pause the majority of functionalities of CRCL.\r\n     * Only WhitelistAdmin (DEX) have the access permission.\r\n     *\r\n     * Note that `requestForceWithdraw` and `forceWithdraw` is not subject to pause\r\n     */\r\n    function Pause()\r\n        public\r\n        onlyWhitelistAdmin\r\n    {\r\n        _pause();\r\n    }\r\n\r\n    /**\r\n     * Resume all paused functionalities of Boomflow.\r\n     * Only WhitelistAdmin (DEX) have the access permission.\r\n     */\r\n    function Resume()\r\n        public\r\n        onlyWhitelistAdmin\r\n    {\r\n        _unpause();\r\n    }\r\n\r\n    //Helper Functions\r\n    function _transfer(address sender, address recipient, uint256 amount) internal returns (bool) {\r\n        if (!_accountCheck[recipient]) {\r\n            _accountCheck[recipient] = true;\r\n            _accountList.push(recipient);\r\n        }\r\n\r\n        _balances[sender] = _balances[sender].sub(amount, \"CRCL: transfer amount exceeds locked balance\");\r\n        _balances[recipient] = _balances[recipient].add(amount);\r\n        emit Transfer(sender, recipient, amount);\r\n\r\n        return true;\r\n    }\r\n\r\n    function _mint(address account, uint256 amount) internal {\r\n        require(account != address(0), \"CRCL: mint to the zero address\");\r\n\r\n        if (!_accountCheck[account]) {\r\n            _accountCheck[account] = true;\r\n            _accountList.push(account);\r\n        }\r\n\r\n        _totalSupply = _totalSupply.add(amount);\r\n        _balances[account] = _balances[account].add(amount);\r\n        emit Transfer(address(0), account, amount);\r\n    }\r\n\r\n    function _burn(address account, uint256 amount) internal returns (bool) {\r\n        require(account != address(0), \"CRCL: burn from the zero address\");\r\n\r\n        _balances[account] = _balances[account].sub(amount, \"CRCL: burn amount exceeds balance\");\r\n        _totalSupply = _totalSupply.sub(amount);\r\n        emit Transfer(account, address(0), amount);\r\n\r\n        return true;\r\n    }\r\n\r\n    function _deposit(address sender, address recipient, uint256 amount) internal {\r\n        require(recipient != address(0), \"CRCL: deposit to the zero address\");\r\n        require(sender != address(this), \"CRCL: deposit from the CRCL address\");\r\n\r\n        _mint(recipient, amount);\r\n\r\n        emit Deposit(sender, recipient, amount);\r\n    }\r\n\r\n    function _withdraw(address sender, address recipient, uint256 amount) internal returns (bool) {\r\n        require(_burn(sender, amount), \"CRCL: withdraw amount exceeds CRCL balance\");\r\n        IERC20(_tokenAddr).transfer(recipient, amount);\r\n        emit Withdraw(sender, recipient, amount);\r\n\r\n        return true;\r\n    }\r\n\r\n    function _min(uint256 value1, uint256 value2) internal pure returns (uint256) {\r\n        if (value1 > value2) {\r\n            return value2;\r\n        }\r\n        return value1;\r\n    }\r\n}",
  "sourcePath": "/mnt/c/conflux/boomflow-contract/contracts/crc-l/CRCL.sol",
  "compiler": {
    "name": "solc",
    "version": "0.5.11+commit.c082d0b4.Emscripten.clang"
  },
  "schemaVersion": "3.0.23",
  "updatedAt": "2020-04-04T07:29:27.162Z",
  "devdoc": {
    "methods": {
      "getRequestHash((address,uint256,address,bool,uint256))": {
        "return": "Keccak-256 EIP712 hash of the withdraw request."
      },
      "getTransferRequestHash((address,uint256[],address[],uint256))": {
        "return": "Keccak-256 EIP712 hash of the transfer request."
      },
      "getWithdrawCrossChainRequestHash((address,uint256,string,bool,uint256))": {
        "return": "Keccak-256 EIP712 hash of the crosschain withdraw request."
      },
      "paused()": {
        "details": "Returns true if the contract is paused, and false otherwise.\r"
      }
    }
  },
  "userdoc": {
    "methods": {
      "Pause()": {
        "notice": "Pause the majority of functionalities of CRCL.\r Only WhitelistAdmin (DEX) have the access permission.\r      * Note that `requestForceWithdraw` and `forceWithdraw` is not subject to pause\r"
      },
      "Resume()": {
        "notice": "Resume all paused functionalities of Boomflow.\r Only WhitelistAdmin (DEX) have the access permission.\r"
      },
      "forceWithdraw(address)": {
        "notice": "Force withdraw all msg.sender's CRCL token to recipient's ERC20 token.\r The function acknowledges the request and records the request time.\r      * Emits a {Withdraw} event indicating the amount withdrawn.\r"
      },
      "requestForceWithdraw()": {
        "notice": "Request for a force withdraw of all sender's CRCL token.\r The function acknowledges the request and records the request time.\r      * Emits a {ScheduleWithdraw} event indicating the withdraw has been scheduled.\r"
      },
      "transferFor((address,uint256[],address[],uint256),bytes)": {
        "notice": "Transfer tokens from one sender to a list of recipients according to a list of amounts.\r Only WhitelistAdmin have the access permission.\r Emits an {Transfer} event indicating the amount transferred.\r      * Requirements:\r - `request.userAddress` cannot be zero address.\r - `request.amounts` and `request.recipients` must have the same length.\r"
      },
      "transferFrom(address,address,uint256)": {
        "notice": "Transfer the amount of token from sender to recipient.\r Only WhitelistedRoles (WhitelistAdmin, Boomflow) have the access permission.\r Emits an {Transfer} event indicating the amount transferred.\r      * Requirements:\r - `sender` and `recipient` cannot be the zero address.\r - `sender` must have a balance of at least `amount`.\r"
      },
      "withdraw((address,uint256,address,bool,uint256),bytes)": {
        "notice": "Withdraw the amount of token from sender's CRCL to recipient's ERC777 asset.\r Only WhitelistAdmin (DEX) have the access permission.\r The function will atomically perform the following operations:\r      *      1. Validate the user signature\r     2. Burn `request.amount` of CRCL token from `request.userAddress`\r     3. Transfer equal amount of ERC777 token from the contract address to `request.recipient`\r      * The ERC777 token emits a {Transfer} event indicating the amount transferred.\r The CRCL token emits a {Withdraw} event indicating the amount withdrawn.\r      * Requirements:\r - The request hash has to be unique.\r - The `request.isCrosschain` is False.\r"
      },
      "withdrawCrossChain((address,uint256,string,bool,uint256),bytes)": {
        "notice": "Withdraw the amount of token from sender's CRCL to recipient's crosschain asset.\r Only WhitelistAdmin (DEX) have the access permission.\r The function will atomically perform the following operations:\r      *      1. Validate the user signature\r     2. Burn `request.amount` of CRCL token from `request.userAddress`\r     3. Burn equal amount of ERC777 token from the contract address\r      * Note that For the full-fledged crosschain withdraw, we are depending\r on Custodian counterparts to perform the actual crosschain operations\r      * The ERC777 token emits a {Burned} event indicating the amount withdrawn.\r The CRCL token emits a {Transfer} to null address event indicating the amount withdrawn.\r      * Requirements:\r - The request hash has to be unique.\r - The `request.isCrosschain` is True.\r"
      }
    }
  }
}