{
  "contractName": "TokenBase",
  "abi": [
    {
      "constant": true,
      "inputs": [],
      "name": "defaultOperators",
      "outputs": [
        {
          "internalType": "address[]",
          "name": "",
          "type": "address[]"
        }
      ],
      "payable": false,
      "stateMutability": "view",
      "type": "function"
    },
    {
      "constant": true,
      "inputs": [],
      "name": "name",
      "outputs": [
        {
          "internalType": "string",
          "name": "",
          "type": "string"
        }
      ],
      "payable": false,
      "stateMutability": "view",
      "type": "function"
    },
    {
      "constant": false,
      "inputs": [
        {
          "internalType": "address",
          "name": "spender",
          "type": "address"
        },
        {
          "internalType": "uint256",
          "name": "value",
          "type": "uint256"
        }
      ],
      "name": "approve",
      "outputs": [
        {
          "internalType": "bool",
          "name": "",
          "type": "bool"
        }
      ],
      "payable": false,
      "stateMutability": "nonpayable",
      "type": "function"
    },
    {
      "constant": true,
      "inputs": [],
      "name": "totalSupply",
      "outputs": [
        {
          "internalType": "uint256",
          "name": "",
          "type": "uint256"
        }
      ],
      "payable": false,
      "stateMutability": "view",
      "type": "function"
    },
    {
      "constant": false,
      "inputs": [
        {
          "internalType": "address",
          "name": "holder",
          "type": "address"
        },
        {
          "internalType": "address",
          "name": "recipient",
          "type": "address"
        },
        {
          "internalType": "uint256",
          "name": "amount",
          "type": "uint256"
        }
      ],
      "name": "transferFrom",
      "outputs": [
        {
          "internalType": "bool",
          "name": "",
          "type": "bool"
        }
      ],
      "payable": false,
      "stateMutability": "nonpayable",
      "type": "function"
    },
    {
      "constant": true,
      "inputs": [],
      "name": "decimals",
      "outputs": [
        {
          "internalType": "uint8",
          "name": "",
          "type": "uint8"
        }
      ],
      "payable": false,
      "stateMutability": "pure",
      "type": "function"
    },
    {
      "constant": true,
      "inputs": [],
      "name": "granularity",
      "outputs": [
        {
          "internalType": "uint256",
          "name": "",
          "type": "uint256"
        }
      ],
      "payable": false,
      "stateMutability": "view",
      "type": "function"
    },
    {
      "constant": true,
      "inputs": [],
      "name": "paused",
      "outputs": [
        {
          "internalType": "bool",
          "name": "",
          "type": "bool"
        }
      ],
      "payable": false,
      "stateMutability": "view",
      "type": "function"
    },
    {
      "constant": false,
      "inputs": [
        {
          "internalType": "address",
          "name": "sender",
          "type": "address"
        },
        {
          "internalType": "address",
          "name": "recipient",
          "type": "address"
        },
        {
          "internalType": "uint256",
          "name": "amount",
          "type": "uint256"
        },
        {
          "internalType": "bytes",
          "name": "data",
          "type": "bytes"
        },
        {
          "internalType": "bytes",
          "name": "operatorData",
          "type": "bytes"
        }
      ],
      "name": "operatorSend",
      "outputs": [],
      "payable": false,
      "stateMutability": "nonpayable",
      "type": "function"
    },
    {
      "constant": true,
      "inputs": [
        {
          "internalType": "address",
          "name": "tokenHolder",
          "type": "address"
        }
      ],
      "name": "balanceOf",
      "outputs": [
        {
          "internalType": "uint256",
          "name": "",
          "type": "uint256"
        }
      ],
      "payable": false,
      "stateMutability": "view",
      "type": "function"
    },
    {
      "constant": false,
      "inputs": [],
      "name": "renounceOwnership",
      "outputs": [],
      "payable": false,
      "stateMutability": "nonpayable",
      "type": "function"
    },
    {
      "constant": true,
      "inputs": [],
      "name": "owner",
      "outputs": [
        {
          "internalType": "address",
          "name": "",
          "type": "address"
        }
      ],
      "payable": false,
      "stateMutability": "view",
      "type": "function"
    },
    {
      "constant": true,
      "inputs": [],
      "name": "isOwner",
      "outputs": [
        {
          "internalType": "bool",
          "name": "",
          "type": "bool"
        }
      ],
      "payable": false,
      "stateMutability": "view",
      "type": "function"
    },
    {
      "constant": false,
      "inputs": [
        {
          "internalType": "address",
          "name": "operator",
          "type": "address"
        }
      ],
      "name": "authorizeOperator",
      "outputs": [],
      "payable": false,
      "stateMutability": "nonpayable",
      "type": "function"
    },
    {
      "constant": true,
      "inputs": [],
      "name": "symbol",
      "outputs": [
        {
          "internalType": "string",
          "name": "",
          "type": "string"
        }
      ],
      "payable": false,
      "stateMutability": "view",
      "type": "function"
    },
    {
      "constant": false,
      "inputs": [
        {
          "internalType": "address",
          "name": "recipient",
          "type": "address"
        },
        {
          "internalType": "uint256",
          "name": "amount",
          "type": "uint256"
        },
        {
          "internalType": "bytes",
          "name": "data",
          "type": "bytes"
        }
      ],
      "name": "send",
      "outputs": [],
      "payable": false,
      "stateMutability": "nonpayable",
      "type": "function"
    },
    {
      "constant": false,
      "inputs": [
        {
          "internalType": "address",
          "name": "recipient",
          "type": "address"
        },
        {
          "internalType": "uint256",
          "name": "amount",
          "type": "uint256"
        }
      ],
      "name": "transfer",
      "outputs": [
        {
          "internalType": "bool",
          "name": "",
          "type": "bool"
        }
      ],
      "payable": false,
      "stateMutability": "nonpayable",
      "type": "function"
    },
    {
      "constant": true,
      "inputs": [
        {
          "internalType": "address",
          "name": "operator",
          "type": "address"
        },
        {
          "internalType": "address",
          "name": "tokenHolder",
          "type": "address"
        }
      ],
      "name": "isOperatorFor",
      "outputs": [
        {
          "internalType": "bool",
          "name": "",
          "type": "bool"
        }
      ],
      "payable": false,
      "stateMutability": "view",
      "type": "function"
    },
    {
      "constant": true,
      "inputs": [
        {
          "internalType": "address",
          "name": "holder",
          "type": "address"
        },
        {
          "internalType": "address",
          "name": "spender",
          "type": "address"
        }
      ],
      "name": "allowance",
      "outputs": [
        {
          "internalType": "uint256",
          "name": "",
          "type": "uint256"
        }
      ],
      "payable": false,
      "stateMutability": "view",
      "type": "function"
    },
    {
      "constant": false,
      "inputs": [
        {
          "internalType": "address",
          "name": "newOwner",
          "type": "address"
        }
      ],
      "name": "transferOwnership",
      "outputs": [],
      "payable": false,
      "stateMutability": "nonpayable",
      "type": "function"
    },
    {
      "constant": false,
      "inputs": [
        {
          "internalType": "address",
          "name": "operator",
          "type": "address"
        }
      ],
      "name": "revokeOperator",
      "outputs": [],
      "payable": false,
      "stateMutability": "nonpayable",
      "type": "function"
    },
    {
      "constant": false,
      "inputs": [
        {
          "internalType": "address",
          "name": "account",
          "type": "address"
        },
        {
          "internalType": "uint256",
          "name": "amount",
          "type": "uint256"
        },
        {
          "internalType": "bytes",
          "name": "data",
          "type": "bytes"
        },
        {
          "internalType": "bytes",
          "name": "operatorData",
          "type": "bytes"
        }
      ],
      "name": "operatorBurn",
      "outputs": [],
      "payable": false,
      "stateMutability": "nonpayable",
      "type": "function"
    },
    {
      "inputs": [
        {
          "internalType": "string",
          "name": "name",
          "type": "string"
        },
        {
          "internalType": "string",
          "name": "symbol",
          "type": "string"
        },
        {
          "internalType": "address[]",
          "name": "defaultOperators",
          "type": "address[]"
        }
      ],
      "payable": false,
      "stateMutability": "nonpayable",
      "type": "constructor"
    },
    {
      "anonymous": false,
      "inputs": [
        {
          "indexed": true,
          "internalType": "address",
          "name": "toAddress",
          "type": "address"
        },
        {
          "indexed": true,
          "internalType": "uint256",
          "name": "amount",
          "type": "uint256"
        },
        {
          "indexed": false,
          "internalType": "string",
          "name": "tx_id",
          "type": "string"
        }
      ],
      "name": "Minted",
      "type": "event"
    },
    {
      "anonymous": false,
      "inputs": [
        {
          "indexed": true,
          "internalType": "uint256",
          "name": "amount",
          "type": "uint256"
        },
        {
          "indexed": false,
          "internalType": "string",
          "name": "toAddress",
          "type": "string"
        },
        {
          "indexed": true,
          "internalType": "address",
          "name": "fromAddress",
          "type": "address"
        }
      ],
      "name": "Burnt",
      "type": "event"
    },
    {
      "anonymous": false,
      "inputs": [
        {
          "indexed": false,
          "internalType": "address",
          "name": "account",
          "type": "address"
        }
      ],
      "name": "Paused",
      "type": "event"
    },
    {
      "anonymous": false,
      "inputs": [
        {
          "indexed": false,
          "internalType": "address",
          "name": "account",
          "type": "address"
        }
      ],
      "name": "Unpaused",
      "type": "event"
    },
    {
      "anonymous": false,
      "inputs": [
        {
          "indexed": true,
          "internalType": "address",
          "name": "previousOwner",
          "type": "address"
        },
        {
          "indexed": true,
          "internalType": "address",
          "name": "newOwner",
          "type": "address"
        }
      ],
      "name": "OwnershipTransferred",
      "type": "event"
    },
    {
      "anonymous": false,
      "inputs": [
        {
          "indexed": true,
          "internalType": "address",
          "name": "from",
          "type": "address"
        },
        {
          "indexed": true,
          "internalType": "address",
          "name": "to",
          "type": "address"
        },
        {
          "indexed": false,
          "internalType": "uint256",
          "name": "value",
          "type": "uint256"
        }
      ],
      "name": "Transfer",
      "type": "event"
    },
    {
      "anonymous": false,
      "inputs": [
        {
          "indexed": true,
          "internalType": "address",
          "name": "owner",
          "type": "address"
        },
        {
          "indexed": true,
          "internalType": "address",
          "name": "spender",
          "type": "address"
        },
        {
          "indexed": false,
          "internalType": "uint256",
          "name": "value",
          "type": "uint256"
        }
      ],
      "name": "Approval",
      "type": "event"
    },
    {
      "anonymous": false,
      "inputs": [
        {
          "indexed": true,
          "internalType": "address",
          "name": "operator",
          "type": "address"
        },
        {
          "indexed": true,
          "internalType": "address",
          "name": "from",
          "type": "address"
        },
        {
          "indexed": true,
          "internalType": "address",
          "name": "to",
          "type": "address"
        },
        {
          "indexed": false,
          "internalType": "uint256",
          "name": "amount",
          "type": "uint256"
        },
        {
          "indexed": false,
          "internalType": "bytes",
          "name": "data",
          "type": "bytes"
        },
        {
          "indexed": false,
          "internalType": "bytes",
          "name": "operatorData",
          "type": "bytes"
        }
      ],
      "name": "Sent",
      "type": "event"
    },
    {
      "anonymous": false,
      "inputs": [
        {
          "indexed": true,
          "internalType": "address",
          "name": "operator",
          "type": "address"
        },
        {
          "indexed": true,
          "internalType": "address",
          "name": "to",
          "type": "address"
        },
        {
          "indexed": false,
          "internalType": "uint256",
          "name": "amount",
          "type": "uint256"
        },
        {
          "indexed": false,
          "internalType": "bytes",
          "name": "data",
          "type": "bytes"
        },
        {
          "indexed": false,
          "internalType": "bytes",
          "name": "operatorData",
          "type": "bytes"
        }
      ],
      "name": "Minted",
      "type": "event"
    },
    {
      "anonymous": false,
      "inputs": [
        {
          "indexed": true,
          "internalType": "address",
          "name": "operator",
          "type": "address"
        },
        {
          "indexed": true,
          "internalType": "address",
          "name": "from",
          "type": "address"
        },
        {
          "indexed": false,
          "internalType": "uint256",
          "name": "amount",
          "type": "uint256"
        },
        {
          "indexed": false,
          "internalType": "bytes",
          "name": "data",
          "type": "bytes"
        },
        {
          "indexed": false,
          "internalType": "bytes",
          "name": "operatorData",
          "type": "bytes"
        }
      ],
      "name": "Burned",
      "type": "event"
    },
    {
      "anonymous": false,
      "inputs": [
        {
          "indexed": true,
          "internalType": "address",
          "name": "operator",
          "type": "address"
        },
        {
          "indexed": true,
          "internalType": "address",
          "name": "tokenHolder",
          "type": "address"
        }
      ],
      "name": "AuthorizedOperator",
      "type": "event"
    },
    {
      "anonymous": false,
      "inputs": [
        {
          "indexed": true,
          "internalType": "address",
          "name": "operator",
          "type": "address"
        },
        {
          "indexed": true,
          "internalType": "address",
          "name": "tokenHolder",
          "type": "address"
        }
      ],
      "name": "RevokedOperator",
      "type": "event"
    },
    {
      "constant": false,
      "inputs": [
        {
          "internalType": "address",
          "name": "account",
          "type": "address"
        },
        {
          "internalType": "uint256",
          "name": "amount",
          "type": "uint256"
        },
        {
          "internalType": "string",
          "name": "tx_id",
          "type": "string"
        }
      ],
      "name": "mint",
      "outputs": [
        {
          "internalType": "bool",
          "name": "",
          "type": "bool"
        }
      ],
      "payable": false,
      "stateMutability": "nonpayable",
      "type": "function"
    },
    {
      "constant": false,
      "inputs": [
        {
          "internalType": "address",
          "name": "useraddr",
          "type": "address"
        },
        {
          "internalType": "uint256",
          "name": "amount",
          "type": "uint256"
        },
        {
          "internalType": "string",
          "name": "addr",
          "type": "string"
        }
      ],
      "name": "burn",
      "outputs": [
        {
          "internalType": "bool",
          "name": "",
          "type": "bool"
        }
      ],
      "payable": false,
      "stateMutability": "nonpayable",
      "type": "function"
    },
    {
      "constant": false,
      "inputs": [
        {
          "internalType": "uint256",
          "name": "amount",
          "type": "uint256"
        },
        {
          "internalType": "bytes",
          "name": "data",
          "type": "bytes"
        }
      ],
      "name": "burn",
      "outputs": [],
      "payable": false,
      "stateMutability": "nonpayable",
      "type": "function"
    }
  ],
  "bytecode": "0x60806040523480156200001157600080fd5b5060405162002d0138038062002d01833981810160405260608110156200003757600080fd5b81019080805160405193929190846401000000008211156200005857600080fd5b9083019060208201858111156200006e57600080fd5b82516401000000008111828201881017156200008957600080fd5b82525081516020918201929091019080838360005b83811015620000b85781810151838201526020016200009e565b50505050905090810190601f168015620000e65780820380516001836020036101000a031916815260200191505b50604052602001805160405193929190846401000000008211156200010a57600080fd5b9083019060208201858111156200012057600080fd5b82516401000000008111828201881017156200013b57600080fd5b82525081516020918201929091019080838360005b838110156200016a57818101518382015260200162000150565b50505050905090810190601f168015620001985780820380516001836020036101000a031916815260200191505b5060405260200180516040519392919084640100000000821115620001bc57600080fd5b908301906020820185811115620001d257600080fd5b8251866020820283011164010000000082111715620001f057600080fd5b82525081516020918201928201910280838360005b838110156200021f57818101518382015260200162000205565b50505050905001604052505050828282826002908051906020019062000247929190620004d7565b5081516200025d906003906020850190620004d7565b508051620002739060049060208401906200055c565b5060005b600454811015620002d357600160056000600484815481106200029657fe5b6000918252602080832091909101546001600160a01b031683528201929092526040019020805460ff191691151591909117905560010162000277565b50604080517f455243373737546f6b656e0000000000000000000000000000000000000000008152815190819003600b0181207f29965a1d000000000000000000000000000000000000000000000000000000008252306004830181905260248301919091526044820152905173866aca87ff33a0ae05d2164b3d999a804f583222916329965a1d91606480830192600092919082900301818387803b1580156200037d57600080fd5b505af115801562000392573d6000803e3d6000fd5b5050604080517f4552433230546f6b656e000000000000000000000000000000000000000000008152815190819003600a0181207f29965a1d000000000000000000000000000000000000000000000000000000008252306004830181905260248301919091526044820152905173866aca87ff33a0ae05d2164b3d999a804f58322293506329965a1d9250606480830192600092919082900301818387803b1580156200043f57600080fd5b505af115801562000454573d6000803e3d6000fd5b5050505050505060006200046d620004d260201b60201c565b600980546001600160a01b0319166001600160a01b038316908117909155604051919250906000907f8be0079c531659141344cd1fd0a4f28419497f9722a3daafe3b4186f6b6457e0908290a350506009805460ff60a01b1916905550620006069050565b335b90565b828054600181600116156101000203166002900490600052602060002090601f016020900481019282601f106200051a57805160ff19168380011785556200054a565b828001600101855582156200054a579182015b828111156200054a5782518255916020019190600101906200052d565b5062000558929150620005c2565b5090565b828054828255906000526020600020908101928215620005b4579160200282015b82811115620005b457825182546001600160a01b0319166001600160a01b039091161782556020909201916001909101906200057d565b5062000558929150620005df565b620004d491905b80821115620005585760008155600101620005c9565b620004d491905b80821115620005585780546001600160a01b0319168155600101620005e6565b6126eb80620006166000396000f3fe608060405234801561001057600080fd5b50600436106101735760003560e01c80638da5cb5b116100de578063d3fc986411610097578063f2fde38b11610071578063f2fde38b14610791578063fad8b32a146107b7578063fc673c4f146107dd578063fe9d93031461091b57610173565b8063d3fc98641461067c578063d95b637114610735578063dd62ed3e1461076357610173565b80638da5cb5b1461053d5780638f32d59b14610561578063959b8c3f1461056957806395d89b411461058f5780639bd9bbc614610597578063a9059cbb1461065057610173565b8063313ce56711610130578063313ce56714610396578063556f0dc7146103b45780635c975abb146103bc57806362ad1b83146103c457806370a082311461050f578063715018a61461053557610173565b806306e485381461017857806306fdde03146101d0578063095ea7b31461024d57806315f570dc1461028d57806318160ddd1461034657806323b872dd14610360575b600080fd5b6101806109c6565b60408051602080825283518183015283519192839290830191858101910280838360005b838110156101bc5781810151838201526020016101a4565b505050509050019250505060405180910390f35b6101d8610a28565b6040805160208082528351818301528351919283929083019185019080838360005b838110156102125781810151838201526020016101fa565b50505050905090810190601f16801561023f5780820380516001836020036101000a031916815260200191505b509250505060405180910390f35b6102796004803603604081101561026357600080fd5b506001600160a01b038135169060200135610ab2565b604080519115158252519081900360200190f35b610279600480360360608110156102a357600080fd5b6001600160a01b0382351691602081013591810190606081016040820135600160201b8111156102d257600080fd5b8201836020820111156102e457600080fd5b803590602001918460018302840111600160201b8311171561030557600080fd5b91908080601f016020809104026020016040519081016040528093929190818152602001838380828437600092019190915250929550610ad4945050505050565b61034e610bbd565b60408051918252519081900360200190f35b6102796004803603606081101561037657600080fd5b506001600160a01b03813581169160208101359091169060400135610bc3565b61039e610d46565b6040805160ff9092168252519081900360200190f35b61034e610d4b565b610279610d50565b61050d600480360360a08110156103da57600080fd5b6001600160a01b03823581169260208101359091169160408201359190810190608081016060820135600160201b81111561041457600080fd5b82018360208201111561042657600080fd5b803590602001918460018302840111600160201b8311171561044757600080fd5b91908080601f0160208091040260200160405190810160405280939291908181526020018383808284376000920191909152509295949360208101935035915050600160201b81111561049957600080fd5b8201836020820111156104ab57600080fd5b803590602001918460018302840111600160201b831117156104cc57600080fd5b91908080601f016020809104026020016040519081016040528093929190818152602001838380828437600092019190915250929550610d60945050505050565b005b61034e6004803603602081101561052557600080fd5b50356001600160a01b0316610dca565b61050d610de5565b610545610e88565b604080516001600160a01b039092168252519081900360200190f35b610279610e97565b61050d6004803603602081101561057f57600080fd5b50356001600160a01b0316610ebd565b6101d8611009565b61050d600480360360608110156105ad57600080fd5b6001600160a01b0382351691602081013591810190606081016040820135600160201b8111156105dc57600080fd5b8201836020820111156105ee57600080fd5b803590602001918460018302840111600160201b8311171561060f57600080fd5b91908080601f01602080910402602001604051908101604052809392919081815260200183838082843760009201919091525092955061106a945050505050565b6102796004803603604081101561066657600080fd5b506001600160a01b03813516906020013561109c565b6102796004803603606081101561069257600080fd5b6001600160a01b0382351691602081013591810190606081016040820135600160201b8111156106c157600080fd5b8201836020820111156106d357600080fd5b803590602001918460018302840111600160201b831117156106f457600080fd5b91908080601f016020809104026020016040519081016040528093929190818152602001838380828437600092019190915250929550611175945050505050565b6102796004803603604081101561074b57600080fd5b506001600160a01b03813581169160200135166112bd565b61034e6004803603604081101561077957600080fd5b506001600160a01b038135811691602001351661135f565b61050d600480360360208110156107a757600080fd5b50356001600160a01b031661138a565b61050d600480360360208110156107cd57600080fd5b50356001600160a01b03166113ef565b61050d600480360360808110156107f357600080fd5b6001600160a01b0382351691602081013591810190606081016040820135600160201b81111561082257600080fd5b82018360208201111561083457600080fd5b803590602001918460018302840111600160201b8311171561085557600080fd5b91908080601f0160208091040260200160405190810160405280939291908181526020018383808284376000920191909152509295949360208101935035915050600160201b8111156108a757600080fd5b8201836020820111156108b957600080fd5b803590602001918460018302840111600160201b831117156108da57600080fd5b91908080601f01602080910402602001604051908101604052809392919081815260200183838082843760009201919091525092955061153b945050505050565b61050d6004803603604081101561093157600080fd5b81359190810190604081016020820135600160201b81111561095257600080fd5b82018360208201111561096457600080fd5b803590602001918460018302840111600160201b8311171561098557600080fd5b91908080601f0160208091040260200160405190810160405280939291908181526020018383808284376000920191909152509295506115a1945050505050565b60606004805480602002602001604051908101604052809291908181526020018280548015610a1e57602002820191906000526020600020905b81546001600160a01b03168152600190910190602001808311610a00575b5050505050905090565b60028054604080516020601f6000196101006001871615020190941685900493840181900481028201810190925282815260609390929091830182828015610a1e5780601f10610a8657610100808354040283529160200191610a1e565b820191906000526020600020905b815481529060010190602001808311610a9457509395945050505050565b600080610abd6115cf565b9050610aca8185856115d3565b5060019392505050565b6000610b0f610ae16115cf565b610ae96115cf565b85604051806020016040528060008152506040518060200160405280600081525061167a565b836001600160a01b0316837f5ff47d76c9322f177ff7059963be58d30339f275e98dc74e464d2070a8138acd846040518080602001828103825283818151815260200191508051906020019080838360005b83811015610b79578181015183820152602001610b61565b50505050905090810190601f168015610ba65780820380516001836020036101000a031916815260200191505b509250505060405180910390a35060019392505050565b60015490565b60006001600160a01b038316610c0a5760405162461bcd60e51b81526004018080602001828103825260248152602001806125d26024913960400191505060405180910390fd5b6001600160a01b038416610c4f5760405162461bcd60e51b815260040180806020018281038252602681526020018061264b6026913960400191505060405180910390fd5b6000610c596115cf565b9050610c878186868660405180602001604052806000815250604051806020016040528060008152506118a7565b610cb3818686866040518060200160405280600081525060405180602001604052806000815250611aef565b610d0d8582610d0886604051806060016040528060298152602001612622602991396001600160a01b03808c166000908152600860209081526040808320938b1683529290522054919063ffffffff611d0816565b6115d3565b610d3b8186868660405180602001604052806000815250604051806020016040528060008152506000611d9f565b506001949350505050565b601290565b600190565b600954600160a01b900460ff1690565b610d71610d6b6115cf565b866112bd565b610dac5760405162461bcd60e51b815260040180806020018281038252602c8152602001806125f6602c913960400191505060405180910390fd5b610dc3610db76115cf565b8686868686600161203f565b5050505050565b6001600160a01b031660009081526020819052604090205490565b610ded610e97565b610e3e576040805162461bcd60e51b815260206004820181905260248201527f4f776e61626c653a2063616c6c6572206973206e6f7420746865206f776e6572604482015290519081900360640190fd5b6009546040516000916001600160a01b0316907f8be0079c531659141344cd1fd0a4f28419497f9722a3daafe3b4186f6b6457e0908390a3600980546001600160a01b0319169055565b6009546001600160a01b031690565b6009546000906001600160a01b0316610eae6115cf565b6001600160a01b031614905090565b806001600160a01b0316610ecf6115cf565b6001600160a01b03161415610f155760405162461bcd60e51b81526004018080602001828103825260248152602001806125406024913960400191505060405180910390fd5b6001600160a01b03811660009081526005602052604090205460ff1615610f785760076000610f426115cf565b6001600160a01b03908116825260208083019390935260409182016000908120918516815292529020805460ff19169055610fbf565b600160066000610f866115cf565b6001600160a01b03908116825260208083019390935260409182016000908120918616815292529020805460ff19169115159190911790555b610fc76115cf565b6001600160a01b0316816001600160a01b03167ff4caeb2d6ca8932a215a353d0703c326ec2d81fc68170f320eb2ab49e9df61f960405160405180910390a350565b60038054604080516020601f6002600019610100600188161502019095169490940493840181900481028201810190925282815260609390929091830182828015610a1e5780601f10610a8657610100808354040283529160200191610a1e565b6110976110756115cf565b61107d6115cf565b85858560405180602001604052806000815250600161203f565b505050565b60006001600160a01b0383166110e35760405162461bcd60e51b81526004018080602001828103825260248152602001806125d26024913960400191505060405180910390fd5b60006110ed6115cf565b905061111b8182868660405180602001604052806000815250604051806020016040528060008152506118a7565b611147818286866040518060200160405280600081525060405180602001604052806000815250611aef565b610aca8182868660405180602001604052806000815250604051806020016040528060008152506000611d9f565b600061117f610e97565b6111d0576040805162461bcd60e51b815260206004820181905260248201527f4f776e61626c653a2063616c6c6572206973206e6f7420746865206f776e6572604482015290519081900360640190fd5b600954600160a01b900460ff1615611222576040805162461bcd60e51b815260206004820152601060248201526f14185d5cd8589b194e881c185d5cd95960821b604482015290519081900360640190fd5b61125461122d6115cf565b8585604051806020016040528060008152506040518060200160405280600081525061210a565b82846001600160a01b03167fe7cd4ce7f2a465edc730269a1305e8a48bad821e8fb7e152ec413829c01a53c48460405180806020018281038252838181518152602001915080519060200190808383600083811015610b79578181015183820152602001610b61565b6000816001600160a01b0316836001600160a01b0316148061132857506001600160a01b03831660009081526005602052604090205460ff16801561132857506001600160a01b0380831660009081526007602090815260408083209387168352929052205460ff16155b8061135857506001600160a01b0380831660009081526006602090815260408083209387168352929052205460ff165b9392505050565b6001600160a01b03918216600090815260086020908152604080832093909416825291909152205490565b611392610e97565b6113e3576040805162461bcd60e51b815260206004820181905260248201527f4f776e61626c653a2063616c6c6572206973206e6f7420746865206f776e6572604482015290519081900360640190fd5b6113ec81612335565b50565b6113f76115cf565b6001600160a01b0316816001600160a01b031614156114475760405162461bcd60e51b81526004018080602001828103825260218152602001806125646021913960400191505060405180910390fd5b6001600160a01b03811660009081526005602052604090205460ff16156114b3576001600760006114766115cf565b6001600160a01b03908116825260208083019390935260409182016000908120918616815292529020805460ff19169115159190911790556114f1565b600660006114bf6115cf565b6001600160a01b03908116825260208083019390935260409182016000908120918516815292529020805460ff191690555b6114f96115cf565b6001600160a01b0316816001600160a01b03167f50546e66e5f44d728365dc3908c63bc5cfeeab470722c1677e3073a6ac294aa160405160405180910390a350565b61154c6115466115cf565b856112bd565b6115875760405162461bcd60e51b815260040180806020018281038252602c8152602001806125f6602c913960400191505060405180910390fd5b61159b6115926115cf565b8585858561167a565b50505050565b6115cb6115ac6115cf565b6115b46115cf565b84846040518060200160405280600081525061167a565b5050565b3390565b6001600160a01b0382166116185760405162461bcd60e51b81526004018080602001828103825260238152602001806126946023913960400191505060405180910390fd5b6001600160a01b03808416600081815260086020908152604080832094871680845294825291829020859055815185815291517f8c5be1e5ebec7d5bd14f71427d1e84f3dd0314c0f7b2291e5b200ac8c7c3b9259281900390910190a3505050565b6001600160a01b0384166116bf5760405162461bcd60e51b815260040180806020018281038252602281526020018061251e6022913960400191505060405180910390fd5b6116ce858560008686866118a7565b61171183604051806060016040528060238152602001612671602391396001600160a01b038716600090815260208190526040902054919063ffffffff611d0816565b6001600160a01b03851660009081526020819052604090205560015461173d908463ffffffff6123d616565b600181905550836001600160a01b0316856001600160a01b03167fa78a9be3a7b862d26933ad85fb11d80ef66b8f972d7cbba06621d583943a4098858585604051808481526020018060200180602001838103835285818151815260200191508051906020019080838360005b838110156117c25781810151838201526020016117aa565b50505050905090810190601f1680156117ef5780820380516001836020036101000a031916815260200191505b50838103825284518152845160209182019186019080838360005b8381101561182257818101518382015260200161180a565b50505050905090810190601f16801561184f5780820380516001836020036101000a031916815260200191505b509550505050505060405180910390a36040805184815290516000916001600160a01b038716917fddf252ad1be2c89b69c2b068fc378daa952ba7f163c4a11628f55a4df523b3ef9181900360200190a35050505050565b6040805163555ddc6560e11b81526001600160a01b03871660048201527f29ddb589b1fb5fc7cf394961c1adf5f8c6454761adf795e67fe149f658abe8956024820152905160009173866aca87ff33a0ae05d2164b3d999a804f5832229163aabbb8ca91604480820192602092909190829003018186803b15801561192b57600080fd5b505afa15801561193f573d6000803e3d6000fd5b505050506040513d602081101561195557600080fd5b505190506001600160a01b03811615611ae657806001600160a01b03166375ab97828888888888886040518763ffffffff1660e01b815260040180876001600160a01b03166001600160a01b03168152602001866001600160a01b03166001600160a01b03168152602001856001600160a01b03166001600160a01b031681526020018481526020018060200180602001838103835285818151815260200191508051906020019080838360005b83811015611a1b578181015183820152602001611a03565b50505050905090810190601f168015611a485780820380516001836020036101000a031916815260200191505b50838103825284518152845160209182019186019080838360005b83811015611a7b578181015183820152602001611a63565b50505050905090810190601f168015611aa85780820380516001836020036101000a031916815260200191505b5098505050505050505050600060405180830381600087803b158015611acd57600080fd5b505af1158015611ae1573d6000803e3d6000fd5b505050505b50505050505050565b611b32836040518060600160405280602781526020016124d1602791396001600160a01b038816600090815260208190526040902054919063ffffffff611d0816565b6001600160a01b038087166000908152602081905260408082209390935590861681522054611b67908463ffffffff61241816565b600080866001600160a01b03166001600160a01b0316815260200190815260200160002081905550836001600160a01b0316856001600160a01b0316876001600160a01b03167f06b541ddaa720db2b10a4d0cdac39b8d360425fc073085fac19bc82614677987868686604051808481526020018060200180602001838103835285818151815260200191508051906020019080838360005b83811015611c18578181015183820152602001611c00565b50505050905090810190601f168015611c455780820380516001836020036101000a031916815260200191505b50838103825284518152845160209182019186019080838360005b83811015611c78578181015183820152602001611c60565b50505050905090810190601f168015611ca55780820380516001836020036101000a031916815260200191505b509550505050505060405180910390a4836001600160a01b0316856001600160a01b03167fddf252ad1be2c89b69c2b068fc378daa952ba7f163c4a11628f55a4df523b3ef856040518082815260200191505060405180910390a3505050505050565b60008184841115611d975760405162461bcd60e51b81526004018080602001828103825283818151815260200191508051906020019080838360005b83811015611d5c578181015183820152602001611d44565b50505050905090810190601f168015611d895780820380516001836020036101000a031916815260200191505b509250505060405180910390fd5b505050900390565b6040805163555ddc6560e11b81526001600160a01b03871660048201527fb281fc8c12954d22544db45de3159a39272895b169a852b314f9cc762e44c53b6024820152905160009173866aca87ff33a0ae05d2164b3d999a804f5832229163aabbb8ca91604480820192602092909190829003018186803b158015611e2357600080fd5b505afa158015611e37573d6000803e3d6000fd5b505050506040513d6020811015611e4d57600080fd5b505190506001600160a01b03811615611fe157806001600160a01b03166223de298989898989896040518763ffffffff1660e01b815260040180876001600160a01b03166001600160a01b03168152602001866001600160a01b03166001600160a01b03168152602001856001600160a01b03166001600160a01b031681526020018481526020018060200180602001838103835285818151815260200191508051906020019080838360005b83811015611f12578181015183820152602001611efa565b50505050905090810190601f168015611f3f5780820380516001836020036101000a031916815260200191505b50838103825284518152845160209182019186019080838360005b83811015611f72578181015183820152602001611f5a565b50505050905090810190601f168015611f9f5780820380516001836020036101000a031916815260200191505b5098505050505050505050600060405180830381600087803b158015611fc457600080fd5b505af1158015611fd8573d6000803e3d6000fd5b50505050612035565b811561203557611ff9866001600160a01b0316612472565b156120355760405162461bcd60e51b815260040180806020018281038252604d815260200180612585604d913960600191505060405180910390fd5b5050505050505050565b6001600160a01b0386166120845760405162461bcd60e51b81526004018080602001828103825260228152602001806124af6022913960400191505060405180910390fd5b6001600160a01b0385166120df576040805162461bcd60e51b815260206004820181905260248201527f4552433737373a2073656e6420746f20746865207a65726f2061646472657373604482015290519081900360640190fd5b6120ed8787878787876118a7565b6120fb878787878787611aef565b611ae687878787878787611d9f565b6001600160a01b038416612165576040805162461bcd60e51b815260206004820181905260248201527f4552433737373a206d696e7420746f20746865207a65726f2061646472657373604482015290519081900360640190fd5b600154612178908463ffffffff61241816565b6001556001600160a01b0384166000908152602081905260409020546121a4908463ffffffff61241816565b6001600160a01b0385166000908152602081905260408120919091556121d1908690868686866001611d9f565b836001600160a01b0316856001600160a01b03167f2fe5be0146f74c5bce36c0b80911af6c7d86ff27e89d5cfa61fc681327954e5d858585604051808481526020018060200180602001838103835285818151815260200191508051906020019080838360005b83811015612250578181015183820152602001612238565b50505050905090810190601f16801561227d5780820380516001836020036101000a031916815260200191505b50838103825284518152845160209182019186019080838360005b838110156122b0578181015183820152602001612298565b50505050905090810190601f1680156122dd5780820380516001836020036101000a031916815260200191505b509550505050505060405180910390a36040805184815290516001600160a01b038616916000917fddf252ad1be2c89b69c2b068fc378daa952ba7f163c4a11628f55a4df523b3ef9181900360200190a35050505050565b6001600160a01b03811661237a5760405162461bcd60e51b81526004018080602001828103825260268152602001806124f86026913960400191505060405180910390fd5b6009546040516001600160a01b038084169216907f8be0079c531659141344cd1fd0a4f28419497f9722a3daafe3b4186f6b6457e090600090a3600980546001600160a01b0319166001600160a01b0392909216919091179055565b600061135883836040518060400160405280601e81526020017f536166654d6174683a207375627472616374696f6e206f766572666c6f770000815250611d08565b600082820183811015611358576040805162461bcd60e51b815260206004820152601b60248201527f536166654d6174683a206164646974696f6e206f766572666c6f770000000000604482015290519081900360640190fd5b6000813f7fc5d2460186f7233c927e7db2dcc703c0e500b653ca82273b7bfad8045d85a4708181148015906124a657508115155b94935050505056fe4552433737373a2073656e642066726f6d20746865207a65726f20616464726573734552433737373a207472616e7366657220616d6f756e7420657863656564732062616c616e63654f776e61626c653a206e6577206f776e657220697320746865207a65726f20616464726573734552433737373a206275726e2066726f6d20746865207a65726f20616464726573734552433737373a20617574686f72697a696e672073656c66206173206f70657261746f724552433737373a207265766f6b696e672073656c66206173206f70657261746f724552433737373a20746f6b656e20726563697069656e7420636f6e747261637420686173206e6f20696d706c656d656e74657220666f7220455243373737546f6b656e73526563697069656e744552433737373a207472616e7366657220746f20746865207a65726f20616464726573734552433737373a2063616c6c6572206973206e6f7420616e206f70657261746f7220666f7220686f6c6465724552433737373a207472616e7366657220616d6f756e74206578636565647320616c6c6f77616e63654552433737373a207472616e736665722066726f6d20746865207a65726f20616464726573734552433737373a206275726e20616d6f756e7420657863656564732062616c616e63654552433737373a20617070726f766520746f20746865207a65726f2061646472657373a265627a7a7231582038cdde05c54353f76683ecf9f23d5474ff3497f1409ef0c8ee665e924161c14c64736f6c634300050b0032",
  "source": "pragma solidity ^0.5.5;\r\n\r\nimport \"./ERC777.sol\";\r\nimport \"./libs/Ownable.sol\";\r\nimport \"./libs/Pausable.sol\";\r\n\r\ncontract TokenBase is ERC777, Ownable, Pausable {\r\n    event Minted(address indexed toAddress, uint256 indexed amount, string tx_id);\r\n    event Burnt(uint256 indexed amount, string toAddress, address indexed fromAddress);\r\n\r\n    // token information\r\n    mapping (address => uint256) private _balances;\r\n    mapping (address => mapping (address => uint256)) private _allowances;\r\n    uint256 private _totalSupply;\r\n\r\n    constructor(\r\n        string memory name,\r\n        string memory symbol,\r\n        address[] memory defaultOperators\r\n    )\r\n    ERC777(name, symbol, defaultOperators)\r\n    public {}\r\n\r\n    /* ===== Mint & Burn =====*/\r\n    function mint(\r\n        address account,\r\n        uint256 amount,\r\n        string memory tx_id\r\n    ) public onlyOwner whenNotPaused returns (bool) {\r\n        _mint(_msgSender(), account, amount, \"\", \"\");\r\n        emit Minted(account, amount, tx_id);\r\n        return true;\r\n    }\r\n\r\n    /*\r\n        dex burn cToken from its banker address to withdraw token to user.\r\n        Here useraddr is user conflux address, addr is user btc/eth address.\r\n    */\r\n    function burn(\r\n        address useraddr,\r\n        uint256 amount,\r\n        string memory addr) public returns (bool) {\r\n        _burn(_msgSender(), _msgSender(), amount, \"\", \"\");\r\n        emit Burnt(amount, addr, useraddr);\r\n        return true;\r\n    }\r\n}\r\n",
  "sourcePath": "/mnt/c/conflux/boomflow-contract/contracts/ERC777/ERC777TokenBase.sol",
  "compiler": {
    "name": "solc",
    "version": "0.5.11+commit.c082d0b4.Emscripten.clang"
  },
  "schemaVersion": "3.0.23",
  "updatedAt": "2020-04-04T07:29:27.037Z",
  "devdoc": {
    "methods": {
      "allowance(address,address)": {
        "details": "See {IERC20-allowance}.\r      * Note that operator and allowance concepts are orthogonal: operators may\r not have allowance, and accounts with allowance may not be operators\r themselves.\r"
      },
      "approve(address,uint256)": {
        "details": "See {IERC20-approve}.\r      * Note that accounts cannot have allowance issued by their operators.\r"
      },
      "authorizeOperator(address)": {
        "details": "See {IERC777-authorizeOperator}.\r"
      },
      "balanceOf(address)": {
        "details": "Returns the amount of tokens owned by an account (`tokenHolder`).\r"
      },
      "burn(uint256,bytes)": {
        "details": "See {IERC777-burn}.\r      * Also emits a {IERC20-Transfer} event for ERC20 compatibility.\r"
      },
      "decimals()": {
        "details": "See {ERC20Detailed-decimals}.\r      * Always returns 18, as per the\r [ERC777 EIP](https://eips.ethereum.org/EIPS/eip-777#backward-compatibility).\r"
      },
      "defaultOperators()": {
        "details": "See {IERC777-defaultOperators}.\r"
      },
      "granularity()": {
        "details": "See {IERC777-granularity}.\r      * This implementation always returns `1`.\r"
      },
      "isOperatorFor(address,address)": {
        "details": "See {IERC777-isOperatorFor}.\r"
      },
      "isOwner()": {
        "details": "Returns true if the caller is the current owner.\r"
      },
      "name()": {
        "details": "See {IERC777-name}.\r"
      },
      "operatorBurn(address,uint256,bytes,bytes)": {
        "details": "See {IERC777-operatorBurn}.\r      * Emits {Burned} and {IERC20-Transfer} events.\r"
      },
      "operatorSend(address,address,uint256,bytes,bytes)": {
        "details": "See {IERC777-operatorSend}.\r      * Emits {Sent} and {IERC20-Transfer} events.\r"
      },
      "owner()": {
        "details": "Returns the address of the current owner.\r"
      },
      "paused()": {
        "details": "Returns true if the contract is paused, and false otherwise.\r"
      },
      "renounceOwnership()": {
        "details": "Leaves the contract without owner. It will not be possible to call\r `onlyOwner` functions anymore. Can only be called by the current owner.\r      * NOTE: Renouncing ownership will leave the contract without an owner,\r thereby removing any functionality that is only available to the owner.\r"
      },
      "revokeOperator(address)": {
        "details": "See {IERC777-revokeOperator}.\r"
      },
      "send(address,uint256,bytes)": {
        "details": "See {IERC777-send}.\r      * Also emits a {IERC20-Transfer} event for ERC20 compatibility.\r"
      },
      "symbol()": {
        "details": "See {IERC777-symbol}.\r"
      },
      "totalSupply()": {
        "details": "See {IERC777-totalSupply}.\r"
      },
      "transfer(address,uint256)": {
        "details": "See {IERC20-transfer}.\r      * Unlike `send`, `recipient` is _not_ required to implement the {IERC777Recipient}\r interface if it is a contract.\r      * Also emits a {Sent} event.\r"
      },
      "transferFrom(address,address,uint256)": {
        "details": "See {IERC20-transferFrom}.\r     * Note that operator and allowance concepts are orthogonal: operators cannot\r call `transferFrom` (unless they have allowance), and accounts with\r allowance cannot call `operatorSend` (unless they are operators).\r     * Emits {Sent}, {IERC20-Transfer} and {IERC20-Approval} events.\r"
      },
      "transferOwnership(address)": {
        "details": "Transfers ownership of the contract to a new account (`newOwner`).\r Can only be called by the current owner.\r"
      }
    }
  },
  "userdoc": {
    "methods": {}
  }
}