{
  "contractName": "FC",
  "abi": [
    {
      "constant": true,
      "inputs": [],
      "name": "isBurnPaused",
      "outputs": [
        {
          "internalType": "bool",
          "name": "",
          "type": "bool"
        }
      ],
      "payable": false,
      "stateMutability": "view",
      "type": "function"
    },
    {
      "constant": true,
      "inputs": [],
      "name": "SPONSOR",
      "outputs": [
        {
          "internalType": "contract SponsorWhitelistControl",
          "name": "",
          "type": "address"
        }
      ],
      "payable": false,
      "stateMutability": "view",
      "type": "function"
    },
    {
      "constant": true,
      "inputs": [],
      "name": "isMigratePaused",
      "outputs": [
        {
          "internalType": "bool",
          "name": "",
          "type": "bool"
        }
      ],
      "payable": false,
      "stateMutability": "view",
      "type": "function"
    },
    {
      "constant": true,
      "inputs": [
        {
          "internalType": "address",
          "name": "account",
          "type": "address"
        }
      ],
      "name": "isAdmin",
      "outputs": [
        {
          "internalType": "bool",
          "name": "",
          "type": "bool"
        }
      ],
      "payable": false,
      "stateMutability": "view",
      "type": "function"
    },
    {
      "constant": false,
      "inputs": [
        {
          "internalType": "address",
          "name": "account",
          "type": "address"
        }
      ],
      "name": "removeMinter",
      "outputs": [],
      "payable": false,
      "stateMutability": "nonpayable",
      "type": "function"
    },
    {
      "constant": true,
      "inputs": [],
      "name": "onlyPauserMock",
      "outputs": [],
      "payable": false,
      "stateMutability": "view",
      "type": "function"
    },
    {
      "constant": true,
      "inputs": [
        {
          "internalType": "address",
          "name": "account",
          "type": "address"
        }
      ],
      "name": "isPauser",
      "outputs": [
        {
          "internalType": "bool",
          "name": "",
          "type": "bool"
        }
      ],
      "payable": false,
      "stateMutability": "view",
      "type": "function"
    },
    {
      "constant": false,
      "inputs": [],
      "name": "pauseAfterInitialization",
      "outputs": [],
      "payable": false,
      "stateMutability": "nonpayable",
      "type": "function"
    },
    {
      "constant": false,
      "inputs": [
        {
          "internalType": "address",
          "name": "account",
          "type": "address"
        }
      ],
      "name": "removePauser",
      "outputs": [],
      "payable": false,
      "stateMutability": "nonpayable",
      "type": "function"
    },
    {
      "constant": false,
      "inputs": [],
      "name": "renouncePauser",
      "outputs": [],
      "payable": false,
      "stateMutability": "nonpayable",
      "type": "function"
    },
    {
      "constant": false,
      "inputs": [
        {
          "internalType": "address",
          "name": "account",
          "type": "address"
        }
      ],
      "name": "addAdmin",
      "outputs": [],
      "payable": false,
      "stateMutability": "nonpayable",
      "type": "function"
    },
    {
      "constant": false,
      "inputs": [
        {
          "internalType": "address",
          "name": "account",
          "type": "address"
        }
      ],
      "name": "addPauser",
      "outputs": [],
      "payable": false,
      "stateMutability": "nonpayable",
      "type": "function"
    },
    {
      "constant": false,
      "inputs": [],
      "name": "renounceAdmin",
      "outputs": [],
      "payable": false,
      "stateMutability": "nonpayable",
      "type": "function"
    },
    {
      "constant": true,
      "inputs": [],
      "name": "onlyAdminMock",
      "outputs": [],
      "payable": false,
      "stateMutability": "view",
      "type": "function"
    },
    {
      "constant": false,
      "inputs": [
        {
          "internalType": "address",
          "name": "account",
          "type": "address"
        }
      ],
      "name": "addMinter",
      "outputs": [],
      "payable": false,
      "stateMutability": "nonpayable",
      "type": "function"
    },
    {
      "constant": false,
      "inputs": [],
      "name": "renounceMinter",
      "outputs": [],
      "payable": false,
      "stateMutability": "nonpayable",
      "type": "function"
    },
    {
      "constant": true,
      "inputs": [],
      "name": "isTransferPaused",
      "outputs": [
        {
          "internalType": "bool",
          "name": "",
          "type": "bool"
        }
      ],
      "payable": false,
      "stateMutability": "view",
      "type": "function"
    },
    {
      "constant": true,
      "inputs": [
        {
          "internalType": "address",
          "name": "account",
          "type": "address"
        }
      ],
      "name": "isMinter",
      "outputs": [
        {
          "internalType": "bool",
          "name": "",
          "type": "bool"
        }
      ],
      "payable": false,
      "stateMutability": "view",
      "type": "function"
    },
    {
      "constant": true,
      "inputs": [],
      "name": "onlyMinterMock",
      "outputs": [],
      "payable": false,
      "stateMutability": "view",
      "type": "function"
    },
    {
      "constant": false,
      "inputs": [],
      "name": "pauseForExchange",
      "outputs": [],
      "payable": false,
      "stateMutability": "nonpayable",
      "type": "function"
    },
    {
      "constant": false,
      "inputs": [],
      "name": "pauseDuringMigration",
      "outputs": [],
      "payable": false,
      "stateMutability": "nonpayable",
      "type": "function"
    },
    {
      "constant": false,
      "inputs": [],
      "name": "pauseBeforeMigration",
      "outputs": [],
      "payable": false,
      "stateMutability": "nonpayable",
      "type": "function"
    },
    {
      "inputs": [],
      "payable": false,
      "stateMutability": "nonpayable",
      "type": "constructor"
    },
    {
      "anonymous": false,
      "inputs": [
        {
          "indexed": false,
          "internalType": "address",
          "name": "account",
          "type": "address"
        }
      ],
      "name": "TransferPaused",
      "type": "event"
    },
    {
      "anonymous": false,
      "inputs": [
        {
          "indexed": false,
          "internalType": "address",
          "name": "account",
          "type": "address"
        }
      ],
      "name": "TransferUnpaused",
      "type": "event"
    },
    {
      "anonymous": false,
      "inputs": [
        {
          "indexed": false,
          "internalType": "address",
          "name": "account",
          "type": "address"
        }
      ],
      "name": "BurnPaused",
      "type": "event"
    },
    {
      "anonymous": false,
      "inputs": [
        {
          "indexed": false,
          "internalType": "address",
          "name": "account",
          "type": "address"
        }
      ],
      "name": "BurnUnpaused",
      "type": "event"
    },
    {
      "anonymous": false,
      "inputs": [
        {
          "indexed": false,
          "internalType": "address",
          "name": "account",
          "type": "address"
        }
      ],
      "name": "MigratePaused",
      "type": "event"
    },
    {
      "anonymous": false,
      "inputs": [
        {
          "indexed": false,
          "internalType": "address",
          "name": "account",
          "type": "address"
        }
      ],
      "name": "MigrateUnpaused",
      "type": "event"
    },
    {
      "anonymous": false,
      "inputs": [
        {
          "indexed": true,
          "internalType": "address",
          "name": "account",
          "type": "address"
        }
      ],
      "name": "MinterAdded",
      "type": "event"
    },
    {
      "anonymous": false,
      "inputs": [
        {
          "indexed": true,
          "internalType": "address",
          "name": "account",
          "type": "address"
        }
      ],
      "name": "MinterRemoved",
      "type": "event"
    },
    {
      "anonymous": false,
      "inputs": [
        {
          "indexed": true,
          "internalType": "address",
          "name": "account",
          "type": "address"
        }
      ],
      "name": "PauserAdded",
      "type": "event"
    },
    {
      "anonymous": false,
      "inputs": [
        {
          "indexed": true,
          "internalType": "address",
          "name": "account",
          "type": "address"
        }
      ],
      "name": "PauserRemoved",
      "type": "event"
    },
    {
      "anonymous": false,
      "inputs": [
        {
          "indexed": true,
          "internalType": "address",
          "name": "account",
          "type": "address"
        }
      ],
      "name": "AdminAdded",
      "type": "event"
    },
    {
      "anonymous": false,
      "inputs": [
        {
          "indexed": true,
          "internalType": "address",
          "name": "account",
          "type": "address"
        }
      ],
      "name": "AdminRemoved",
      "type": "event"
    },
    {
      "anonymous": false,
      "inputs": [
        {
          "indexed": true,
          "internalType": "address",
          "name": "from",
          "type": "address"
        },
        {
          "indexed": true,
          "internalType": "address",
          "name": "to",
          "type": "address"
        },
        {
          "indexed": false,
          "internalType": "uint256",
          "name": "value",
          "type": "uint256"
        }
      ],
      "name": "Transfer",
      "type": "event"
    },
    {
      "anonymous": false,
      "inputs": [
        {
          "indexed": true,
          "internalType": "address",
          "name": "account",
          "type": "address"
        },
        {
          "indexed": false,
          "internalType": "uint256",
          "name": "value",
          "type": "uint256"
        }
      ],
      "name": "Lock",
      "type": "event"
    },
    {
      "anonymous": false,
      "inputs": [
        {
          "indexed": true,
          "internalType": "address",
          "name": "account",
          "type": "address"
        },
        {
          "indexed": false,
          "internalType": "uint256",
          "name": "CPool",
          "type": "uint256"
        },
        {
          "indexed": false,
          "internalType": "uint256",
          "name": "PPool",
          "type": "uint256"
        },
        {
          "indexed": false,
          "internalType": "uint256",
          "name": "PPoolLocked",
          "type": "uint256"
        }
      ],
      "name": "Write",
      "type": "event"
    },
    {
      "constant": false,
      "inputs": [],
      "name": "deposit",
      "outputs": [],
      "payable": true,
      "stateMutability": "payable",
      "type": "function"
    },
    {
      "constant": true,
      "inputs": [],
      "name": "name",
      "outputs": [
        {
          "internalType": "string",
          "name": "",
          "type": "string"
        }
      ],
      "payable": false,
      "stateMutability": "view",
      "type": "function"
    },
    {
      "constant": true,
      "inputs": [],
      "name": "symbol",
      "outputs": [
        {
          "internalType": "string",
          "name": "",
          "type": "string"
        }
      ],
      "payable": false,
      "stateMutability": "view",
      "type": "function"
    },
    {
      "constant": true,
      "inputs": [],
      "name": "decimals",
      "outputs": [
        {
          "internalType": "uint8",
          "name": "",
          "type": "uint8"
        }
      ],
      "payable": false,
      "stateMutability": "view",
      "type": "function"
    },
    {
      "constant": true,
      "inputs": [],
      "name": "cap",
      "outputs": [
        {
          "internalType": "uint256",
          "name": "",
          "type": "uint256"
        }
      ],
      "payable": false,
      "stateMutability": "view",
      "type": "function"
    },
    {
      "constant": true,
      "inputs": [],
      "name": "totalSupply",
      "outputs": [
        {
          "internalType": "uint256",
          "name": "",
          "type": "uint256"
        }
      ],
      "payable": false,
      "stateMutability": "view",
      "type": "function"
    },
    {
      "constant": true,
      "inputs": [
        {
          "internalType": "address",
          "name": "account",
          "type": "address"
        }
      ],
      "name": "balanceOf",
      "outputs": [
        {
          "internalType": "uint256",
          "name": "",
          "type": "uint256"
        }
      ],
      "payable": false,
      "stateMutability": "view",
      "type": "function"
    },
    {
      "constant": true,
      "inputs": [],
      "name": "circulationRatio",
      "outputs": [
        {
          "internalType": "uint256",
          "name": "",
          "type": "uint256"
        }
      ],
      "payable": false,
      "stateMutability": "view",
      "type": "function"
    },
    {
      "constant": true,
      "inputs": [
        {
          "internalType": "address",
          "name": "account",
          "type": "address"
        }
      ],
      "name": "stateOf",
      "outputs": [
        {
          "internalType": "uint256",
          "name": "",
          "type": "uint256"
        },
        {
          "internalType": "uint256",
          "name": "",
          "type": "uint256"
        },
        {
          "internalType": "uint256",
          "name": "",
          "type": "uint256"
        }
      ],
      "payable": false,
      "stateMutability": "view",
      "type": "function"
    },
    {
      "constant": true,
      "inputs": [],
      "name": "balanceOfContract",
      "outputs": [
        {
          "internalType": "uint256",
          "name": "",
          "type": "uint256"
        }
      ],
      "payable": false,
      "stateMutability": "view",
      "type": "function"
    },
    {
      "constant": true,
      "inputs": [],
      "name": "accountTotal",
      "outputs": [
        {
          "internalType": "uint256",
          "name": "",
          "type": "uint256"
        }
      ],
      "payable": false,
      "stateMutability": "view",
      "type": "function"
    },
    {
      "constant": true,
      "inputs": [
        {
          "internalType": "uint256",
          "name": "begin",
          "type": "uint256"
        }
      ],
      "name": "accountList",
      "outputs": [
        {
          "internalType": "address[100]",
          "name": "",
          "type": "address[100]"
        }
      ],
      "payable": false,
      "stateMutability": "view",
      "type": "function"
    },
    {
      "constant": false,
      "inputs": [
        {
          "internalType": "address",
          "name": "account",
          "type": "address"
        },
        {
          "internalType": "uint256",
          "name": "ConfluxPool",
          "type": "uint256"
        },
        {
          "internalType": "uint256",
          "name": "Personal",
          "type": "uint256"
        },
        {
          "internalType": "uint256",
          "name": "Locked",
          "type": "uint256"
        }
      ],
      "name": "setStateOf",
      "outputs": [],
      "payable": false,
      "stateMutability": "nonpayable",
      "type": "function"
    },
    {
      "constant": false,
      "inputs": [
        {
          "internalType": "uint256",
          "name": "total",
          "type": "uint256"
        }
      ],
      "name": "setTotalSupply",
      "outputs": [],
      "payable": false,
      "stateMutability": "nonpayable",
      "type": "function"
    },
    {
      "constant": false,
      "inputs": [
        {
          "internalType": "uint256",
          "name": "value",
          "type": "uint256"
        }
      ],
      "name": "setCirculationRatio",
      "outputs": [],
      "payable": false,
      "stateMutability": "nonpayable",
      "type": "function"
    },
    {
      "constant": false,
      "inputs": [
        {
          "internalType": "address",
          "name": "account",
          "type": "address"
        },
        {
          "internalType": "uint256",
          "name": "value",
          "type": "uint256"
        }
      ],
      "name": "mint",
      "outputs": [
        {
          "internalType": "bool",
          "name": "",
          "type": "bool"
        }
      ],
      "payable": false,
      "stateMutability": "nonpayable",
      "type": "function"
    },
    {
      "constant": false,
      "inputs": [
        {
          "internalType": "address",
          "name": "recipient",
          "type": "address"
        },
        {
          "internalType": "uint256",
          "name": "value",
          "type": "uint256"
        }
      ],
      "name": "transfer",
      "outputs": [
        {
          "internalType": "bool",
          "name": "",
          "type": "bool"
        }
      ],
      "payable": false,
      "stateMutability": "nonpayable",
      "type": "function"
    },
    {
      "constant": false,
      "inputs": [
        {
          "internalType": "address",
          "name": "recipient",
          "type": "address"
        },
        {
          "internalType": "uint256",
          "name": "value",
          "type": "uint256"
        },
        {
          "internalType": "bytes",
          "name": "data",
          "type": "bytes"
        }
      ],
      "name": "send",
      "outputs": [
        {
          "internalType": "bool",
          "name": "",
          "type": "bool"
        }
      ],
      "payable": false,
      "stateMutability": "nonpayable",
      "type": "function"
    },
    {
      "constant": false,
      "inputs": [
        {
          "internalType": "uint256",
          "name": "value",
          "type": "uint256"
        }
      ],
      "name": "burn",
      "outputs": [],
      "payable": false,
      "stateMutability": "nonpayable",
      "type": "function"
    }
  ],
  "bytecode": "0x60806040523480156200001157600080fd5b5062000026336001600160e01b036200022b16565b6003805462ff00001961ffff199091166101001716620100001790556040805180820190915260088082527f46616e73436f696e0000000000000000000000000000000000000000000000006020909201918252620000889160049162000428565b506040805180820190915260028082527f46430000000000000000000000000000000000000000000000000000000000006020909201918252620000cf9160059162000428565b5060068054601260ff19909116179081905560006009556305f5e100906200010b90829060ff16600a0a6200027d602090811b6200263417901c565b600755604080517f455243373737546f6b656e0000000000000000000000000000000000000000008152815190819003600b0181207f29965a1d000000000000000000000000000000000000000000000000000000008252306004830181905260248301919091526044820152905173866aca87ff33a0ae05d2164b3d999a804f583222916329965a1d91606480830192600092919082900301818387803b158015620001b757600080fd5b505af1158015620001cc573d6000803e3d6000fd5b5050604080516001808252818301909252606093509150602080830190803883390190505090506000816000815181106200020357fe5b60200260200101906001600160a01b031690816001600160a01b0316815250505050620004cd565b62000246816002620002fe60201b620025b31790919060201c565b6040516001600160a01b038216907f44d6d25963f097ad14f29f06854a01f575648a1ef82f30e562ccd3889717e33990600090a250565b6000826200028e57506000620002f8565b828202828482816200029c57fe5b0414620002f5576040517f08c379a0000000000000000000000000000000000000000000000000000000008152600401808060200182810382526021815260200180620031336021913960400191505060405180910390fd5b90505b92915050565b6200031382826001600160e01b03620003a516565b156200038057604080517f08c379a000000000000000000000000000000000000000000000000000000000815260206004820152601f60248201527f526f6c65733a206163636f756e7420616c72656164792068617320726f6c6500604482015290519081900360640190fd5b6001600160a01b0316600090815260209190915260409020805460ff19166001179055565b60006001600160a01b03821662000408576040517f08c379a0000000000000000000000000000000000000000000000000000000008152600401808060200182810382526022815260200180620031546022913960400191505060405180910390fd5b506001600160a01b03166000908152602091909152604090205460ff1690565b828054600181600116156101000203166002900490600052602060002090601f016020900481019282601f106200046b57805160ff19168380011785556200049b565b828001600101855582156200049b579182015b828111156200049b5782518255916020019190600101906200047e565b50620004a9929150620004ad565b5090565b620004ca91905b80821115620004a95760008155600101620004b4565b90565b612c5680620004dd6000396000f3fe6080604052600436106102465760003560e01c806370a0823111610139578063aa271e1a116100b6578063d0e30db01161007a578063d0e30db0146108e6578063e6c7c456146108ee578063f051ecc914610903578063f7ea7a3d14610918578063f8c4bbf214610942578063fa8c08a51461095757610246565b8063aa271e1a1461084a578063b5dba35b1461087d578063c00712db14610892578063c224e4b6146108a7578063cc943d81146108d157610246565b8063983b2d56116100fd578063983b2d56146106ec578063986502751461071f5780639bd9bbc614610734578063a1a1ef43146107fc578063a9059cbb1461081157610246565b806370a082311461064757806382dc1ec41461067a5780638bad0c0a146106ad5780638e49c16e146106c257806395d89b41146106d757610246565b8063355274ea116101c75780634ea98d161161018b5780634ea98d16146105545780636a45679c146105b75780636b2c0f55146105cc5780636ef8d66d146105ff578063704802751461061457610246565b8063355274ea1461045857806340c10f191461046d57806342966c68146104a657806345b4903a146104d057806346fbf68e1461052157610246565b806320b0afba1161020e57806320b0afba1461039d57806324d7806c146103b25780633092afd5146103e5578063313ce56714610418578063329daf901461044357610246565b806306fdde031461024b5780630fc26b4b146102d557806316257e901461031c57806318160ddd146103455780631d073a7a1461036c575b600080fd5b34801561025757600080fd5b5061026061096c565b6040805160208082528351818301528351919283929083019185019080838360005b8381101561029a578181015183820152602001610282565b50505050905090810190601f1680156102c75780820380516001836020036101000a031916815260200191505b509250505060405180910390f35b3480156102e157600080fd5b5061031a600480360360808110156102f857600080fd5b506001600160a01b038135169060208101359060408101359060600135610a02565b005b34801561032857600080fd5b50610331610bef565b604080519115158252519081900360200190f35b34801561035157600080fd5b5061035a610bfd565b60408051918252519081900360200190f35b34801561037857600080fd5b50610381610c03565b604080516001600160a01b039092168252519081900360200190f35b3480156103a957600080fd5b50610331610c1b565b3480156103be57600080fd5b50610331600480360360208110156103d557600080fd5b50356001600160a01b0316610c2a565b3480156103f157600080fd5b5061031a6004803603602081101561040857600080fd5b50356001600160a01b0316610c43565b34801561042457600080fd5b5061042d610c93565b6040805160ff9092168252519081900360200190f35b34801561044f57600080fd5b5061031a610c9c565b34801561046457600080fd5b5061035a610cf1565b34801561047957600080fd5b506103316004803603604081101561049057600080fd5b506001600160a01b038135169060200135610cf7565b3480156104b257600080fd5b5061031a600480360360208110156104c957600080fd5b5035610e14565b3480156104dc57600080fd5b50610503600480360360208110156104f357600080fd5b50356001600160a01b0316611087565b60408051938452602084019290925282820152519081900360600190f35b34801561052d57600080fd5b506103316004803603602081101561054457600080fd5b50356001600160a01b03166110b9565b34801561056057600080fd5b5061057e6004803603602081101561057757600080fd5b50356110cc565b6040518082610c8080838360005b838110156105a457818101518382015260200161058c565b5050505090500191505060405180910390f35b3480156105c357600080fd5b5061031a6111b2565b3480156105d857600080fd5b5061031a600480360360208110156105ef57600080fd5b50356001600160a01b031661121d565b34801561060b57600080fd5b5061031a61126a565b34801561062057600080fd5b5061031a6004803603602081101561063757600080fd5b50356001600160a01b0316611273565b34801561065357600080fd5b5061035a6004803603602081101561066a57600080fd5b50356001600160a01b03166112c0565b34801561068657600080fd5b5061031a6004803603602081101561069d57600080fd5b50356001600160a01b0316611301565b3480156106b957600080fd5b5061031a61134e565b3480156106ce57600080fd5b5061031a611357565b3480156106e357600080fd5b5061026061139b565b3480156106f857600080fd5b5061031a6004803603602081101561070f57600080fd5b50356001600160a01b03166113fc565b34801561072b57600080fd5b5061031a611449565b34801561074057600080fd5b506103316004803603606081101561075757600080fd5b6001600160a01b038235169160208101359181019060608101604082013564010000000081111561078757600080fd5b82018360208201111561079957600080fd5b803590602001918460018302840111640100000000831117156107bb57600080fd5b91908080601f016020809104026020016040519081016040528093929190818152602001838380828437600092019190915250929550611452945050505050565b34801561080857600080fd5b506103316114df565b34801561081d57600080fd5b506103316004803603604081101561083457600080fd5b506001600160a01b0381351690602001356114e8565b34801561085657600080fd5b506103316004803603602081101561086d57600080fd5b50356001600160a01b0316611583565b34801561088957600080fd5b5061031a611595565b34801561089e57600080fd5b5061031a6115e8565b3480156108b357600080fd5b5061031a600480360360208110156108ca57600080fd5b503561164b565b3480156108dd57600080fd5b5061035a611694565b61031a611357565b3480156108fa57600080fd5b5061035a61169a565b34801561090f57600080fd5b5061031a61169f565b34801561092457600080fd5b5061031a6004803603602081101561093b57600080fd5b503561170a565b34801561094e57600080fd5b5061035a6117bb565b34801561096357600080fd5b5061031a6117c1565b60048054604080516020601f60026000196101006001881615020190951694909404938401819004810282018101909252828152606093909290918301828280156109f85780601f106109cd576101008083540402835291602001916109f8565b820191906000526020600020905b8154815290600101906020018083116109db57829003601f168201915b5050505050905090565b610a0b336110b9565b80610a1a5750610a1a33610c2a565b610a555760405162461bcd60e51b8152600401808060200182810382526039815260200180612b3e6039913960400191505060405180910390fd5b60035462010000900460ff1615610aae576040805162461bcd60e51b815260206004820152601860248201527714185d5cd8589b194e88135a59dc985d19481c185d5cd95960421b604482015290519081900360640190fd5b6001600160a01b038416610af35760405162461bcd60e51b8152600401808060200182810382526021815260200180612a726021913960400191505060405180910390fd5b6001600160a01b0384166000908152600d602052604090205460ff16610b79576001600160a01b0384166000818152600d60205260408120805460ff19166001908117909155600e805491820181559091527fbb7b4a454dc3493923482f07822329ed19e8244eff582cc204f8554c3620c3fd0180546001600160a01b03191690911790555b6001600160a01b0384166000818152600a60209081526040808320879055600b8252808320869055600c825291829020849055815186815290810185905280820184905290517fcd7ab9401a877813449135f2f003eb0f79344bd8ebdd3a144149989fe8f4a24c9181900360600190a250505050565b600354610100900460ff1690565b60085490565b738ad036480160591706c831f0da19d1a424e3946981565b60035462010000900460ff1690565b6000610c3d60028363ffffffff61181c16565b92915050565b610c4c33610c2a565b610c875760405162461bcd60e51b815260040180806020018281038252602e815260200180612b99602e913960400191505060405180910390fd5b610c9081611883565b50565b60065460ff1690565b610ca5336110b9565b80610cb45750610cb433610c2a565b610cef5760405162461bcd60e51b8152600401808060200182810382526039815260200180612b3e6039913960400191505060405180910390fd5b565b60075490565b6000610d0233611583565b80610d115750610d1133610c2a565b610d4c5760405162461bcd60e51b8152600401808060200182810382526039815260200180612be96039913960400191505060405180910390fd5b6001600160a01b0383166000908152600d602052604090205460ff16610dd2576001600160a01b0383166000818152600d60205260408120805460ff19166001908117909155600e805491820181559091527fbb7b4a454dc3493923482f07822329ed19e8244eff582cc204f8554c3620c3fd0180546001600160a01b03191690911790555b610ddc83836118cb565b610e0b336000858560405180602001604052806000815250604051806020016040528060008152506001611a12565b50600192915050565b600354610100900460ff1615610e69576040805162461bcd60e51b815260206004820152601560248201527414185d5cd8589b194e88109d5c9b881c185d5cd959605a1b604482015290519081900360640190fd5b33610ea9576040805162461bcd60e51b815260206004820152601e6024820152600080516020612a93833981519152604482015290519081900360640190fd5b336000908152600c6020908152604080832054600b835281842054600a909352922054610efd928492610ef192610ee59163ffffffff611cb216565b9063ffffffff611cb216565b9063ffffffff611d0c16565b503031811115610f0b575030315b336000818152600c6020908152604080832054600b90925290912054610f989291610f3c919063ffffffff611cb216565b8311610f49576000610f93565b336000908152600b6020908152604080832054600c90925290912054610f9391610f7e91610ef190879063ffffffff611d0c16565b336000908152600a6020526040902054611d4e565b611d66565b336000818152600c6020526040902054610ff991908311610fba576000610ff4565b336000908152600c6020526040902054610ff490610fdf90859063ffffffff611d0c16565b336000908152600b6020526040902054611d4e565b611e0b565b336000818152600c602052604090205461101e9190611019908490611d4e565b611ea9565b604051339082156108fc029083906000818181858888f1935050505015801561104b573d6000803e3d6000fd5b5060408051828152905160009133917fddf252ad1be2c89b69c2b068fc378daa952ba7f163c4a11628f55a4df523b3ef9181900360200190a350565b6001600160a01b03166000908152600a6020908152604080832054600b835281842054600c9093529220549192909190565b6000610c3d60018363ffffffff61181c16565b6110d4612a52565b600e54821061112a576040805162461bcd60e51b815260206004820152601c60248201527f46433a206163636f756e744c697374206f7574206f662072616e676500000000604482015290519081900360640190fd5b611132612a52565b600e546000906111529061114d86606463ffffffff611cb216565b611d4e565b9050835b818110156111a957600e818154811061116b57fe5b6000918252602090912001546001600160a01b0316838683036064811061118e57fe5b6001600160a01b039092166020929092020152600101611156565b50909392505050565b6111bb336110b9565b806111ca57506111ca33610c2a565b6112055760405162461bcd60e51b8152600401808060200182810382526039815260200180612b3e6039913960400191505060405180910390fd5b61120d611f47565b611215611f86565b610cef611fca565b61122633610c2a565b6112615760405162461bcd60e51b815260040180806020018281038252602e815260200180612b99602e913960400191505060405180910390fd5b610c9081612010565b610cef33612010565b61127c33610c2a565b6112b75760405162461bcd60e51b815260040180806020018281038252602e815260200180612b99602e913960400191505060405180910390fd5b610c9081612058565b6001600160a01b0381166000908152600c6020908152604080832054600b835281842054600a90935290832054610c3d92610ee5919063ffffffff611cb216565b61130a33610c2a565b6113455760405162461bcd60e51b815260040180806020018281038252602e815260200180612b99602e913960400191505060405180910390fd5b610c90816120a0565b610cef336120e8565b61136033610c2a565b610cef5760405162461bcd60e51b815260040180806020018281038252602e815260200180612b99602e913960400191505060405180910390fd5b60058054604080516020601f60026000196101006001881615020190951694909404938401819004810282018101909252828152606093909290918301828280156109f85780601f106109cd576101008083540402835291602001916109f8565b61140533610c2a565b6114405760405162461bcd60e51b815260040180806020018281038252602e815260200180612b99602e913960400191505060405180910390fd5b610c9081612130565b610cef33611883565b60035460009060ff16156114a9576040805162461bcd60e51b815260206004820152601960248201527814185d5cd8589b194e88151c985b9cd9995c881c185d5cd959603a1b604482015290519081900360640190fd5b60006114b6338686612178565b90506114d73333878787604051806020016040528060008152506001611a12565b949350505050565b60035460ff1690565b60035460009060ff161561153f576040805162461bcd60e51b815260206004820152601960248201527814185d5cd8589b194e88151c985b9cd9995c881c185d5cd959603a1b604482015290519081900360640190fd5b600061154c338585612178565b905061157c3333868660405180602001604052806000815250604051806020016040528060008152506000611a12565b9392505050565b6000610c3d818363ffffffff61181c16565b61159e33611583565b806115ad57506115ad33610c2a565b610cef5760405162461bcd60e51b8152600401808060200182810382526039815260200180612be96039913960400191505060405180910390fd5b6115f1336110b9565b80611600575061160033610c2a565b61163b5760405162461bcd60e51b8152600401808060200182810382526039815260200180612b3e6039913960400191505060405180910390fd5b6116436123b9565b6112156123fb565b61165433610c2a565b61168f5760405162461bcd60e51b815260040180806020018281038252602e815260200180612b99602e913960400191505060405180910390fd5b600955565b60095490565b303190565b6116a8336110b9565b806116b757506116b733610c2a565b6116f25760405162461bcd60e51b8152600401808060200182810382526039815260200180612b3e6039913960400191505060405180910390fd5b6116fa6123b9565b611702611f86565b610cef61243b565b611713336110b9565b80611722575061172233610c2a565b61175d5760405162461bcd60e51b8152600401808060200182810382526039815260200180612b3e6039913960400191505060405180910390fd5b60035462010000900460ff16156117b6576040805162461bcd60e51b815260206004820152601860248201527714185d5cd8589b194e88135a59dc985d19481c185d5cd95960421b604482015290519081900360640190fd5b600855565b600e5490565b6117ca336110b9565b806117d957506117d933610c2a565b6118145760405162461bcd60e51b8152600401808060200182810382526039815260200180612b3e6039913960400191505060405180910390fd5b61120d6123b9565b60006001600160a01b0382166118635760405162461bcd60e51b8152600401808060200182810382526022815260200180612b776022913960400191505060405180910390fd5b506001600160a01b03166000908152602091909152604090205460ff1690565b61189460008263ffffffff61247c16565b6040516001600160a01b038216907fe94479a9f7e1952cc78f2d6baab678adc1b772d936c6583def489e524cb6669290600090a250565b6001600160a01b038216611926576040805162461bcd60e51b815260206004820152601c60248201527f46433a206d696e7420746f20746865207a65726f206164647265737300000000604482015290519081900360640190fd5b60075461193582610ee5610bfd565b111561197b576040805162461bcd60e51b815260206004820152601060248201526f1190ce8818d85c08195e18d95959195960821b604482015290519081900360640190fd5b60085461198e908263ffffffff611cb216565b6008556001600160a01b0382166000908152600a60205260409020546119ba908263ffffffff611cb216565b6001600160a01b0383166000818152600a602090815260408083209490945583518581529351929391927fddf252ad1be2c89b69c2b068fc378daa952ba7f163c4a11628f55a4df523b3ef9281900390910190a35050565b6040805163555ddc6560e11b81526001600160a01b03871660048201527fb281fc8c12954d22544db45de3159a39272895b169a852b314f9cc762e44c53b6024820152905160009173866aca87ff33a0ae05d2164b3d999a804f5832229163aabbb8ca91604480820192602092909190829003018186803b158015611a9657600080fd5b505afa158015611aaa573d6000803e3d6000fd5b505050506040513d6020811015611ac057600080fd5b505190506001600160a01b03811615611c5457806001600160a01b03166223de298989898989896040518763ffffffff1660e01b815260040180876001600160a01b03166001600160a01b03168152602001866001600160a01b03166001600160a01b03168152602001856001600160a01b03166001600160a01b031681526020018481526020018060200180602001838103835285818151815260200191508051906020019080838360005b83811015611b85578181015183820152602001611b6d565b50505050905090810190601f168015611bb25780820380516001836020036101000a031916815260200191505b50838103825284518152845160209182019186019080838360005b83811015611be5578181015183820152602001611bcd565b50505050905090810190601f168015611c125780820380516001836020036101000a031916815260200191505b5098505050505050505050600060405180830381600087803b158015611c3757600080fd5b505af1158015611c4b573d6000803e3d6000fd5b50505050611ca8565b8115611ca857611c6c866001600160a01b03166124e3565b15611ca85760405162461bcd60e51b8152600401808060200182810382526049815260200180612ad46049913960600191505060405180910390fd5b5050505050505050565b60008282018381101561157c576040805162461bcd60e51b815260206004820152601b60248201527f536166654d6174683a206164646974696f6e206f766572666c6f770000000000604482015290519081900360640190fd5b600061157c83836040518060400160405280601e81526020017f536166654d6174683a207375627472616374696f6e206f766572666c6f77000081525061251c565b600081831115611d5f575080610c3d565b5090919050565b6001600160a01b038216611daf576040805162461bcd60e51b815260206004820152601e6024820152600080516020612a93833981519152604482015290519081900360640190fd5b6001600160a01b0382166000908152600a6020526040902054611dd8908263ffffffff611d0c16565b6001600160a01b0383166000908152600a6020526040902055600854611e04908263ffffffff611d0c16565b6008555050565b6001600160a01b038216611e54576040805162461bcd60e51b815260206004820152601e6024820152600080516020612a93833981519152604482015290519081900360640190fd5b6001600160a01b0382166000908152600b6020526040902054611e7d908263ffffffff611d0c16565b6001600160a01b0383166000908152600b6020526040902055600854611e04908263ffffffff611d0c16565b6001600160a01b038216611ef2576040805162461bcd60e51b815260206004820152601e6024820152600080516020612a93833981519152604482015290519081900360640190fd5b6001600160a01b0382166000908152600c6020526040902054611f1b908263ffffffff611d0c16565b6001600160a01b0383166000908152600c6020526040902055600854611e04908263ffffffff611d0c16565b6003805460ff191690556040805133815290517f27b779563480879c8e2872999840b721537eb09dccf94115a2276ca341cdbb529181900360200190a1565b6003805461ff0019166101001790556040805133815290517f1c734234efe17d5f92978089797af73272adfda26b905f6818b2591f162a9fc89181900360200190a1565b6003805462ff00001916620100001790556040805133815290517fb91efbd7405635fab6a9294d4fffa107f09b1ef48033d8382d84c660d5ee53bf9181900360200190a1565b61202160018263ffffffff61247c16565b6040516001600160a01b038216907fcd265ebaf09df2871cc7bd4133404a235ba12eff2041bb89d9c714a2621c7c7e90600090a250565b61206960028263ffffffff6125b316565b6040516001600160a01b038216907f44d6d25963f097ad14f29f06854a01f575648a1ef82f30e562ccd3889717e33990600090a250565b6120b160018263ffffffff6125b316565b6040516001600160a01b038216907f6719d08c1888103bea251a4ed56406bd0c3e69723c8a1686e017e7bbe159b6f890600090a250565b6120f960028263ffffffff61247c16565b6040516001600160a01b038216907fa3b62bc36326052d97ea62d63c3d60308ed4c3ea8ac079dd8499f1e9c4f80c0f90600090a250565b61214160008263ffffffff6125b316565b6040516001600160a01b038216907f6ae172837ea30b801fbfcdd4108aa1d5bf8ff775444fd70256b44e6bf3dfc3f690600090a250565b60006001600160a01b0383166121d5576040805162461bcd60e51b815260206004820181905260248201527f46433a207472616e7366657220746f20746865207a65726f2061646472657373604482015290519081900360640190fd5b6001600160a01b0383166000908152600d602052604090205460ff1661225b576001600160a01b0383166000818152600d60205260408120805460ff19166001908117909155600e805491820181559091527fbb7b4a454dc3493923482f07822329ed19e8244eff582cc204f8554c3620c3fd0180546001600160a01b03191690911790555b6122d782610ef16122b261227b6064600954611cb290919063ffffffff16565b6009546001600160a01b038a166000908152600b60205260409020546122a69163ffffffff61263416565b9063ffffffff61268d16565b6001600160a01b0388166000908152600a60205260409020549063ffffffff611cb216565b506001600160a01b0384166000908152600a60205260409020548211612307576123028484846126cf565b612364565b6001600160a01b0384166000908152600a602052604090205461233e908590859061233990869063ffffffff611d0c16565b6127f5565b6001600160a01b0384166000908152600a602052604090205461236490859085906126cf565b826001600160a01b0316846001600160a01b03167fddf252ad1be2c89b69c2b068fc378daa952ba7f163c4a11628f55a4df523b3ef846040518082815260200191505060405180910390a35060019392505050565b6003805460ff191660011790556040805133815290517f483d42b2ec355eefc30508020d123de3c2fca2f0d6f8e751f98449099242b76b9181900360200190a1565b6003805461ff00191690556040805133815290517fa854ea59322d4b14774ee2cca1187710017c50686e8af5272b10a6aa296771f19181900360200190a1565b6003805462ff0000191690556040805133815290517f1503b9ff1c873ebf398bb3115b185db2a83a9d25e1091d3e4fc62d0221cc1b739181900360200190a1565b612486828261181c565b6124c15760405162461bcd60e51b8152600401808060200182810382526021815260200180612ab36021913960400191505060405180910390fd5b6001600160a01b0316600090815260209190915260409020805460ff19169055565b6000813f7fc5d2460186f7233c927e7db2dcc703c0e500b653ca82273b7bfad8045d85a4708181148015906114d7575050151592915050565b600081848411156125ab5760405162461bcd60e51b81526004018080602001828103825283818151815260200191508051906020019080838360005b83811015612570578181015183820152602001612558565b50505050905090810190601f16801561259d5780820380516001836020036101000a031916815260200191505b509250505060405180910390fd5b505050900390565b6125bd828261181c565b1561260f576040805162461bcd60e51b815260206004820152601f60248201527f526f6c65733a206163636f756e7420616c72656164792068617320726f6c6500604482015290519081900360640190fd5b6001600160a01b0316600090815260209190915260409020805460ff19166001179055565b60008261264357506000610c3d565b8282028284828161265057fe5b041461157c5760405162461bcd60e51b8152600401808060200182810382526021815260200180612b1d6021913960400191505060405180910390fd5b600061157c83836040518060400160405280601a81526020017f536166654d6174683a206469766973696f6e206279207a65726f0000000000008152506129dc565b6001600160a01b0383166127145760405162461bcd60e51b8152600401808060200182810382526022815260200180612bc76022913960400191505060405180910390fd5b6001600160a01b03821661276f576040805162461bcd60e51b815260206004820181905260248201527f46433a207472616e7366657220746f20746865207a65726f2061646472657373604482015290519081900360640190fd5b6001600160a01b0383166000908152600a6020526040902054612798908263ffffffff611d0c16565b6001600160a01b038085166000908152600a60209081526040808320949094559185168152600b90915220546127d4908263ffffffff611cb216565b6001600160a01b039092166000908152600b60205260409020919091555050565b6001600160a01b03831661283a5760405162461bcd60e51b8152600401808060200182810382526022815260200180612bc76022913960400191505060405180910390fd5b6001600160a01b038216612895576040805162461bcd60e51b815260206004820181905260248201527f46433a207472616e7366657220746f20746865207a65726f2061646472657373604482015290519081900360640190fd5b60006128bb6128b46009546122a660648661263490919063ffffffff16565b6001612a41565b90506128f56128d0838363ffffffff611cb216565b6001600160a01b0386166000908152600b60205260409020549063ffffffff611d0c16565b6001600160a01b0385166000908152600b6020908152604080832093909355600c9052205461292a908263ffffffff611cb216565b6001600160a01b038086166000908152600c60209081526040808320949094559186168152600b9091522054612966908363ffffffff611cb216565b6001600160a01b038085166000908152600b6020526040902091909155600954908516907f625fed9875dada8643f2418b838ae0bc78d9a148a18eee4ee1979ff0f3f5d427906129c5906128b4906122a687606463ffffffff61263416565b60408051918252519081900360200190a250505050565b60008183612a2b5760405162461bcd60e51b8152602060048201818152835160248401528351909283926044909101919085019080838360008315612570578181015183820152602001612558565b506000838581612a3757fe5b0495945050505050565b600081831015611d5f575080610c3d565b60405180610c800160405280606490602082028038833950919291505056fe46433a204d6967726174696f6e20746f20746865207a65726f206164647265737346433a206275726e2066726f6d20746865207a65726f20616464726573730000526f6c65733a206163636f756e7420646f6573206e6f74206861766520726f6c6546433a20746f6b656e20726563697069656e7420636f6e747261637420686173206e6f20696d706c656d656e74657220666f7220455243373737546f6b656e73526563697069656e74536166654d6174683a206d756c7469706c69636174696f6e206f766572666c6f77506175736572526f6c653a2063616c6c657220646f6573206e6f742068617665207468652050617573657220726f6c65206f722061626f7665526f6c65733a206163636f756e7420697320746865207a65726f206164647265737341646d696e526f6c653a2063616c6c657220646f6573206e6f742068617665207468652041646d696e20726f6c6546433a207472616e736665722066726f6d20746865207a65726f20616464726573734d696e746572526f6c653a2063616c6c657220646f6573206e6f74206861766520746865204d696e74657220726f6c65206f722061626f7665a265627a7a7231582059bfcf1d11e6b6930cc83515892487ac2dbe49ad67df75331289eac20743e48164736f6c634300050b0032536166654d6174683a206d756c7469706c69636174696f6e206f766572666c6f77526f6c65733a206163636f756e7420697320746865207a65726f2061646472657373",
  "source": "pragma solidity ^0.5.0;\n\nimport \"../../node_modules/@openzeppelin/contracts/math/SafeMath.sol\";\nimport \"../../node_modules/@openzeppelin/contracts/introspection/IERC1820Registry.sol\";\nimport \"../../node_modules/@openzeppelin/contracts/token/ERC777/IERC777Recipient.sol\";\nimport \"../../node_modules/@openzeppelin/contracts/utils/Address.sol\";\n\nimport \"./IFC.sol\";\nimport \"./FCPausable.sol\";\nimport \"./SponsorWhitelistControl.sol\";\n\ncontract FC is IFC, FCPausable\n{\n    using SafeMath for uint256;\n    using Address for address;\n\n    string private _name;\n    string private _symbol;\n    uint8 private _decimals;\n    uint256 private _cap;\n    uint256 private _totalSupply;\n    uint256 private _circulationRatio; // For r units of FC, lock 100 FC\n    mapping (address => uint256) private _confluxBalances; // Conflux Pool\n    mapping (address => uint256) private _personalBalances; // Personal Pool\n    mapping (address => uint256) private _personalLockedBalances; // Personal Locked Pool\n\n    mapping (address => bool) private _accountCheck;\n    address[] private _accountList;\n\n    IERC1820Registry constant private ERC1820_REGISTRY = IERC1820Registry(address(0x866aCA87FF33a0ae05D2164B3D999A804F583222));\n\n    // keccak256(\"ERC777TokensRecipient\")\n    bytes32 constant private TOKENS_RECIPIENT_INTERFACE_HASH =\n        0xb281fc8c12954d22544db45de3159a39272895b169a852b314f9cc762e44c53b;\n\n    SponsorWhitelistControl constant public SPONSOR = SponsorWhitelistControl(address(0x8ad036480160591706c831f0DA19D1a424e39469));\n\n    constructor()\n        FCPausable()\n        public\n    {\n        _name = \"FansCoin\";\n        _symbol = \"FC\";\n        _decimals = 18;\n        _circulationRatio = 0;\n        uint256 fc_cap = 100000000;\n        _cap = fc_cap.mul(10 ** uint256(_decimals));\n        // register interfaces\n        ERC1820_REGISTRY.setInterfaceImplementer(address(this), keccak256(\"ERC777Token\"), address(this));\n\n        // register all users as sponsees\n        address[] memory users = new address[](1);\n        users[0] = address(0);\n        //SPONSOR.add_privilege(users);\n    }\n\n    // Fallback\n    function deposit() public onlyAdmin payable {\n    }\n\n    function name() public view returns (string memory) {\n        return _name;\n    }\n\n    function symbol() public view returns (string memory) {\n        return _symbol;\n    }\n\n    function decimals() public view returns (uint8) {\n        return _decimals;\n    }\n\n    function cap() public view returns (uint256) {\n        return _cap;\n    }\n\n    function totalSupply() public view returns (uint256) {\n        return _totalSupply;\n    }\n\n    function balanceOf(address account) public view returns (uint256) {\n        return _confluxBalances[account].add(_personalBalances[account]).add(_personalLockedBalances[account]);\n    }\n\n    function circulationRatio() public view returns (uint256) {\n        return _circulationRatio;\n    }\n\n    function stateOf(address account) public view returns (uint256, uint256, uint256) {\n        return (_confluxBalances[account], _personalBalances[account], _personalLockedBalances[account]);\n    }\n\n    function balanceOfContract() public view returns (uint256) {\n        return address(this).balance;\n    }\n\n    //---------------- Data Migration ----------------------\n    function accountTotal() public view returns (uint256) {\n        return _accountList.length;\n    }\n\n    function accountList(uint256 begin) public view returns (address[100] memory) {\n        require(begin >= 0 && begin < _accountList.length, \"FC: accountList out of range\");\n        address[100] memory res;\n        uint256 range = _min(_accountList.length, begin.add(100));\n        for (uint256 i = begin; i < range; i++) {\n            res[i-begin] = _accountList[i];\n        }\n        return res;\n    }\n\n    function setStateOf(address account, uint256 ConfluxPool, uint256 Personal, uint256 Locked) public onlyPauser whenMigrateNotPaused {\n        require(account != address(0), \"FC: Migration to the zero address\");\n\n        if (!_accountCheck[account]) {\n            _accountCheck[account] = true;\n            _accountList.push(account);\n        }\n\n        _confluxBalances[account] = ConfluxPool;\n        _personalBalances[account] = Personal;\n        _personalLockedBalances[account] = Locked;\n\n        emit Write(account, ConfluxPool, Personal, Locked);\n    }\n\n    function setTotalSupply(uint256 total) public onlyPauser whenMigrateNotPaused {\n        _totalSupply = total;\n    }\n    //---------------- End Data Migration ----------------------\n    function setCirculationRatio(uint256 value) public onlyAdmin {\n        _circulationRatio = value;\n    }\n\n    function mint(address account, uint256 value) public onlyMinter returns (bool) {\n        if (!_accountCheck[account]) {\n            _accountCheck[account] = true;\n            _accountList.push(account);\n        }\n\n        _mint(account, value);\n\n        _callTokensReceived(msg.sender, address(0), account, value, \"\", \"\", true);\n\n        return true;\n    }\n\n    function transfer(address recipient, uint256 value) public whenTransferNotPaused returns (bool) {\n        bool success = _transfer(msg.sender, recipient, value);\n        _callTokensReceived(msg.sender, msg.sender, recipient, value, \"\", \"\", false);\n        return success;\n    }\n\n    function send(address recipient, uint256 value, bytes memory data) public whenTransferNotPaused returns (bool) {\n        bool success = _transfer(msg.sender, recipient, value);\n        _callTokensReceived(msg.sender, msg.sender, recipient, value, data, \"\", true);\n        return success;\n    }\n\n\n    function _transfer(address sender, address recipient, uint256 value) internal returns (bool) {\n        require(recipient != address(0), \"FC: transfer to the zero address\");\n\n        if (!_accountCheck[recipient]) {\n            _accountCheck[recipient] = true;\n            _accountList.push(recipient);\n        }\n\n        // If the given amount is greater than\n        // the unlocked balance of the sender, revert\n        _confluxBalances[sender].add(_personalBalances[sender].mul(_circulationRatio).div(_circulationRatio.add(100))).sub(value);\n\n        // Favor Conflux Pool due to the lack of circulation restriction\n        if (value <= _confluxBalances[sender]) {\n            _transferC2P(sender, recipient, value);\n        } else {\n            _transferP2P(sender, recipient, value.sub(_confluxBalances[sender]));\n            _transferC2P(sender, recipient, _confluxBalances[sender]);\n        }\n\n        emit Transfer(sender, recipient, value);\n        return true;\n    }\n\n    function burn(uint256 value) public whenBurnNotPaused {\n        require(msg.sender != address(0), \"FC: burn from the zero address\");\n\n        // If the given amount is greater than the balance of the sender, revert\n        _confluxBalances[msg.sender].add(_personalBalances[msg.sender]).add(_personalLockedBalances[msg.sender]).sub(value);\n\n        if (address(this).balance < value) {\n            value = address(this).balance;\n        }\n\n        // Personal Locked Pool > Personal Pool > Conflux Pool\n        _burnCPool(msg.sender, value > _personalBalances[msg.sender].add(_personalLockedBalances[msg.sender]) ?\n            _min(value.sub(_personalLockedBalances[msg.sender]).sub(_personalBalances[msg.sender]), _confluxBalances[msg.sender]) : 0);\n\n        _burnPPool(msg.sender, value > _personalLockedBalances[msg.sender] ?\n            _min(value.sub(_personalLockedBalances[msg.sender]), _personalBalances[msg.sender]): 0);\n\n        _burnPPoolLocked(msg.sender, _min(value, _personalLockedBalances[msg.sender]));\n\n        // Transfer CFX to the burn request sender\n        msg.sender.transfer(value);\n\n        emit Transfer(msg.sender, address(0), value);\n    }\n\n    //---------- Helper Begin ----------//\n    function _mint(address account, uint256 value) internal {\n        require(account != address(0), \"FC: mint to the zero address\");\n        require(totalSupply().add(value) <= _cap, \"FC: cap exceeded\");\n\n        _totalSupply = _totalSupply.add(value);\n        _confluxBalances[account] = _confluxBalances[account].add(value);\n\n        emit Transfer(address(0), account, value);\n    }\n\n    function _transferC2P(address sender, address recipient, uint256 value) internal {\n        require(sender != address(0), \"FC: transfer from the zero address\");\n        require(recipient != address(0), \"FC: transfer to the zero address\");\n\n        _confluxBalances[sender] = _confluxBalances[sender].sub(value);\n        _personalBalances[recipient] = _personalBalances[recipient].add(value);\n    }\n\n    function _transferP2P(address sender, address recipient, uint256 value) internal {\n        require(sender != address(0), \"FC: transfer from the zero address\");\n        require(recipient != address(0), \"FC: transfer to the zero address\");\n\n        uint256 lockedAmount = _max(value.mul(100).div(_circulationRatio), 1);\n\n        // Spend: -(value + value * 100 / r)\n        _personalBalances[sender] = _personalBalances[sender].sub(value.add(lockedAmount));\n\n        // Lock: + value * 100 / r, at least 1\n        _personalLockedBalances[sender] = _personalLockedBalances[sender].add(lockedAmount);\n\n        // Transfer: +value\n        _personalBalances[recipient] = _personalBalances[recipient].add(value);\n\n        emit Lock(sender, _max(value.mul(100).div(_circulationRatio), 1));\n    }\n\n    function _burnPPoolLocked(address account, uint256 value) internal {\n        require(account != address(0), \"FC: burn from the zero address\");\n        _personalLockedBalances[account] = _personalLockedBalances[account].sub(value);\n        _totalSupply = _totalSupply.sub(value);\n    }\n\n    function _burnPPool(address account, uint256 value) internal {\n        require(account != address(0), \"FC: burn from the zero address\");\n        _personalBalances[account] = _personalBalances[account].sub(value);\n        _totalSupply = _totalSupply.sub(value);\n    }\n\n    function _burnCPool(address account, uint256 value) internal {\n        require(account != address(0), \"FC: burn from the zero address\");\n        _confluxBalances[account] = _confluxBalances[account].sub(value);\n        _totalSupply = _totalSupply.sub(value);\n    }\n\n    function _min(uint256 value1, uint256 value2) internal pure returns (uint256) {\n        if (value1 > value2) {\n            return value2;\n        }\n        return value1;\n    }\n\n    function _max(uint256 value1, uint256 value2) internal pure returns (uint256) {\n        if (value1 < value2) {\n            return value2;\n        }\n        return value1;\n    }\n    //---------- Helper End ------------//\n    //---------- Token Received Begin ----------//\n    function _callTokensReceived(\n        address operator,\n        address from,\n        address to,\n        uint256 amount,\n        bytes memory userData,\n        bytes memory operatorData,\n        bool requireReceptionAck\n    )\n        private\n    {\n        address implementer = ERC1820_REGISTRY.getInterfaceImplementer(to, TOKENS_RECIPIENT_INTERFACE_HASH);\n        if (implementer != address(0)) {\n            IERC777Recipient(implementer).tokensReceived(operator, from, to, amount, userData, operatorData);\n        } else if (requireReceptionAck) {\n            require(!to.isContract(), \"FC: token recipient contract has no implementer for ERC777TokensRecipient\");\n        }\n    }\n    //---------- Token Received End ----------//\n}\n",
  "sourcePath": "/mnt/c/conflux/custodian/contracts/FC_ERC777/FC.sol",
  "compiler": {
    "name": "solc",
    "version": "0.5.11+commit.c082d0b4.Emscripten.clang"
  },
  "schemaVersion": "3.0.23",
  "updatedAt": "2020-04-04T08:14:57.731Z",
  "devdoc": {
    "methods": {}
  },
  "userdoc": {
    "methods": {}
  }
}